:020000040800F2
:100000000006001041AE0208B9110208B70200084C
:10001000C7110208CD110208D31102080000000028
:10002000000000000000000000000000D9110208DC
:1000300091AE020800000000FF010008E9CC0108B1
:1000400091AE020891AE020891AE020891AE02088C
:1000500091AE020891AE0208D7FD0108EDFD01083E
:1000600003FE010819FE01082FFE010891AE0208E7
:1000700091AE020891AE020891AE020891AE02085C
:1000800091AE020891AE020891AE020891AE02084C
:1000900091AE020891AE020891AE020845FE010839
:1000A00091AE020891AE020891AE020891AE02082C
:1000B00009E90108E1E80108CDE8010891AE02086C
:1000C00091AE020891AE020891AE020891AE02080C
:1000D00091AE0208310B0208810B0208D10B020815
:1000E00077FE010891AE020891AE020891AE0208B7
:1000F00091AE020891AE0208F5E8010891AE02083F
:1001000091AE020891AE020891AE020891AE0208CB
:10011000210C020891AE0208E9F4010891AE020830
:1001200091AE020891AE020891AE020891AE0208AB
:1001300091AE020891AE020891AE020891AE02089B
:1001400091AE020891AE020891AE02085910020861
:1001500091AE020891AE020891AE020891AE02087B
:1001600091AE020891AE020891AE020891AE02086B
:1001700091AE020891AE020891AE020800000000A4
:0801800091AE020891AE0208E5
:1001900010B5054C237833B9044B13B10448AFF3C1
:1001A00000800123237010BD900600200000000095
:1001B000F8DC020808B5034B1BB103490348AFF351
:1001C000008008BD0000000094060020F8DC020852
:1001D000EFF3108072B6704780F3108870473B4A87
:1001E0001368012B04D04FF001031360384A1060EC
:1001F000384A116038484FF0805101607047EFF382
:10020000108272B63148016851B34FF000010160AD
:100210002F48016891B1EFF309811EF0100F08BF5C
:1002200021ED108B21E9F00F4FF000041EF0100FAC
:1002300008BF012441F8044D0068016025490968A0
:10024000096808C9B1E8F00F002B18BFB1EC108B9A
:1002500081F309884EF0100E002B18BF2EF0100EFF
:1002600082F310884EF0040E70471A490860EFF3CD
:10027000148222F0040282F3148815494FF0000022
:10028000086012494FF00100086014484FF47F01E4
:10029000D0F8002041EA020101600F484FF0805180
:1002A00001600F480068006800BF80F3088861B6ED
:1002B00062B6704700BFEFF3098000B506F002FA9E
:1002C0005DF804EB4EF0040E70470000F835002096
:1002D000F4350020F035002004ED00E020ED00E0D2
:1002E00008ED00E081F0004102E000BF83F0004330
:1002F00030B54FEA41044FEA430594EA050F08BFC1
:1003000090EA020F1FBF54EA000C55EA020C7FEA84
:10031000645C7FEA655C00F0E2804FEA5454D4EB01
:100320005555B8BF6D420CDD2C4480EA020281EACB
:10033000030382EA000083EA010180EA020281EA03
:100340000303362D88BF30BD11F0004F4FEA013155
:100350004FF4801C4CEA113102D0404261EB410164
:1003600013F0004F4FEA03334CEA133302D05242EA
:1003700063EB430394EA050F00F0A780A4F10104A6
:10038000D5F1200E0DDB02FA0EFC22FA05F28018E0
:1003900041F1000103FA0EF2801843FA05F35941C6
:1003A0000EE0A5F120050EF1200E012A03FA0EFC45
:1003B00028BF4CF0020C43FA05F3C01851EBE3716F
:1003C00001F0004507D54FF0000EDCF1000C7EEB8C
:1003D00000006EEB0101B1F5801F1BD3B1F5001FCA
:1003E0000CD349085FEA30004FEA3C0C04F10104E9
:1003F0004FEA445212F5800F80F09A80BCF1004F12
:1004000008BF5FEA500C50F1000041EB045141EA93
:10041000050130BD5FEA4C0C404141EB010111F494
:10042000801FA4F10104E9D191F0000F04BF01463F
:100430000020B1FA81F308BF2033A3F10B03B3F11D
:1004400020020CDA0C3208DD02F1140CC2F10C02AD
:1004500001FA0CF021FA02F10CE002F11402D8BF0B
:10046000C2F1200C01FA02F120FA0CFCDCBF41EAD7
:100470000C019040E41AA2BF01EB0451294330BDA6
:100480006FEA04041F3C1CDA0C340EDC04F1140483
:10049000C4F1200220FA04F001FA02F340EA03005A
:1004A00021FA04F345EA030130BDC4F10C04C4F1A0
:1004B000200220FA02F001FA04F340EA0300294680
:1004C00030BD21FA04F0294630BD94F0000F83F4CA
:1004D000801306BF81F480110134013D4EE77FEAAD
:1004E000645C18BF7FEA655C29D094EA050F08BFF9
:1004F00090EA020F05D054EA000C04BF19461046DA
:1005000030BD91EA030F1EBF0021002030BD5FEA1D
:10051000545C05D14000494128BF41F0004130BD45
:1005200014F580043CBF01F5801130BD01F0004599
:1005300045F0FE4141F470014FF0000030BD7FEA0C
:10054000645C1ABF194610467FEA655C1CBF0B4607
:10055000024650EA013406BF52EA033591EA030F1E
:1005600041F4002130BD00BF90F0000F04BF002116
:10057000704730B54FF4806404F132044FF0000549
:100580004FF0000150E700BF90F0000F04BF0021C2
:10059000704730B54FF4806404F1320410F0004528
:1005A00048BF40424FF000013EE700BF42004FEA23
:1005B000E2014FEA31014FEA02701FBF12F07F43A0
:1005C00093F07F4F81F06051704732F07F4208BF57
:1005D000704793F07F4F04BF41F40021704730B55E
:1005E0004FF4607401F0004521F000411CE700BFAA
:1005F00050EA010208BF704730B54FF000050AE02D
:1006000050EA010208BF704730B511F0004502D52D
:10061000404261EB41014FF4806404F132045FEA2F
:10062000915C3FF4D8AE4FF003025FEADC0C18BFD8
:1006300003325FEADC0C18BF033202EBDC02C2F1CA
:10064000200300FA03FC20FA02F001FA03FE40EA5C
:100650000E0021FA02F11444BDE600BF4FF0FF3C4A
:1006600006E000BF4FF0010C02E000BF4FF0010CAC
:100670004DF804CD4FEA410C7FEA6C5C4FEA430C25
:1006800018BF7FEA6C5C1BD001B050EA410C0CBF74
:1006900052EA430C91EA030F02BF90EA020F0020D6
:1006A000704710F1000F91EA030F58BF994208BF3D
:1006B00090422CBFD8176FEAE37040F001007047FA
:1006C0004FEA410C7FEA6C5C02D150EA013C07D151
:1006D0004FEA430C7FEA6C5CD6D152EA033CD3D09C
:1006E0005DF8040B704700BF8446104662468C4696
:1006F0001946634600E000BF01B5FFF7B7FF0028C9
:1007000048BF10F1000F01BD4DF808EDFFF7F4FFF1
:100710000CBF012000205DF808FB00BF4DF808ED7C
:10072000FFF7EAFF34BF012000205DF808FB00BF9F
:100730004DF808EDFFF7E0FF94BF012000205DF8C1
:1007400008FB00BF4DF808EDFFF7CEFF94BF012076
:1007500000205DF808FB00BF4DF808EDFFF7C4FF6F
:1007600034BF012000205DF808FB00BF53B94AB92F
:10077000002908BF00281CBF4FF0FF314FF0FF30A9
:1007800000F072B9ADF1080C6DE904CE00F006F886
:10079000DDF804E0DDE9022304B070472DE9F047FD
:1007A000089E04468846002B4BD18A42154667D9DD
:1007B000B2FA82F24AB1C2F1200701FA02F320FA3A
:1007C00007F7954047EA030894404FEA154E230C7B
:1007D000B8FBFEF71FFA85FC0EFB178843EA0843B7
:1007E00007FB0CF1994209D9EB1807F1FF3080F0B3
:1007F0001B81994240F21881023F2B445B1AA4B23C
:10080000B3FBFEF00EFB103344EA034400FB0CFC88
:10081000A44509D92C1900F1FF3380F00781A445C4
:1008200040F2048102382C4440EA0740A4EB0C0457
:1008300000271EB1D4400023C6E900433946BDE875
:10084000F0878B4209D9002E00F0EB800027C6E923
:10085000000138463946BDE8F087B3FA83F7002F28
:1008600047D18B4202D3824200F2FA80841A61EBB4
:10087000030301209846002EE0D0C6E90048DDE7DA
:1008800002B9FFDEB2FA82F2002A40F08F80491BE3
:100890004FEA154E1FFA85F80127B1FBFEFC230C29
:1008A0000EFB1C1143EA014308FB0CF1994207D9E6
:1008B000EB180CF1FF3002D2994200F2CD80844651
:1008C000591AA3B2B1FBFEF00EFB101443EA044424
:1008D00008FB00F8A04507D92C1900F1FF3302D21C
:1008E000A04500F2B6801846A4EB080440EA0C408C
:1008F0009FE7C7F1200CBB4022FA0CFE4EEA030E24
:1009000001FA07F420FA0CF521FA0CF34FEA1E481D
:100910002543B3FBF8F92C0C08FB19331FFA8EFAA8
:1009200044EA034309FB0AF49C4202FA07F200FA84
:1009300007F10BD91EEB030309F1FF3080F087802C
:100940009C4240F28480A9F1020973441B1BADB2A2
:10095000B3FBF8F008FB103345EA034400FB0AFA46
:10096000A24508D91EEB040400F1FF336BD2A24567
:1009700069D90238744440EA0940A0FB0289A4EB1B
:100980000A044C45C2464B4654D351D0002E69D080
:10099000B1EB0A0564EB030404FA0CFCFD40FC40D7
:1009A0004CEA0505C6E90054002747E7C2F12003D9
:1009B00020FA03F7954001FA02F021FA03F34FEA17
:1009C000154E3843010CB3FBFEF71FFA85F80EFBFA
:1009D000173341EA034107FB08F38B4204FA02F4A0
:1009E00007D9691807F1FF3C2FD28B422DD9023F5E
:1009F0002944CB1A81B2B3FBFEF00EFB103341EA5F
:100A0000034100FB08F38B4207D9691800F1FF3C52
:100A100017D28B4215D902382944C91A40EA074730
:100A20003BE73746304609E70746E7E61846FBE668
:100A30004145ABD2B8EB020A69EB0E02013813460E
:100A4000A4E76046E9E7184695E76746D1E781469F
:100A50007CE702382C4447E7ACF1020C2B442FE72B
:100A6000384608E73746E9E6704700BF10F8012B23
:100A700011F8013B012A28BF9A42F7D0D01A7047DB
:100A8000034613F8012B002AFBD1181A01387047CE
:100A900001F0FF01102A2BDB10F0070F08D010F82F
:100AA000013B013A8B422DD010F0070F42B3F6D133
:100AB000F0B441EA012141EA014122F007047FF04C
:100AC00000070023F0E80256083C85EA010586EAA3
:100AD000010685FA47F5A3FA87F586FA47F6A5FADF
:100AE00087F68EB9EED1F0BC01F0FF0102F00702EB
:100AF00032B110F8013B013A83EA010313B1F8D196
:100B00000020704701387047002D06BF3546033876
:100B1000073815F0010F07D1013015F4807F02BFAF
:100B2000013015F4C03F0130F0BC0138704700BF00
:100B30007BB972B90029BEBF00204FF0004106E02A
:100B400008BF00281CBF6FF000414FF0FF30FFF7D7
:100B50008BBFADF1080C6DE904CE002909DB002B39
:100B60001ADBFFF71BFEDDF804E0DDE9022304B029
:100B70007047404261EB4101002B1BDBFFF70EFE8B
:100B8000DDF804E0DDE9022304B0404261EB4101FD
:100B9000524263EB43037047524263EB4303FFF758
:100BA000FDFDDDF804E0DDE9022304B0404261EB25
:100BB00041017047524263EB4303FFF7EFFDDDF85D
:100BC00004E0DDE9022304B0524263EB43037047C3
:100BD00080B400AF034B1B681846BD465DF8047B2C
:100BE000704700BFAC06002080B582B000AF0E4B4E
:100BF0001B6801330C4A136003F00AFD78607B68C0
:100C00009B6C5A1E7B689A647B689B6C002B05D199
:100C10007B685A6C7B689A6403F0B2FD04F012FAA8
:100C200000BF0837BD4680BDAC06002080B485B04B
:100C300000AF78607B68002B03DA4FF0FF33FB6076
:100C40000DE07B684FF47A7202FB03F303F2E733A3
:100C5000064A82FB03129211DB17D31AFB60FB6872
:100C600018461437BD465DF8047B7047D34D6210BB
:100C700080B400AF00231846BD465DF8047B704782
:100C800080B400AF00231846BD465DF8047B704772
:100C900080B400AF00231846BD465DF8047B704762
:100CA00080B400AF00231846BD465DF8047B704752
:100CB00080B582B000AF084B7B6005E07B681B68A5
:100CC00098477B6804337B607B68044A9342F5D382
:100CD00000BF0837BD4680BDA86A0308BC6A030888
:100CE00080B582B000AF084B7B6005E07B681B6875
:100CF00098477B6804337B607B68044A9342F5D352
:100D000000BF0837BD4680BDBC6A0308086B0308F6
:100D100080B500AFFFF75CFA00F036F80023184604
:100D200080BD80B582B000AF7860FFF7D9FF26F0B4
:100D300037FE00BF0837BD4680BD000080B584B0D7
:100D400002AF142301930A2300934FF4806300221F
:100D500009490A4803F0AAFC78607B68002B04D19B
:100D6000D1220749074802F01BFB786803F05CFCBE
:100D700000BF0837BD4680BD230D000810DD020806
:100D80004C33030818DD020880B500AFFFF720FAE6
:100D90001CF004F801F0E6FD04F03EFA03F08EF9D1
:100DA000FFF7CCFF04F052FA00F0B4FA03F0B0F908
:100DB0000023184680BD80B483B000AF78607B68A4
:100DC0007A685A607B685A687B681A6000BF0C3783
:100DD000BD465DF8047B704780B584B000AFF86015
:100DE000B9601346FB80FB68002B02D14FF0FF3344
:100DF00020E0B86800F03CF80346002B02D04FF02A
:100E0000FF3317E0FB68BA680821184602F088FF34
:100E1000FB68FA88DA82FB6800229A76FB68002277
:100E20001A83FB680022DA63FB6840331846FFF739
:100E3000C2FF002318461037BD4680BD80B582B082
:100E400000AF78607B68002B04D14D22064907482B
:100E500002F0A6FA7B68184602F0A4FF00231846A9
:100E60000837BD4680BD00BF6033030828DD020897
:100E700080B586B000AF786003F0CAFB0346002B54
:100E800001D003F045FA082002F026FF38613B69E3
:100E9000002B04D175221849184802F081FA3B69E9
:100EA0005B687B6117E07B690C3BFB60FB68082299
:100EB0007968184601F0D0FC0346002B08D103F0F6
:100EC000A7FB0346002B01D003F038FAFB680FE0C4
:100ED0007B691B687B613B6904337A699A42E2D182
:100EE00003F096FB0346002B01D003F027FA002302
:100EF00018461837BD4680BD7833030838DD020830
:100F000080B584B000AF78600B467B800023FB6027
:100F10007B68002B04D1E8223549364802F040FABC
:100F20007B68DB8A03F01003002B1AD17B685B6AB5
:100F3000002B0FD07B685B6A78689847F860FB6885
:100F4000002B07D07B68FA6819462B4802F09EF9FF
:100F5000FB6848E07B68DB8A43F010039AB27B6849
:100F6000DA827B68DB8A03F00803002B08D07B68F9
:100F70001B8B03F00803002B02D06FF0060332E056
:100F80007B689B6A002B07D07B689B6A7A88114636
:100F900078689847F86007E07B8823F0F0031B052A
:100FA0001B0D9AB27B681A83FB68002B03D0FB6889
:100FB00013F1060F16D17B681B8B43F008039AB21E
:100FC0007B681A837B689B7E0133DAB27B689A76F2
:100FD0007B689B7E002B05D14FF48B720449074838
:100FE00002F0DEF9FB6818461037BD4680BD00BF31
:100FF0008833030828DD020850DD020888DD020876
:1010000080B584B000AF78600023FB607B68002B64
:1010100005D14FF494721749174802F0C1F97B6863
:101020009B7E002B02D14FF0FF331FE07B689B7E3D
:10103000013BDAB27B689A767B689B7E002B01D0FD
:10104000002313E07B68DB6A002B04D07B68DB6A3B
:1010500078689847F860FB68002B03D0FB6813F1B1
:10106000060F02D17B6800221A83FB6818461037EE
:10107000BD4680BD9833030828DD020890B585B0D1
:1010800000AFF860B9607A603B60FB68002B05D167
:1010900040F251121149124802F082F9FB689B7E1E
:1010A000002B05D14FF0FF3001F07AFA002311E058
:1010B000FB681B6B002B08D0FB681C6B3B687A68D5
:1010C000B968F868A047034604E06FF0050001F036
:1010D00067FA002318461437BD4690BDA8330308AD
:1010E00028DD020890B585B000AFF860B9607A607D
:1010F0003B60FB68002B05D140F277121149124882
:1011000002F04EF9FB689B7E002B05D14FF0FF30BB
:1011100001F046FA002311E0FB685B6B002B08D05E
:10112000FB685C6B3B687A68B968F868A04703465F
:1011300004E06FF0050001F033FA0023184614377D
:10114000BD4690BDB833030828DD020880B584B0E1
:1011500000AFF860B9607A60FB68002B05D140F2FF
:1011600097120B490B4802F01BF9FB689B6B002B95
:1011700007D0FB689B6B7A68B968F86898470346A4
:1011800001E06FF0050318461037BD4680BD00BF73
:10119000C833030828DD020880B582B000AF78604C
:1011A00039607B68002B05D14FF4D8720549064899
:1011B00002F0F6F87B683A68DA61002318460837CF
:1011C000BD4680BDDC33030828DD020880B483B04F
:1011D00000AF78607B681B687A6852685A607B68E9
:1011E0005B687A6812681A607B687A685A607B6804
:1011F0005A687B681A6000BF0C37BD465DF8047BF7
:101200007047000080B483B000AF084B7B607B6800
:101210001B687A689A4214BF01230023DBB2184688
:101220000C37BD465DF8047B704700BFE8350020F1
:1012300080B584B000AF4CE0FEF7CAFFF86001F063
:10124000A3F90346002B08D02649274802F01EF8D0
:1012500066222449254802F0A3F8F868FEF7BCFF8F
:10126000FEF7B6FFB860FFF7CDFF0346002B21D095
:101270001F4B1B68143B7B607B6814331846FFF7D9
:10128000A5FF03F045F87B689B6F002B03D07B68BC
:101290009B6F78689847786802F04EFE0346012BF2
:1012A00005D103F04BF8B868FEF796FF16E003F09F
:1012B00045F803E0B868FEF78FFF0FE0B868FEF767
:1012C0008BFF7B689B6A184602F0ECFB786802F0A3
:1012D000F9FDFFF797FF0346002BADD11037BD4650
:1012E00080BD00BFF83303089CDD0208C4DD02089E
:1012F000E835002080B582B000AF7860044B1B68F1
:10130000002B02D0024B1B689847FFF791FFF5E7CF
:101310003008002080B584B004AF202303931F233E
:1013200002934FF480730193064B00930023064A07
:101330000649074803F036F9054803F075F900BF80
:10134000BD4680BD30070020F5120008C8DD020848
:10135000B006002080B483B000AF78607B687A6804
:101360005A607B685A687B681A6000BF0C37BD46BC
:101370005DF8047B704780B483B000AF786039605B
:101380007B685B683A681A607B685A683B685A6099
:101390007B683A685A603B687A681A6000BF0C370D
:1013A000BD465DF8047B704780B483B000AF7860C1
:1013B0007B681B687A689A420CBF01230023DBB26A
:1013C00018460C37BD465DF8047B704780B582B087
:1013D00000AF78607B6814331846FFF7BBFF00232B
:1013E00018460837BD4680BD80B586B000AFF860AE
:1013F000B9601346FB71B86803F09EFAFB79002BC5
:1014000002D0012B07D031E0BB6814331946F868CD
:10141000FFF7B1FF2AE0FB681B687B6117E07B697F
:10142000143B3B61BB6893F835203B6993F835303A
:101430009A4209D23B6903F11402BB68143319467E
:101440001046FFF798FF06E07B691B687B617A69AD
:10145000FB689A42E3D17A69FB689A4205D1BB687E
:1014600014331946F868FFF786FF00BF00231846BB
:101470001837BD4680BD80B584B000AF78607B680A
:101480001B68143BFB60F86803F09CFA00231846C5
:101490001037BD4680BD90B585B000AF786012E0D2
:1014A000FEF796FE03461C467B681B68143BFB60F8
:1014B000FB684FF0FF321A63F86803F083FA2346A3
:1014C0001846FEF789FE7868FFF76EFF0346002B8B
:1014D000E6D0002318461437BD4690BD80B584B0D1
:1014E00000AFF860B9607A60FB70FB68002B04D134
:1014F000D8220D490D4801F053FFFB68BA6801215D
:10150000184602F00DFCFB681846FFF75FFF7B688A
:101510009AB2FB689A83FB68FA785A7200231846DD
:101520001037BD4680BD00BF10340308D0DD02086F
:1015300080B582B000AF78607B68002B04D1F522C3
:101540000849094801F02CFF7B6814331846FFF75F
:10155000A2FF7B68184602F025FC002318460837D6
:10156000BD4680BD1C340308D0DD020880B586B0BE
:1015700000AFF860B9601346FB71FEF729FE786191
:1015800001F002F80346002B09D01349134801F07B
:101590007DFE40F211121049114801F001FF7869F7
:1015A000FEF71AFEF968012002F026FC38613B695B
:1015B000002B01D13B690BE03B691846FFF706FFA2
:1015C000BB689AB23B699A833B69FA795A723B6964
:1015D00018461837BD4680BD2C340308E0DD0208EC
:1015E00008DE020890B587B000AF786039607B688C
:1015F000002B05D140F24D124449454801F0D0FE80
:10160000444B1B68002B04D0424B1B687A68104681
:101610009847FEF7DDFD04467B689B8B002B09D0C5
:101620007B689B8B013B9AB27B689A832046FEF7CE
:10163000D3FD5CE03B68002B05D12046FEF7CCFDD6
:101640006FF001035DE0FEF7C3FD786102F0E0FF9B
:101650000346002B09D12D492F4801F017FE40F217
:101660006D122A492D4801F09BFEFEF7B1FD38614D
:1016700000F08AFF0346002B09D02449284801F0D6
:1016800005FE40F26D122149244801F089FE3869B7
:10169000FEF7A2FD7869FEF79FFD02F0B9FFF86042
:1016A000FB6800221A637B6803F114007B685B7A95
:1016B0001A46F968FFF798FE3B68002B0BDDFB68C4
:1016C0004C333A460021184603F07AFCFB684C3351
:1016D000184603F02DFB2046FEF77EFD02F036FD96
:1016E000FB681B6B002B02D0FB681B6B09E00D4BEA
:1016F0001B68002B04D00B4B1B687A681046984778
:10170000002318461C37BD4690BD00BF3C3403087B
:10171000D0DD0208D83400200CDE020808DE020802
:10172000E0DD0208D4340020B0B582B000AF7860AC
:10173000164B1B68002B04D0144B1B687A681046AC
:1017400098470024FEF744FD05467B68143318468D
:10175000FFF72AFE0346002B06D17B681433184698
:10176000FFF789FE012405E07B689B8B01339AB269
:101770007B689A832846FEF72FFD012C01D102F0E9
:10178000E5FC002318460837BD46B0BDD034002024
:1017900080B586B000AFF860B9607A60FB68002B56
:1017A00005D14FF4F2721249124801F0F9FDBB68FD
:1017B000012B16D17B687B61FEF70AFD03463B6176
:1017C000FB6814331846FFF766FE7B699AB2FB6824
:1017D0009A833B691846FEF7FFFC02F0B7FC002332
:1017E00001E04FF0FF3318461837BD4680BD00BFFB
:1017F00048340308D0DD020880B584B000AFF8603B
:10180000B9601346FB71FB68002B05D140F20F2233
:101810001049114801F0C4FDFB68BA68022118465E
:1018200002F07EFAFB681846FFF7D0FDFB68012244
:101830009A83FB6800221A62FB68FF229A77FB6892
:101840000022DA77FB68FA795A72002318461037BB
:10185000BD4680BD5834030844DE020880B582B01E
:1018600000AF78607B68002B05D140F22E22094939
:10187000094801F095FD7B6814331846FFF70BFE0D
:101880007B68184602F08EFA002318460837BD46DA
:1018900080BD00BF6834030844DE020880B584B010
:1018A00000AF78600B46FB70FEF792FCF86000F02A
:1018B0006BFE0346002B09D01749184801F0E6FCDF
:1018C00040F249221449164801F06AFDF868FEF713
:1018D00083FC7968022002F08FFAB860BB68002BA5
:1018E00001D1BB6813E0BB681846FFF76FFDBB680A
:1018F00001229A83BB6800221A62BB68FF229A7792
:10190000BB680022DA77BB68FA785A72BB6818465F
:101910001037BD4680BD00BF78340308E0DD020803
:1019200008DE020880B584B000AF7860FEF750FC96
:10193000F86000F029FE0346002B09D01149124837
:1019400001F0A4FC40F26A220E49104801F028FD83
:10195000F868FEF741FC7B68002B05D14FF41B7241
:1019600008490B4801F01CFD7B6814331846FFF74B
:1019700092FD7B68184602F0A5FA0023184610373E
:10198000BD4680BD88340308E0DD020808DE020899
:1019900044DE020890B587B000AF78603960FEF78A
:1019A00017FC786102F034FE0346002B09D15F4931
:1019B0005F4801F06BFC4FF422725C495D4801F016
:1019C000EFFCFEF705FC386100F0DEFD0346002B5E
:1019D00009D05649584801F059FC4FF42272534936
:1019E000544801F0DDFC3869FEF7F6FB7869FEF734
:1019F000F3FB7B68002B05D140F28A224B494F480C
:101A000001F0CEFC02F004FEF860FEF7E1FB0446B4
:101A10004B4B1B68002B04D0494B1B687A6810465F
:101A20009847FB6800221A637B681B6AFA689A422F
:101A300006D17B68DB7F0133DAB27B68DA7764E05A
:101A400000BF7B689B8B002B14D07B689B8B013B7A
:101A50009AB27B689A837B68FA681A62FB6893F88B
:101A600035207B689A777B68DB7F0133DAB27B684D
:101A7000DA774AE03B68002B09D1FB686FF001027E
:101A80001A632046FEF7A8FB6FF001034AE0FB68EB
:101A900093F835207B681B6A93F835309A4207D259
:101AA0007B68186AFB6835331A46022102F0E8FEAB
:101AB0007B6803F114007B685B7A1A46F968FFF7CC
:101AC00093FC3B68002B0BDDFB684C333A4600214E
:101AD000184603F075FAFB684C33184603F028F9F2
:101AE0002046FEF779FB02F031FBFB681B6B002BF5
:101AF00008D0FB681B6B13F1090F00D1A1E7FB684D
:101B00001B6B0FE0FEF764FB04462046FEF764FB08
:101B10000C4B1B68002B04D00A4B1B687A681046DC
:101B20009847002318461C37BD4690BD98340308DB
:101B30000CDE020808DE0208E0DD020844DE0208CE
:101B4000D8340020D434002090B587B000AF78603E
:101B500000237B61FEF73CFB386102F059FD034630
:101B6000002B09D14A494B4801F090FB40F2113259
:101B70004749494801F014FCFEF72AFBF86000F0E1
:101B800003FD0346002B09D04149444801F07EFB88
:101B900040F211323E49404801F002FCF868FEF77D
:101BA0001BFB3869FEF718FB02F032FDB860FEF748
:101BB0000FFB04463A4B1B68002B04D0384B1B68C4
:101BC0007A68104698477B681B6ABA689A4209D0BF
:101BD000BB684FF0FF321A632046FEF7FDFA4FF064
:101BE000FF3350E07B68DB7F013BDAB27B68DA775A
:101BF0007B68DB7F002B3DD17B689A7F7B681B6A0B
:101C000093F835309A4207D07B68186A7B681E3398
:101C10001A46022102F034FE7B6814331846FFF79F
:101C2000C3FB0346002B19D17B685B69143BBB6087
:101C30007B68BA681A62BB6893F835207B689A772C
:101C40007B68DB7F0133DAB27B68DA777B68143339
:101C50001846FFF710FC01237B610BE07B689B8B30
:101C600001339AB27B689A837B6800221A627B6890
:101C7000FF229A772046FEF7AFFA7B69012B01D14C
:101C800002F064FA002318461C37BD4690BD00BF21
:101C9000A83403080CDE020808DE0208E0DD0208B2
:101CA000D034002080B584B000AFF860B96013462E
:101CB000FB71FB68002B05D140F27F320C490D48C7
:101CC00001F06EFBFB68BA680321184602F028F8A1
:101CD000FB68FA795A72FB681846FFF777FBFB68D6
:101CE0000022DA61002318461037BD4680BD00BFD0
:101CF000BC34030858DE020880B584B000AF7860B9
:101D00000B46FB70FEF764FAF86000F03DFC0346FA
:101D1000002B09D01249134801F0B8FA4FF46D7244
:101D20000F49114801F03CFBF868FEF755FA796855
:101D3000032002F061F8B860BB68002B01D1BB68DA
:101D40000AE0BB68FA785A72BB681846FFF73EFB98
:101D5000BB680022DA61BB6818461037BD4680BDFB
:101D6000CC340308E0DD020808DE020880B584B048
:101D700000AF78607B68002B05D140F2D232134966
:101D8000134801F00DFBFEF723FAF86000F0FCFBAE
:101D90000346002B09D00D490E4801F077FA4FF4A5
:101DA00075720A490C4801F0FBFAF868FEF714FA5C
:101DB0007B6814331846FFF76EFB7B68184602F009
:101DC00081F8002318461037BD4680BDDC34030877
:101DD00058DE0208E0DD020808DE0208B0B586B071
:101DE00000AF786039607B68002B05D140F2F33298
:101DF0004149424801F0D4FA3B68002B02D14FF030
:101E0000FF3375E000233B61FEF7E2F903461D4610
:101E10007B68DA693B681A437B68DA61384B1B6878
:101E2000002B04D0364B1B687A68104698477B68B5
:101E300014331846FFF7B8FA0346002B4ED17B68DF
:101E40005B697B6145E07B69143BFB604FF0FF34CD
:101E5000FB6893F8403003F00103002B0AD0FB68C5
:101E6000DA6B7B68DB691A40FB68DB6B9A4217D13F
:101E7000002415E0FB6893F8403003F00203002BC8
:101E80000ED0FB68DA6B7B68DB691340002B07D050
:101E9000FB68DA6B7B68DB691A40FB68DA63002455
:101EA0007B691B687B61002C13D1FB6893F8403081
:101EB00003F00403002B07D07B68DA69FB68DB6B57
:101EC000DB431A407B68DA61F86802F07BFD01238E
:101ED0003B617B6814337A699A42B4D12B46184629
:101EE000FEF77AF93B69012B01D102F02FF90023AB
:101EF00018461837BD46B0BDEC34030858DE02085A
:101F0000D0340020B0B588B000AFF860B9603B6055
:101F10001346FB71FEF75CF9F86102F079FB0346AA
:101F2000002B09D16849694801F0B0F940F25442E8
:101F30006549674801F034FAFEF74AF9B86100F0E4
:101F400023FB0346002B09D05F49624801F09EF94C
:101F500040F254425C495E4801F022FAB869FEF74B
:101F60003BF9F869FEF738F9FB68002B05D140F220
:101F700057425549584801F013FABB68002B02D16B
:101F80004FF0FF339BE04FF0FF3402F041FB7861EC
:101F90007B6900221A63514B1B68002B04D04F4B06
:101FA0001B68FA6810469847FEF712F903461D466B
:101FB000FB7903F00103002B08D0FB68DA69BB68EA
:101FC0001340BA689A4214D1002412E0FB7903F05E
:101FD0000203002B07D0FB68DA69BB681340002BB3
:101FE00007D0002405E040F275423749384801F037
:101FF000D7F9002C15D13B6B002B05D0FB68DA69B3
:10200000BB681A403B6B1A60FB7903F00403002B9A
:1020100046D0FB68DA69BB68DB431A40FB68DA61CB
:102020003EE03B68002B04D17B696FF001021A632C
:1020300036E07B69BA68DA637B69FA7983F8402015
:10204000FB6803F11400FB685B7A1A467969FFF7B5
:10205000CBF93B68002B0BDD7B694C333A46002102
:10206000184602F0ADFF7B694C33184602F060FE63
:102070002B461846FEF7B0F802F068F87B691B6B38
:10208000002B02D07B691B6B19E0FEF7A1F8034619
:102090001D463B6B002B03D07B69DA6B3B6B1A60F0
:1020A0002B461846FEF798F80D4B1B68002B04D002
:1020B0000B4B1B68FA68104698477B691B6B1846E8
:1020C0002037BD46B0BD00BFFC3403080CDE02085B
:1020D00008DE0208E0DD020858DE0208D8340020DD
:1020E000D434002090B587B000AFF860B9607A6052
:1020F0003B60FB68002B05D140F2DC622749284891
:1021000001F04EF9FB68BA680521184601F008FE97
:10211000FB6897F82C205A72FB681846FFF756F9AF
:10212000FB687A68DA613B689BB203339BB223F0A9
:1021300003039AB2FB681A84FB681B8C0433BA6AE7
:10214000B2FBF3F39AB2FB685A84FB6800229A62EE
:10215000FB680022DA62FB6800221A63002411E0A7
:10216000FB68DA69FB681B8C0433214601FB03F32F
:1021700013447B61FB681A6B7B691A60FB687A69A0
:102180001A630134FB685B8C9C42E9DBFB6800222C
:102190009A84002318461C37BD4690BD0C350308B1
:1021A0007CDE020890B587B000AFF860B9607A6055
:1021B000FB68002B05D14FF4F2624249424801F01E
:1021C000EFF8BB68002B05D140F291723D493F48C2
:1021D00001F0E6F87B68002B05D140F29272394994
:1021E0003B4801F0DDF8FB681B8C1A467B68934284
:1021F00002D94FF0FF3361E0364B1B68002B04D04F
:10220000344B1B68FA6810469847FDF7E1FF034618
:102210001C46FB681B6B7B617B69002B06D1234648
:102220001846FDF7D9FF6FF0020347E07B691A6893
:10223000FB681A6323461846FDF7CEFF7B69002230
:102240001A607B6904337A68B968184600F023FA8B
:10225000FDF7BEFF03461C46FB68DB6A002B03D07C
:10226000FB68DB6A7A691A60FB687A69DA62FB6884
:102270009B6A002B02D1FB687A699A62FB689B8C8F
:1022800001339AB2FB689A84FB6814331846FFF74F
:102290008BF80346002B0CD1FB6814331846FFF76C
:1022A000EAF823461846FDF797FF01F04FFF002399
:1022B00004E023461846FDF78FFF002318461C371D
:1022C000BD4690BD183503087CDE02088CDE02088E
:1022D000A0DE0208D034002090B58BB000AFF860CB
:1022E000B9607A603B60FB68002B05D14FF4046253
:1022F0007C497D4801F054F8BB68002B05D140F6BD
:1023000041027849794801F04BF87B68002B05D1F0
:1023100040F642027349764801F042F800237B629E
:1023200002F076F93862734B1B68002B04D0714BB6
:102330001B68FA6810469847FDF74AFF03461C469B
:10234000FB689B8C002B40F085803B68002B40F0A5
:10235000818023461846FDF73FFF6FF00103BCE084
:10236000FDF736FFB86102F053F90346002B09D19F
:102370005C49614800F08AFF40F6580259495F48BD
:1023800001F00EF8FDF724FF786100F0FDF8034638
:10239000002B09D053495A4800F078FF40F6580204
:1023A0005049564800F0FCFF7869FDF715FFB86901
:1023B000FDF712FF3B6A00221A633B68002B0AD12B
:1023C00023461846FDF708FF3B6A6FF001021A63C7
:1023D0006FF0010381E0FB6803F11400FB685B7A96
:1023E0001A46396AFFF700F83B68002B0EDDFEF74E
:1023F000EFFB78623B6A4C333A460021184602F004
:10240000DFFD3B6A4C33184602F092FC2346184627
:10241000FDF7E2FE01F09AFE3B6A1B6B002B02D037
:102420003B6A1B6B59E0FDF7D3FE03461C463B6835
:10243000002B0FDDFEF7CCFB02467B6AD31A7B62D2
:102440003B681A467B6AD31A3B603B68002B01DA73
:1024500000233B60FB689B8C002B81D0FB689B6A50
:10246000FB61FB691A68FB689A62FB68DB6AFA69C0
:102470009A4202D1FB680022DA62FB689B8C013B26
:102480009AB2FB689A8423461846FDF7A5FEFB69BD
:10249000191DFB681B8C1A467B68934228BF1346A4
:1024A0001A46B86800F0F7F8FDF792FE03461C469E
:1024B000FB681A6BFB691A60FB68FA691A632346AA
:1024C0001846FDF789FE0F4B1B68002B04D00D4BFF
:1024D0001B68FA6810469847002318462C37BD46FB
:1024E00090BD00BF243503087CDE02088CDE0208A4
:1024F000A0DE0208D83400200CDE020808DE020844
:10250000E0DD0208D434002080B582B000AFFDF7D2
:102510005FFE78600A4B1B78DBB20133DAB2084BFE
:102520001A70084B1B68002B02D0064B1B6898479B
:102530007868FDF751FE00BF0837BD4680BD00BF7B
:10254000C83400203408002080B582B000AFFDF709
:102550003FFE78600A4B1B78DBB2013BDAB2084BD6
:102560001A70084B1B68002B02D0064B1B6898475B
:102570007868FDF731FE00BF0837BD4680BD00BF5B
:10258000C83400203808002080B400AF034B1B780B
:10259000DBB21846BD465DF8047B7047C8340020A6
:1025A00080B584B000AF7860FFF7EEFF0346002BE4
:1025B00003D00A4A7B6813600CE002F029F8F86047
:1025C000FB68002B03D1054A7B68136002E0FB68BF
:1025D0007A681A631037BD4680BD00BF3C080020F2
:1025E00080B489B000AFF860B9607A60FB68FB61C5
:1025F000BB68DBB27B617B68032B40D9FB6803F0CF
:102600000303002B3BD1FB68BB617B691B027A692A
:1026100013433B613B691B043A6913433B6116E07A
:10262000BB691A1DBA613A691A60BB691A1DBA61A1
:102630003A691A60BB691A1DBA613A691A60BB69C6
:102640001A1DBA613A691A607B68103B7B607B682F
:102650000F2BE5D807E0BB691A1DBA613A691A6009
:102660007B68043B7B607B68032BF4D8BB69FB6110
:1026700005E0FB695A1CFA617A6952B21A707B68EC
:102680005A1E7A60002BF4D1FB6818462437BD46E9
:102690005DF8047B704780B48BB000AFF860B96020
:1026A0007A60FB687B62BB683B627B687B617B69AD
:1026B0000F2B4ED93A6A7B6A134303F00303002BB6
:1026C00047D17B6AFB613B6ABB6122E0BA69131D9B
:1026D000BB61FB69191DF96112681A60BA69131DA3
:1026E000BB61FB69191DF96112681A60BA69131D93
:1026F000BB61FB69191DF96112681A60BA69131D83
:10270000BB61FB69191DF96112681A607B69103B96
:102710007B617B690F2BD9D80AE0BA69131DBB61B5
:10272000FB69191DF96112681A607B69043B7B61C2
:102730007B69032BF1D8FB697B62BB693B6208E0D4
:102740003A6A531C3B627B6A591C796292F90020F9
:102750001A707B695A1E7A61002BF1D1FB6818460A
:102760002C37BD465DF8047B704780B487B000AF5E
:10277000F860B9607A60FB687B61BB683B613A696D
:102780007B699A4228D23A697B6813447A699A42F3
:1027900022D27A697B6813447B613A697B6813446F
:1027A0003B610AE03B69013B3B617B69013B7B612B
:1027B0003B6993F900207B691A707B685A1E7A6026
:1027C000002BEFD10DE03A69531C3B617B69591C2A
:1027D000796192F900201A707B685A1E7A60002B8A
:1027E000F1D1FB6818461C37BD465DF8047B704785
:1027F00080B487B000AFF860B9607A607B68002B66
:1028000023D0FB687B61BB683B613A69531C3B6129
:102810007B69591C796192F900201A7093F9003094
:10282000002B0CD104E07B695A1C7A6100221A70DB
:102830007B68013B7B607B68002BF4D105E07B6803
:10284000013B7B607B68002BDFD1FB6818461C379F
:10285000BD465DF8047B704790B484B000AFF8606B
:10286000B9607A60002418E0FB6893F90030DAB2AE
:10287000BB68591CB96093F90030DBB2D31ADBB2E4
:102880005CB2002C0CD1FB685A1CFA6093F9003042
:10289000002B05D07B68013B7B607B68002BE3D17C
:1028A000234618461037BD4690BC704780B483B0AD
:1028B00000AF7860396005E07B6801337B603B687E
:1028C00001333B607B6893F90030002B07D07B68B5
:1028D00093F900203B6893F900309A42ECD07B6872
:1028E00093F900301A463B6893F90030D31A184622
:1028F0000C37BD465DF8047B704780B485B000AFEF
:1029000078607B68FB6002E0FB680133FB60FB687A
:1029100093F90030002BF7D1FA687B68D31A184678
:102920001437BD465DF8047B704780B584B000AFB6
:1029300078607868FFF7E1FF03460133FB60F868D1
:1029400000F062FEB860BB68002B01D1002305E0F7
:10295000FA687968B868FFF79EFEBB6818461037BA
:10296000BD4680BD80B582B002AF0A4800F08EFC43
:10297000094800F08BFC094B00930023012203213E
:10298000074800F083FC074800F080FC00BFBD460C
:1029900080BD00BFACDE0208B8DE0208FCDE020823
:1029A000DCDE020808DF020880B485B000AF786082
:1029B00039603B680A2B17D17B681B681946134B9B
:1029C000A3FB0123DA0813469B0013445B00CA1AD9
:1029D000FA607B681B681A460C4BA3FB0223DB08DA
:1029E0001A467B681A600AE07B681B6803F00F03D5
:1029F000FB607B681B681B091A467B681A60FB68D2
:102A000018461437BD465DF8047B7047CDCCCCCC5E
:102A100090B482B000AF786000240EE023469B00A3
:102A200023445B0018467B681B68591C7A68116058
:102A300093F900300344A3F130047B681B6893F9D9
:102A40000030303B092BE9D9234618460837BD46EC
:102A500090BC7047B0B58CB000AFF860B9607A60D8
:102A60003B603C6CBB6C03F04003002B01D06C4B13
:102A700000E06C4BBB62BB6C03F01003002B03D077
:102A8000BB6C23F00103BB64BB6C03F00103002BA0
:102A900001D0302300E0202387F82730002387F877
:102AA0002F30BB6C03F00203002B1AD07B68002B85
:102AB00006DA2D2387F82F307B685B427B6010E0BD
:102AC000BB6C03F00403002B03D02B2387F82F30BB
:102AD00007E0BB6C03F00803002B02D0202387F82B
:102AE0002F3000257B68002B1AD12B465D1C07F187
:102AF00030021344302203F81C2C14E03B1D3968CB
:102B00001846FFF751FF03461A46BB6A1A442B4684
:102B10005D1C92F9002007F130010B4403F81C2CD6
:102B20007B68002BEAD17B6C9D4200DD7D647B6C71
:102B3000E41ABB6C03F01103002B15D197F92F3069
:102B4000002B0DD0002C0BDD013C09E0FA68BB68BE
:102B50009A4202D8FB6820221A70FB680133FB609E
:102B600023465C1E002BF1DC97F92F30002B0BD095
:102B7000FA68BB689A4204D8FB6897F82F201A704D
:102B8000013CFB680133FB60BB6C03F01003002BBE
:102B90001AD10AE0FA68BB689A4203D8FB6897F832
:102BA00027201A70FB680133FB6023465C1E002B54
:102BB000F0DC09E0FA68BB689A4202D8FB68302270
:102BC0001A70FB680133FB607B6C5A1E7A649D426D
:102BD000F0DB0DE0FA68BB689A4206D807F13003D3
:102BE0002B4413F91C2CFB681A70FB680133FB6043
:102BF0002B465D1E002BEDDC09E0FA68BB689A42AB
:102C000002D8FB6820221A70FB680133FB60234660
:102C10005C1E002BF1DCFB6818463037BD46B0BDAA
:102C2000303603084436030880B592B004AFF8602C
:102C3000B9607A603B60FB68BB62BB68013BFA68C5
:102C400013447B627A6AFB689A4280F089824FF073
:102C5000FF337B627A6AFB68D31ABB6080E27B68D1
:102C600093F90030252B0CD0BA6A7B6A9A4204D8BB
:102C70007B6893F90020BB6A1A70BB6A0133BB62A0
:102C80006BE20023BB777B6801337B607B6893F941
:102C900000302D2B04D1BB7F43F01003BB77F2E74C
:102CA0007B6893F900302B2B04D1BB7F43F00403E6
:102CB000BB77E8E77B6893F90030202B04D1BB7F1A
:102CC00043F00803BB77DEE77B6893F90030232BE2
:102CD00004D1BB7F43F02003BB77D4E77B6893F933
:102CE0000030302B04D1BB7F43F00103BB77CAE730
:102CF00000BF4FF0FF33BB617B6893F90030303B7E
:102D0000092B05D83B1D1846FFF782FEB86116E077
:102D10007B6893F900302A2B11D17B6801337B60EB
:102D20003B681A1D3A601B68BB61BB69002B06DA61
:102D3000BB695B42BB61BB7F43F01003BB774FF0C5
:102D4000FF337B617B6893F900302E2B20D17B68A9
:102D500001337B607B6893F90030303B092B05D849
:102D60003B1D1846FFF754FE78610CE07B6893F931
:102D700000302A2B07D17B6801337B603B681A1D2A
:102D80003A601B687B617B69002B01DA00237B6161
:102D900000237B777B6893F90030682B04D07B6835
:102DA00093F900306C2B06D17B6893F900307B7768
:102DB0007B6801337B600A23FB777B6893F90030E3
:102DC000253B532B00F2728101A252F823F000BF81
:102DD00079300008AD300008AD300008AD30000893
:102DE000AD300008AD300008AD300008AD3000084F
:102DF000AD300008AD300008AD300008AD3000083F
:102E0000AD300008AD300008AD300008AD3000082E
:102E1000AD300008AD300008AD300008AD3000081E
:102E2000AD300008AD300008AD300008AD3000080E
:102E3000AD300008AD300008AD300008AD300008FE
:102E4000AD300008AD300008AD300008AD300008EE
:102E5000AD300008AD300008AD300008AD300008DE
:102E6000AD300008AD300008AD300008AD300008CE
:102E7000AD300008AD300008AD300008AD300008BE
:102E8000AD300008AD300008AD300008AD300008AE
:102E9000AD300008AD300008AD30000895300008B6
:102EA000AD300008AD300008AD300008AD3000088E
:102EB000AD300008AD300008AD300008AD3000087E
:102EC000AD300008AD300008212F0008A330000805
:102ED000AD300008AD300008AD300008AD3000085E
:102EE000A3300008AD300008AD300008AD30000858
:102EF000AD300008AD3000088F30000841300008C8
:102F0000AD300008AD3000088F2F0008AD3000084C
:102F1000ED300008AD300008AD3000089D300008ED
:102F2000BB7F03F01003002B10D109E0BA6A7B6A63
:102F30009A4202D8BB6A20221A70BB6A0133BB6274
:102F4000BB69013BBB61BB69002BEFDC3B681A1D11
:102F50003A601B68FB74BA6A7B6A9A4202D8BB6A01
:102F6000FA7C1A70BB6A0133BB6209E0BA6A7B6AF9
:102F70009A4202D8BB6A20221A70BB6A0133BB6234
:102F8000BB69013BBB61BB69002BEFDCE5E03B6843
:102F90001A1D3A601B683B623B6A002B01D17C4BD7
:102FA0003B62386AFFF7A9FC0346FB627B69002B92
:102FB00005DDFA6A7B699A4201DD7B69FB62BB7FB2
:102FC00003F01003002B10D109E0BA6A7B6A9A4221
:102FD00002D8BB6A20221A70BB6A0133BB62BB698C
:102FE0005A1EBA61FA6A9A42EFDB00233B6311E092
:102FF000BA6A7B6A9A4204D83B6A93F90020BB6A9A
:103000001A70BB6A0133BB623B6A01333B623B6BA4
:1030100001333B633A6BFB6A9A42E9DB09E0BA6A27
:103020007B6A9A4202D8BB6A20221A70BB6A0133BB
:10303000BB62BB695A1EBA61FA6A9A42EFDB8CE046
:10304000BB69B3F1FF3F05D10823BB61BB7F43F0F0
:103050000103BB773B681A1D3A601B681A46BB7FA9
:1030600002937B690193BB6900931023796AB86A64
:10307000FFF7F0FCB86270E0BA6A7B6A9A4202D845
:10308000BB6A25221A70BB6A0133BB6265E0082364
:10309000FB772CE0BB7F43F04003BB771023FB772B
:1030A00025E0BB7F43F00203BB771FE0BA6A7B6A6F
:1030B0009A4202D8BB6A25221A70BB6A0133BB62EE
:1030C0007B6893F90030002B0CD0BA6A7B6A9A4275
:1030D00004D87B6893F90020BB6A1A70BB6A01337D
:1030E000BB623AE07B68013B7B6036E000BF7B7FE0
:1030F0006C2B09D13B681A1D3A601B687B63BB7F50
:1031000003F00203002B1AE07B7F682B0ED13B6893
:103110001A1D3A601B689BB27B63BB7F03F00203FE
:10312000002B0CD07B6B1BB27B6308E03B681A1D45
:103130003A601B687B63BB7F03F00203002B7A6B52
:10314000F97FBB7F02937B690193BB6900930B46B8
:10315000796AB86AFFF77EFCB8627B6801337B60EE
:103160007B6893F90030002B7FF479ADBA6A7B6AF3
:103170009A4203D8BB6A00221A7002E07B6A0022DE
:103180001A70BA6AFB68D31A18463837BD4680BD34
:1031900034DF02080CB480B584B000AF78603960C9
:1031A00007F11C03BB60BB68BA6939687868FFF730
:1031B0003BFDF860FB6818461037BD46BDE880400F
:1031C00002B0704780B584B000AFF860B9607A6033
:1031D0007B68BA684FF0FF31F868FFF725FD0346BA
:1031E00018461037BD4680BD0EB480B585B000AF1F
:1031F000786007F12003BB60BA68F9697868FFF767
:10320000E1FFF860FB6818461437BD46BDE8804012
:1032100003B0704780B400AF034B1B681846BD462F
:103220005DF8047B704700BF4008002080B584B083
:1032300000AF78600F4B1B68FB607868FDF718FEE5
:10324000B860BB68002B0FD00A4B1B68002B04D062
:10325000084B1B681846FDF7D3FE4321B868FDF7FD
:103260004FFE044ABB681360FB6818461037BD4622
:1032700080BD00BF4008002080B483B000AF7860FC
:1032800000BF0C37BD465DF8047B70470FB480B5B6
:1032900084B000AF07F11C037B607B68BA6940F221
:1032A0007F111948FFF7C0FC0346FB60FB68B3F5CC
:1032B000C07F02D340F27F13FB60144B1B68002BCE
:1032C00003D11148FFF7D8FF17E0104B1B681B8B89
:1032D0007B810E4B1B681A8B0C4B1B6842F0400223
:1032E00092B21A83094B1868FB68074A0021FDF760
:1032F000F9FE064B1B687A891A8300BF1037BD465A
:10330000BDE8804004B07047440800204008002019
:1033100080B483B000AF78607B68002B01D10023BC
:1033200026E07B68DBB2002B05D07B68DBB2134A5A
:10333000D35C01331CE07B6803F47F43002B06D091
:103340007B681B12DBB20D4AD35C093310E07B684B
:1033500003F47F03002B06D07B681B14DBB2074A03
:10336000D35C113304E07B681B0E044AD35C193331
:1033700018460C37BD465DF8047B704730350308AE
:1033800080B483B000AF7860044A7B68136000BFEC
:103390000C37BD465DF8047B704700BFCC3400207D
:1033A00080B586B000AFF860B9607A600023FB7525
:1033B0000C4B1B68002B0BD17B68BA68F9680A4874
:1033C000FFF764FF00BFFB7D5BB2002BFBD005E085
:1033D000044B1B687A68B968F868984700BF1837CB
:1033E000BD4680BDCC3400203CDF020880B584B0EF
:1033F00000AF7860374B1B687A689A4204D2A222E9
:1034000035493648FFF7CCFF354B1B687A689A423E
:1034100004D3A32230493348FFF7C2FF7B685B889F
:10342000002B04D0A4222C492F48FFF7B9FF294BC9
:103430001A687B685B681344FB607A68FB689A4291
:103440001FD0FB685B88002B1BD1254B1B68FA68DB
:103450009A4216D0254B1B68FA689A4202D1234A39
:103460007B681360FB685A687B685A607B68194AFE
:103470001268991A174B1A68FB685B6813440A466E
:103480009A60144B1A687B689B681344BB60BA68E7
:103490007B689A421AD0BB685B88002B16D1134B0D
:1034A0001B687A689A4202D1104ABB6813607B6835
:1034B0005A68BB685A60BB68064A1268991A054B7D
:1034C0001A687B685B6813440A469A6000BF10372D
:1034D000BD4680BDCC0900208436030874DF020895
:1034E000D009002094DF0208C0DF0208D4090020C0
:1034F00080B586B000AF786039607B68033323F015
:1035000003037B613B6823F003033B61FCF760FE30
:10351000F860FFF739F80346002B08D030493148EE
:10352000FFF7B4FED3222E492F48FFF739FFF86882
:10353000FCF752FE3B69182B47D93B69183B7A6967
:103540009A4242D83A697B69D31A183B274A1360DA
:103550007B69274A1360264B1B68BB60BB684FF42E
:10356000F5521A80214B1B6803F10C02BB685A60AC
:10357000BB6800229A60BB6800225A801C4B1A6804
:10358000BB685B6813441B4A13601A4B1B684FF4FB
:10359000F5521A80174B1B6801225A80134B1A6888
:1035A000144B1B680C325A60104B1A68114B1B6885
:1035B0000C329A60002301220F491048FDF78EFF5C
:1035C0000B4B1B680E4A136006E07B683A6819468D
:1035D0000C48FFF75BFE00BF1837BD4680BD00BF3B
:1035E00090360308D0DF0208F8DF0208F80900204F
:1035F000CC090020D009002038E00208D8090020BA
:10360000D4090020FCDF020880B588B000AF7860E4
:10361000FCF7DEFDB861FEF7B7FF0346002B09D0CB
:103620008E498F48FFF732FE4FF48B728B498D48DD
:10363000FFF7B6FEB869FCF7CFFD7B68002B01D120
:10364000002307E17B68033323F003037B60864B91
:103650001B687A689A4201D90023FBE07B680B2B38
:1036600001D80C237B604FF0FF318048FDF7BAFF93
:103670007F4B1B681A467F4B1B68D31AFB61DDE04A
:103680007C4B1A68FB6913447B617B695B88002B68
:1036900040F0CE807B695A68FB69D31A0C3B7A688C
:1036A0009A4200F2C5807B695A68FB69D31AA3F17C
:1036B0000C027B6818339A423DD3FA697B68134445
:1036C0000C333B616B4B1A683B691344FB60FB682E
:1036D0004FF4F5521A80FB6800225A807B695A68C1
:1036E000FB685A60FB68FA699A607B693A695A60BC
:1036F0007B6901225A80FB685A685B4B1B680C335C
:103700009A4206D05B4B1A68FB685B6813443A69BF
:103710009A60594B1A687B6813440C33564A1360FD
:10372000564B1A68544B1B689A421DD2524B1B6869
:10373000524A136018E07B6901225A807B695B68FA
:103740007A694C490968521A9A1A4B4B1B68134400
:10375000494A1360494B1A68474B1B689A4203D287
:10376000454B1B68454A13607B694FF4F5521A803C
:103770003F4B1B687A699A4224D107E03D4B1A6897
:103780003B4B1B685B681344394A1360384B1B681A
:103790005B88002B05D0364B1A68394B1B689A4260
:1037A000ECD1334B1A68364B1B689A420AD0304B27
:1037B0001B685B88002B05D040F2831227493148F3
:1037C000FFF7EEFD2948FDF7AFFF7A697B681344E8
:1037D0000C332B4A1268934205D940F287121F49D5
:1037E0002948FFF7DDFD7B690C3303F00303002B51
:1037F00005D04FF4C47219492448FFF7D1FD7B6905
:1038000003F00303002B05D040F28912134920482E
:10381000FFF7C6FD1F4B1B68002B06D01D4B1B6816
:103820007A690C327968104698477B690C3311E04D
:10383000104B1A68FB6913445B68FB610A4B1A68FA
:103840007B68D31AFA699A42FFF41AAF0748FDF76A
:103850006BFF002318462037BD4680BDA436030801
:10386000D0DF0208F8DF0208F8090020D80900209C
:10387000D4090020CC090020FC090020000A002007
:10388000D009002040E0020868E00208B0E0020829
:10389000FCE00208C409002080B58AB000AF78605F
:1038A0003960FCF795FC7862FEF76EFE0346002B4C
:1038B00009D057495748FFF7E9FC40F2AD12544987
:1038C0005548FFF76DFD786AFCF786FC3B680333CB
:1038D00023F003033B60514B1B683A689A4201D9BD
:1038E000002390E03B68002B04D1786800F0DAF800
:1038F000002388E07B68002B04D13868FFF784FE42
:10390000034680E04FF0FF314548FDF76BFE454B25
:103910001B687A689A4204D3434B1B687A689A42C0
:1039200004D33F48FDF700FF7B686CE07B680C3BED
:103930003B623B6A3B4A12689B1AFB613B6A5A68CE
:10394000FB69D31A0C3BBB61BA693B689A4204D14C
:103950003348FDF7E9FE7B6855E03B681833BA69E8
:103960009A4238D93A68BB69D21A304B1B68134463
:103970002E4A1360FA693B6813440C333B61294BB0
:103980001A683B691344FB60FB684FF4F5521A80D8
:10399000FB6800225A803B6A5A68FB685A60FB68E1
:1039A000FA699A603B6A3A695A60FB685A681B4B2D
:1039B0001B680C339A4206D01A4B1A68FB685B6886
:1039C00013443A699A60F868FFF710FD1448FDF750
:1039D000ABFE7B6817E01248FDF7A6FE3868FFF7DC
:1039E00013FE78617B69002B0CD03A68BB69934267
:1039F00028BF13461A4679687869FEF74CFE786846
:103A000000F050F87B6918462837BD4680BD00BFDE
:103A1000B0360308D0DF0208F8DF0208F8090020FA
:103A2000D8090020CC090020D0090020FC09002082
:103A300080B584B000AF78603960FCF7C9FBF860EE
:103A4000FEF7A2FD0346002B09D013491348FFF7E8
:103A50001DFC40F2122210491148FFF7A1FCF86842
:103A6000FCF7BAFB7B683A6802FB03F31846FFF7E2
:103A7000CBFDB860BB68002B08D07B683A6802FBBE
:103A800003F31A460021B868FEF7AAFDBB68184682
:103A90001037BD4680BD00BFBC360308D0DF02082A
:103AA000F8DF020880B584B000AF7860FCF790FBC7
:103AB000F860FEF769FD0346002B09D04C494D48DC
:103AC000FFF7E4FB40F2292249494B48FFF768FC25
:103AD000F868FCF781FB7B68002B00F082807B6834
:103AE00003F00303002B05D040F22D224049434848
:103AF000FFF756FC424B1B687A689A4204D3414B4D
:103B00001B687A689A4205D340F22F2238493E4812
:103B1000FFF746FC3D4B1B68002B03D03B4B1B685B
:103B200078689847364B1B687A689A425BD3354B66
:103B30001B687A689A4256D27B680C3BBB604FF098
:103B4000FF313348FDF74EFDBB685B88002B04D086
:103B5000BB681B88B3F5F55F0BD02E48FFF796FBCB
:103B6000BB685B881A46BB681B88B9682A48FFF7A0
:103B70008DFBBB685B88002B05D140F24D221C49B0
:103B80002648FFF70DFCBB681B88B3F5F55F05D031
:103B900040F24E2216492248FFF702FCBB68002281
:103BA0005A80BB684FF4F5521A801E4B1B68BA68E6
:103BB0009A4202D21B4ABB681360BB68104A126863
:103BC0009B1A1A46BB685B68D21A174B1B681344D2
:103BD000154A1360B868FFF709FC0D48FDF7A4FD0E
:103BE00002E000BF00E000BF1037BD4680BD00BF4F
:103BF000C8360308D0DF0208F8DF02082CE102080B
:103C0000CC090020D009002060E10208C80900208A
:103C1000D8090020BCE10208D8E1020808E2020845
:103C200014E20208D4090020FC09002080B500AF8E
:103C3000094B1B6819460948FFF728FB084B1B680E
:103C400019460848FFF722FB074B1B68194607482F
:103C5000FFF71CFB00BF80BDF809002030E202081E
:103C6000FC09002044E20208000A002058E2020891
:103C700080B483B000AF786039607B681B683A68B5
:103C80005A607B681A683B681A607B683A681A60F9
:103C90003B687A685A6000BF0C37BD465DF8047B0C
:103CA000704780B483B000AF78607B681B687A6827
:103CB00052685A607B685B687A6812681A607B6831
:103CC0007A685A607B685A687B681A6000BF0C3754
:103CD000BD465DF8047B704780B485B000AF0346F5
:103CE000FB710023FB600FE00C4AFB681B011344CF
:103CF0001B78FA799A4204D1FB681B01074A1344E6
:103D000006E0FB680133FB60FB68092BECDD002358
:103D100018461437BD465DF8047B7047000000204C
:103D200090B587B000AFF8600B467A60FB72FB7A03
:103D30001846FFF7D1FF78617B69002B05D14FF45E
:103D4000837215491548FFF72BFBFB7A63F07F035D
:103D5000DAB2FB681A72FB68082279681846FEF727
:103D600047FD0F4B1B68002B03D00D4B1B68F868F9
:103D70009847FCF72DFA04467B691A1DFB680C3343
:103D800019461046FFF774FF2046FCF725FA00BFDE
:103D90001C37BD4690BD00BFD036030878E202084C
:103DA000040A002090B583B000AF78607B68002BD8
:103DB00005D14FF494720D490D48FFF7F1FA0D4B00
:103DC0001B68002B03D00B4B1B6878689847FCF7E7
:103DD000FFF904467B680C331846FFF762FF204664
:103DE000FCF7FAF900BF0C37BD4690BDE03603087A
:103DF00090E20208080A002090B587B000AF0346A1
:103E00003960FB71FCF7E4F97861FEF7BDFB03460E
:103E1000002B09D026492748FFF738FA40F245120F
:103E200023492548FFF7BCFA7869FCF7D5F9FB79F7
:103E30001846FFF751FF38613B69002B05D140F26E
:103E400051121B491D48FFF7ABFA3B69DB68184666
:103E5000FFF7DAFBF860FB68002B01D1002322E0BA
:103E6000FB68FA791A72FB6800225A72FB68082212
:103E700039681846FEF7BCFC114B1B68002B03D0B9
:103E80000F4B1B68F8689847FCF7A2F904463B699A
:103E90001A1DFB680C3319461046FFF7E9FE204651
:103EA000FCF79AF9FB6818461C37BD4690BD00BF69
:103EB000F4360308A4E20208CCE2020878E2020821
:103EC000040A002090B583B000AF78607B68002BB7
:103ED00005D140F2871214491448FFF761FA7B6854
:103EE0001B7A5BB2002B05DA4FF4C4720E491048FE
:103EF000FFF756FA0F4B1B68002B03D00D4B1B68C6
:103F000078689847FCF764F904467B680C331846D8
:103F1000FFF7C7FE2046FCF75FF97868FFF7C2FDA0
:103F200000BF0C37BD4690BD0837030890E2020879
:103F3000D0E20208080A002080B582B000AF7860A5
:103F40007B68002B05D14FF4D67208490848FFF76B
:103F500027FA7B681B7A5BB2002B01DA012300E0B1
:103F6000002318460837BD4680BD00BF1C37030834
:103F700090E2020880B483B000AF78607B687A6812
:103F80005A607B685A687B681A6000BF0C37BD4670
:103F90005DF8047B704780B483B000AF786039600F
:103FA0007B685B683A681A607B685A683B685A604D
:103FB0007B683A685A603B687A681A6000BF0C37C1
:103FC000BD465DF8047B704780B483B000AF786075
:103FD0007B681B687A6852685A607B685B687A689D
:103FE00012681A607B687A685A607B685A687B68D6
:103FF0001A6000BF0C37BD465DF8047B704780B483
:1040000083B000AF78607B681B687A689A420CBF07
:1040100001230023DBB218460C37BD465DF8047B54
:104020007047000080B584B000AF78607B68002BDB
:1040300004D159221D491E48FFF7B2F97B689B6ADB
:104040001B78232B11D17B68DB691A467B689B6A3E
:104050009A420AD97B68DB691A467B689B6A1946D3
:104060007B68DB6A0B449A420ED97B68194611487B
:10407000FFF70CF902F01CFEFCF7AAF80346FB6000
:10408000FB68002BFCD10DE07B68DB691A467B687E
:104090009B6A20339A4205D87B6819460648FFF789
:1040A000F5F8FFE700BF1037BD4680BD383703087D
:1040B000FCE2020810E302082CE3020898B500AF06
:1040C0000D4B00221A80002406E0E3000B4A134443
:1040D0001846FFF74FFF01341F2CF6DD084B1F2257
:1040E0001A70084B00221A60074B00221A6007481A
:1040F000FFF740FF00BF98BD0C0A0020DC34002011
:10410000DC350020E0350020E4350020E8350020D3
:1041100098B500AF0A4B1B681846FFF7F9F803463D
:10412000013B1C46074B53F83430A3F11404064BF3
:104130001C6004F11C031846FCF797F800BF98BDFB
:10414000E4350020DC340020E035002090B585B057
:1041500000AFFCF73DF8F8602A4BB3F90030002BB4
:1041600049D1294B1B681846FFF7D2F80346013B9B
:104170001C46264B53F83430143BBB60244B1B6861
:10418000BA689A4233D0E2B2224B1A70204B1B68B5
:104190007B601F4ABB6813601F4B1B68002B04D059
:1041A0001D4B1B68B96878689847B868FFF73AFFF5
:1041B0001A4B1B78DBB2002B0CD17B681C331A46E0
:1041C000BB681C3319461046FCF709F8F868FCF781
:1041D00003F813E07B681C331A46BB681C3319468E
:1041E0001046FBF7FCFFF868FBF7F6FF06E0F868FF
:1041F000FBF7F2FF02E0F868FBF7EEFF00BF1437B1
:10420000BD4690BD0C0A0020E4350020DC340020BF
:10421000E0350020DC350020100A0020C8340020E2
:1042200090B583B000AF78607B68002B05D14FF468
:10423000917217491748FFF7B3F8FBF7C9FF044617
:104240007B6893F834305BB223F00F035BB243F02A
:1042500001035BB2DAB27B6883F834207B6893F8A1
:104260003530DB000C4A1A447B681433194610467B
:10427000FFF791FE7B689A6B084B1B681343074A54
:1042800013602046FBF7A8FF00BF0C37BD4690BD6A
:1042900054370308FCE20208DC340020E435002037
:1042A00090B583B000AF78607B68002B05D14FF4E8
:1042B000A87213491348FFF773F8FBF789FF044608
:1042C0007B6814331846FFF77FFE7B6893F8353020
:1042D000DB000D4A13441846FFF791FE0346002BFE
:1042E00007D07B689B6BDA43084B1B681340074A77
:1042F00013602046FBF770FF00BF0C37BD4690BD32
:1043000070370308FCE20208DC340020E4350020AA
:1043100098B500AFFBF75CFF0446074BB3F90030DC
:104320009BB201339BB21AB2034B1A802046FBF7B3
:1043300053FF00BF98BD00BF0C0A002098B500AF26
:10434000FBF746FF04460E4BB3F900309BB2013B2E
:104350009BB21AB20A4B1A80094BB3F90030002BFA
:1043600008DC074B00221A802046FBF735FFFFF7D9
:10437000EDFE02E02046FBF72FFF00BF98BD00BF17
:104380000C0A002080B483B000AF78607B687A6844
:104390005A607B685A687B681A6000BF0C37BD465C
:1043A0005DF8047B704780B483B000AF78603960FB
:1043B0007B681B683A685A607B681A683B681A60B9
:1043C0007B683A681A603B687A685A6000BF0C37AD
:1043D000BD465DF8047B704780B483B000AF786061
:1043E00039607B685B683A681A607B685A683B682A
:1043F0005A607B683A685A603B687A681A6000BF06
:104400000C37BD465DF8047B704780B483B000AFC5
:1044100078607B681B687A6852685A607B685B6862
:104420007A6812681A607B687A685A607B685A6892
:104430007B681A6000BF0C37BD465DF8047B70478F
:1044400090B583B000AF174B1B687B60FBF7C0FED5
:1044500004467868FFF724FF7B68042283F8342041
:104460007B684C33184600F0FFFB7868FFF764FD6B
:104470000346012B07D17B689B6F002B03D1786823
:10448000FFF790FC05E07B68143319460648FFF7F8
:104490008AFF2046FBF7A0FEFFF758FE00BF0C374F
:1044A000BD4690BDE0350020E835002080B586B0DF
:1044B00002AFF860B9607A603B60FB68143318465D
:1044C000FFF760FFFB687A681A62FB683A685A6215
:1044D000FB68BA699A62FB68FA69DA62FB68986AF3
:1044E000FB68DB6A1A462321FEF77AF8FB68186A34
:1044F000FB68596AFB689A6AFB68DB6A043B1A44EA
:10450000234B02F087F80246FB68DA6197F8203007
:104510001F2B04D99E221F491F48FEF741FFFB684D
:1045200097F8202083F83620FB6897F8202083F83E
:104530003520FB6800229A63FB687A6A5A64FB683C
:104540007A6A9A64FB6800221A63FB68002283F887
:104550003420FB6800229A67FB680022DA67FB6858
:1045600003F14C00F9680023019300230093FB68DA
:104570000A4A00F055FB0A4B1B68002B03D0084B7E
:104580001B68F8689847002318461037BD4680BD61
:10459000414400088C37030864E30208414A0008DC
:1045A0001C0A002080B588B004AFF860B9607A605A
:1045B0003B60FB68002B04D1EE2212491248FEF743
:1045C000EFFEBB69002B04D1EF220E490F48FEF726
:1045D000E7FEBA680021F868FFF7A2FB7B6A039345
:1045E00097F820300293FB690193BB6900933B6805
:1045F0007A68B968F868FFF759FF0346184610371C
:10460000BD4680BD9C37030888E302089CE302088E
:1046100080B400AF034B1B681846BD465DF8047BB1
:10462000704700BFE035002080B582B000AF7860F1
:104630007B68002B05D14FF48A7219491948FEF79F
:10464000AFFE7B6893F8343003F00F03002B05D0E6
:1046500040F2151212491448FEF7A2FE7B6893F847
:1046600036207B6883F835207B6893F835301A460E
:10467000012393401A467B689A637B68022283F881
:104680003420786800F09EF9FFF7C2FF0346002B44
:1046900001D0FFF75BFD002318460837BD4680BDFB
:1046A000AC37030888E30208B4E3020880B58AB097
:1046B00004AFF860B9607A603B60F9680020FFF7EA
:1046C0009BFB78617B69002B01D100231BE03868DC
:1046D000FEF79AFF38613B69002B04D17869FFF738
:1046E000F1FB00230FE07B6A039397F820300293DD
:1046F0003B6801933B6900937B68BA68F968786905
:10470000FFF7D4FE7B6918461837BD4680BD000010
:1047100080B584B000AF78607B68002B05D14FF482
:10472000D17214491448FEF73BFE7B6893F834308D
:1047300003F00F03002B02D07868FFF7B1FD7B6810
:104740004C33184600F090FA7B68042283F834203A
:10475000FBF73EFDF8607B68143319460748FFF706
:1047600022FEF868FBF738FD002318461037BD46D7
:1047700080BD00BFC037030888E30208E835002089
:1047800090B583B000AFFBF723FD0446174B1B68C1
:104790007B607B6893F8343003F00F03012B1DD14D
:1047A0007B685A697B689B699A4217D07B6814338F
:1047B0001846FFF72AFE7B6893F83530DB000C4A79
:1047C0001A447B68143319461046FFF705FE20464D
:1047D000FBF702FDFFF7BAFC002303E02046FBF7DE
:1047E000FBFC002318460C37BD4690BDE035002089
:1047F000DC34002090B585B000AF7860FBF7E8FCB2
:104800000446164B1B68FB60FB68002B05D14FF478
:10481000FD7213491348FEF7C3FDF86800F08CF8E9
:10482000FB684C333A1D0021184600F0C9FBFB68B9
:104830004C33184600F07CFA2046FBF7CDFCFFF71E
:1048400085FCFB681B6B13F1020F02D1FB68002291
:104850001A63002318461437BD4690BDE03500208A
:10486000D437030888E3020880B582B000AF7860CF
:104870007868FFF7BFFF034618460837BD4680BD7E
:1048800090B585B000AFF860B9607A60FB68002B26
:1048900005D140F23E2226492648FEF781FDBB683D
:1048A000012B3AD0022B02D0002B31D03AE0FBF79B
:1048B0008FFC0446FB6893F8343003F00F03012BA0
:1048C00014D1F868FFF7ECFC7B681A78FB6883F872
:1048D0003520FB6893F835301A46012393401A4679
:1048E000FB689A63F868FFF79BFC0DE07B681A7819
:1048F000FB6883F83520FB6893F835301A460123AE
:1049000093401A46FB689A632046FBF765FC09E072
:10491000F868FFF789FE034605E0F868FFF7F8FE40
:10492000034600E0002318461437BD4690BD00BF83
:10493000E437030888E3020890B583B000AF7860DD
:104940007B68002B05D14FF423721B491B48FEF7EF
:1049500027FD7B6893F8343003F00F03012B02D05E
:104960004FF0FF3324E0FBF733FC04467B6893F8F9
:1049700034305BB223F00F035BB243F002035BB24F
:10498000DAB27B6883F834207868FFF789FC7B68AB
:104990004C33184600F0DAFA2046FBF71DFC084BB2
:1049A0001B68002B03D0064B1B68786898470023D0
:1049B00018460C37BD4690BDF837030888E3020857
:1049C000140A002090B583B000AF78607B68002B9C
:1049D00005D140F2B62217491748FEF7E1FC7B6883
:1049E00093F8343003F00F03022B02D04FF0FF3363
:1049F0001BE0FBF7EDFB04467B6814331846FFF71A
:104A000004FD7B684C33184600F0A0FA2046FBF703
:104A1000E3FB7868FFF704FC084B1B68002B03D00E
:104A2000064B1B6878689847002318460C37BD462C
:104A300090BD00BF0C38030888E30208180A002064
:104A400080B584B000AF78607B68FB60FB68002BAA
:104A500005D140F2E22211491148FEF7A1FCFB68A2
:104A600093F8343003F00F03022B05D040F2E32219
:104A70000A490C48FEF794FCFB686FF001021A63C8
:104A8000FB6814331846FFF7C0FCF868FFF7C8FB53
:104A9000FFF75CFB00BF1037BD4680BD2038030820
:104AA00088E30208ECE3020880B483B000AF7860CA
:104AB0007B687A685A607B685A687B681A6000BFB6
:104AC0000C37BD465DF8047B704780B483B000AFFF
:104AD000786039607B681B683A685A607B681A683E
:104AE0003B681A607B683A681A603B687A685A606B
:104AF00000BF0C37BD465DF8047B704780B483B0BF
:104B000000AF78607B681B687A6852685A607B687F
:104B10005B687A6812681A607B687A685A607B689A
:104B20005A687B681A6000BF0C37BD465DF8047B8D
:104B3000704780B483B000AF78607B681B687A6888
:104B40009A420CBF01230023DBB218460C37BD4646
:104B50005DF8047B704780B586B000AFF860B9603F
:104B60007A603B60FB6897F820205A72FB685B7A9A
:104B700023F00103DAB2FB685A72FB68BA68DA61A3
:104B8000FB687A681A62FB6800229A62FB683A68DE
:104B90005A6200237B610BE07B690233DB00FA6819
:104BA000134404331846FFF77FFF7B6901337B61B1
:104BB0007B69002BF0DD00BF1837BD4680BD80B596
:104BC00084B000AF78607868FFF7B3FF0346002B2E
:104BD00002D04FF0FF3305E07B681B68143BFB609D
:104BE000FB689B6A18461037BD4680BD80B584B00F
:104BF00000AF78600023FB600BE0FB680233DB0052
:104C00007A68134404331846FFF778FFFB680133D2
:104C1000FB60FB68002BF0DD00BF1037BD4680BD98
:104C200080B586B002AFF860B9607A603B60FB681F
:104C3000002B04D1BC220A490A48FEF7B1FBBA682E
:104C40000921F868FFF76CF83B7F0093BB693A686D
:104C50007968F868FFF77FFF00BF1037BD4680BD59
:104C60003438030840E4020890B583B000AF7860A0
:104C70007B68002B04D1D1220A490B48FEF790FB38
:104C8000FBF7A6FA04467868FFF7B0FF2046FBF76B
:104C9000A3FA7868FFF786F8002318460C37BD465C
:104CA00090BD00BF4438030840E4020880B588B0D6
:104CB00002AFF860B9607A603B60F9680920FFF7DD
:104CC0009BF878617B69002B01D1002309E097F8FC
:104CD000203000933B687A68B9687869FFF73BFF3A
:104CE0007B6918461837BD4680BD000090B583B07B
:104CF00000AF78607B68002B05D14FF487720A49BA
:104D00000A48FEF74DFBFBF763FA04467868FFF7A5
:104D10006DFF2046FBF760FA7868FFF7D3F80023B1
:104D200018460C37BD4690BD5438030840E40208CD
:104D300090B589B000AF78607B68002B05D14FF447
:104D4000987279497948FEF72BFBFBF741FA044644
:104D50007868FFF74BFF7B685B7A23F00103DAB2D8
:104D60007B685A722046FBF737FA714B1B68002BA1
:104D700004D06F4B1B687A68104698477B685B6A63
:104D80006C4A934205D94FF4A07267496A48FEF70E
:104D900007FBFBF71DFF02467B685B6A1A447B68D2
:104DA0009A62FBF715FA04467B685B7A03F004030A
:104DB000002B02D0614BBB6101E0614BBB61BB6961
:104DC000BB600023FB6154E0FB699B0007F12002FC
:104DD000134453F8183C1B683B61FB69DB00143338
:104DE0005B423A691344FB60FB689A6A7B689B6A82
:104DF0009A4208D0FB689A6A7B689B6AD31A4D4A2C
:104E000093421FD900E000BFFB699B0007F120021D
:104E1000134453F8183C1A68FB699B0007F1200102
:104E20000B4443F8182CFB699B0007F12002134444
:104E300053F8182CFB69DB00B9690B445B689A4294
:104E4000C2D100E000BFFB69002B0FD0FB699B00C3
:104E500007F12002134453F8182CFB690133083280
:104E60009B0007F120010B4443F8182CFB69013328
:104E7000FB61FB69002BD6D0324B1B680133314AF2
:104E80001360304B1B687B61BA687B68143319462A
:104E90001046FFF71AFE0223FB611EE07B6903F058
:104EA0000303002B1DD1FB69C3F101039B0007F134
:104EB0002002134453F8180CFB69C3F101030233B9
:104EC000DB007A68134404331946FFF7FEFD7B6963
:104ED0009B087B61FB690133FB61FB69012BDDD919
:104EE00000E000BF7B685B7A43F00103DAB27B68C5
:104EF0005A722046FBF770F97B685B7A03F0040373
:104F0000002B0BD0104B93F8343003F00F03012B20
:104F100004D00D48FFF756FDFFF718F90023184697
:104F20002437BD4690BD00BF6438030840E4020842
:104F3000D4340020FEFFFF7F54E40208280A00203A
:104F4000200A0020B40C0020300A002090B583B065
:104F500000AF78607B68002B05D14FF4D4721549FF
:104F60001548FEF71DFA7B685B7A03F00103002BFE
:104F700002D14FF0FF3319E0104B1B68002B04D017
:104F80000E4B1B687A6810469847FBF721F90446D8
:104F90007868FFF72BFE2046FBF71EF97B685B7AEB
:104FA00023F00103DAB27B685A72002318460C37EB
:104FB000BD4690BD7438030840E40208D034002098
:104FC00080B584B000AFF860B9607A60FB68002BF0
:104FD00005D140F2C91219491948FEF7E1F9BB6839
:104FE000032B25D801A252F823F000BF0750000878
:104FF000FD4F00081150000821500008FB685A6A54
:105000007B681A6014E07B681A68FB685A620FE0DC
:10501000FB685B7A23F00203DAB2FB685A7207E09E
:10502000FB685B7A43F00203DAB2FB685A7200BF96
:10503000002318461037BD4680BD00BF84380308E2
:1050400040E4020890B583B000AFFBF7C1FD786083
:10505000FBF7BEF804463CE0254B1B68143B3B6065
:105060003B689B6A7A68D31A224A934238D8224B0B
:105070001B68002B03D0204B1B68386898473868A2
:10508000FFF7B4FD3B68DB693A68126A104698473F
:10509000FBF79EFD78603B685B7A03F00203002B10
:1050A00010D03B685B7A03F00103002B0AD03B6809
:1050B0005B7A23F00103DAB23B685A723868FFF773
:1050C00037FE06E03B685B7A23F00103DAB23B6807
:1050D0005A720748FFF72DFD0346002BBCD000E0B5
:1050E00000BF2046FBF778F800BF0C37BD4690BDE7
:1050F000200A0020FEFFFF7FB00C002080B584B0A6
:1051000000AFFBF765FDF860FFF702F9294B1B685C
:10511000BB6042E0BB68143B7B607B689B6AFA68BB
:10512000D31A254A93423DD8244B1B68002B03D049
:10513000224B1B6878689847BB681B68BB6078681F
:10514000FFF754FDFFF7FAF87B68DB697A68126AAB
:1051500010469847FBF73CFDF860FFF7D9F87B68ED
:105160005B7A03F00203002B10D07B685B7A03F0BC
:105170000103002B0AD07B685B7A23F00103DAB2CB
:105180007B685A727868FFF7D3FD06E07B685B7A2C
:1051900023F00103DAB27B685A72BB68054A934276
:1051A000B8D100E000BFFFF7C9F800BF1037BD4617
:1051B00080BD00BF280A0020FEFFFF7FB00C00204A
:1051C00080B584B000AF78601148FFF7F8FCF86054
:1051D000FB68B3F1FF3F08D1FFF71AFA0346184600
:1051E000FFF7AAFBFEF7B2FF0FE0FBF7F1FCB86098
:1051F000FA68BB68D31A074A934206D8FA68BB68B4
:10520000D31AFB60F868FFF72FFBFFF777FFDBE7A8
:10521000280A0020FEFFFF7F80B582B000AF002388
:105220007B6009E07B68DB00074A13441846FFF700
:105230003BFC7B6801337B607B68002BF2D000BFB6
:105240000837BD4680BD00BF200A002080B586B06B
:1052500004AF00237B6009E07B68DB00104A134445
:105260001846FFF721FC7B6801337B607B68002BCD
:10527000F2D00A230393042302934FF400730193A3
:10528000084B00930023084A08490948FFF78AF9A8
:105290000748FFF7C9F900BF0837BD4680BD00BF0A
:1052A000280A0020B00A0020C151000878E4020852
:1052B000300A002080B584B000AF78607868FBF7D2
:1052C000DFFB03460133FB60094B1B68F868984716
:1052D000B860BB68002B01D1002305E0FA6879684B
:1052E000B86826F0D6FABB6818461037BD4680BDB0
:1052F000A000002080B483B000AF78607B68002BF2
:1053000006D1104B104A1A60104B114A1A6013E074
:105310007B681B68002B02D07B681B6800E00A4B8F
:10532000084A13607B685B68002B02D07B685B686F
:1053300000E0074B054A13600C37BD465DF8047B5F
:10534000704700BFA000002031B80208A400002070
:1053500041B8020880B582B000AF094B1B68282015
:10536000984778607B68002B04D028220021786859
:1053700026F09AFA7B6818460837BD4680BD00BF04
:10538000A000002080B584B000AF786037E07B6873
:105390001B68FB607B68DB6803F48073002B08D11B
:1053A0007B689B68002B04D07B689B681846FFF7DE
:1053B000E9FF7B68DB6803F48073002B09D17B680D
:1053C0001B69002B05D0114B1B687A6812691046C7
:1053D00098477B68DB6803F40073002B09D17B6876
:1053E0001B6A002B05D0094B1B687A68126A1046AD
:1053F0009847064B1B6878689847FB687B607B681A
:10540000002BC4D100BF1037BD4680BDA4000020D2
:1054100080B483B000AF78607B68013B7B607B68C1
:105420005B107A6813437B607B689B107A68134338
:105430007B607B681B117A6813437B607B681B125F
:105440007A6813437B607B681B147A6813437B6024
:105450007B68013318460C37BD465DF8047B704706
:1054600080B584B000AF786039607B68002B03D0D2
:105470007B681B68002B01D1002346E07B689B689A
:105480003A6813443B607B685B683A689A4205DC83
:105490007B681B687A689268134436E03868FFF7C7
:1054A000B7FFF8601B4B1B68FA6810469847B86056
:1054B000BB68002B0DD1184B1B687A681268104628
:1054C00098477B6800225A607B6800221A6000239C
:1054D0001BE0BB68002B07D07B6819687B685B68A2
:1054E0001A46B86826F0D5F90B4B1B687A68126823
:1054F000104698477B68FA685A607B68BA681A60F9
:105500007B689B681A46BB68134418461037BD4633
:1055100080BD00BFA0000020A400002090B585B091
:1055200000AF78607B68002B03D07B681B68002B82
:1055300001D100230DE07B681B687A6892681344F0
:10554000FB607B689B681C46F868FBF799FA03468A
:10555000234418461437BD4690BD000000000000EB
:105560002DE9F04F8BB000AF7861396100237B6289
:105570007B69D3E90634C7E906344FF000024FF0E7
:105580000003D7E90601FBF7BFF80346002B18D04C
:105590003B69002B05D002213869FFF761FF786273
:1055A00004E06B4B1B680220984778627B6A002BF3
:1055B00000F0B8807B6A67491A460B461B88138047
:1055C000B0E07B695B691846FAF7DEFFD7E906238E
:1055D000FAF78CFE03460C46984624F000494FF03B
:1055E00000025D4B40464946FBF7A2F80346002BFC
:1055F0002CD04FA3D3E90023D7E90601FBF798F895
:105600000346002B22D04FF00002544BD7E906018D
:10561000FBF798F80346002B18D03B69002B05D008
:1056200015213869FFF71CFF786204E0484B1B68BE
:105630001520984778627B6A002B73D07B695B6981
:105640001A464749786A26F071FD6BE03B69002BEA
:1056500005D040213869FFF703FF786204E03C4B36
:105660001B684020984778627B6A002B5AD097EDE0
:10567000060B28F0B9FA51EC100BD7E90623FAF71C
:1056800035FE03460C469A4624F0004B4FF00002CC
:10569000314B50465946FBF74BF80346002B16D0CA
:1056A000BB69BB60FB6923F00043FB6022A3D3E925
:1056B0000023D7E90201FBF731F80346002B06D09F
:1056C000D7E906232749786A26F030FD2AE0BB692E
:1056D0003B60FB6923F000437B6019A3D3E90023FF
:1056E000D7E90001FBF71AF80346002B0DD1BD697D
:1056F000FB6923F0004614A3D3E900232846314672
:10570000FBF72AF80346002B06D0D7E906231649F3
:10571000786A26F00BFD05E0D7E906231349786A7D
:1057200026F004FD7B6A18462C37BD46BDE8F08F95
:105730000000C0FFFFFFDF4144F3C2E4E4E9634C33
:105740008DEDB5A0F7C6B03E0000000065CDCD419F
:10575000A000002080E402080000B03C0000E0C18E
:1057600084E4020888E4020890E4020894E4020851
:1057700080B588B000AF7860396000233B610023BA
:10578000FB607B68FB611CE0FB6993F90030002B38
:1057900004DDFB6993F900301F2B09DDFB6993F9E8
:1057A0000030222B04D0FB6993F900305C2B01D12F
:1057B000012300E00023FA681343FB60FB69013317
:1057C000FB61FB6993F90030002BDDD1FB68002BF6
:1057D00032D1FA697B68D31A3B613B68002B07D052
:1057E0003B69033319463868FFF73AFE786106E0F3
:1057F000834B1B683A6903321046984778617B698E
:10580000002B01D10023F7E07B69BB61BB695A1C07
:10581000BA6122221A707968B86926F0F9FC3B69EE
:10582000BA69134422221A703B690133BA691344DE
:1058300000221A707B69DFE07B68002B1AD13B687D
:10584000002B05D003213868FFF70AFE786104E0D9
:105850006B4B1B680320984778617B69002B01D153
:105860000023C9E07B69674A1188927819809A7091
:105870007B69C1E07B68FB6114E0FB7A19466248F2
:1058800026F0B9FC0346002B03D03B6901333B6192
:1058900005E0FB7A1F2B02D83B6905333B61FB69AE
:1058A0000133FB61FB6993F90030FB72FB7A002B3B
:1058B00005D03B6901333B613B69002BDDD13B687F
:1058C000002B07D03B69033319463868FFF7C8FD42
:1058D000786106E04A4B1B683A69033210469847E4
:1058E00078617B69002B01D1002385E07B69BB6176
:1058F0007B68FB61BB695A1CBA6122221A706BE09B
:10590000FB6993F90030DBB21F2B13D9FB6993F9C4
:105910000030222B0ED0FB6993F900305C2B09D0AC
:10592000FA69531CFB61BB69591CB96192F90020EB
:105930001A7051E0BB695A1CBA615C221A70FB698B
:105940005A1CFA6193F90030FB72FB7A0C2B21D0C0
:105950000C2B06DC092B2FD00A2B21D0082B13D0BF
:1059600030E0222B0AD05C2B02D00D2B1ED029E078
:10597000BB695A1CBA615C221A702DE0BB695A1CC3
:10598000BA6122221A7027E0BB695A1CBA616222EE
:105990001A7021E0BB695A1CBA6166221A701BE0BA
:1059A000BB695A1CBA616E221A7015E0BB695A1C99
:1059B000BA6172221A700FE0BB695A1CBA61742274
:1059C0001A7009E0FB7A1A461049B86926F0AEFB56
:1059D000BB690533BB6100BFFB6993F90030002B45
:1059E0008ED1BB695A1CBA6122221A70BB695A1C3B
:1059F000BA6100221A707B6918462037BD4680BD07
:105A0000A000002098E402089CE40208A4E4020834
:105A100080B582B000AF786039607B681B693968F7
:105A20001846FFF7A5FE034618460837BD4680BD59
:105A300080B582B000AF7860002300220021786832
:105A400000F006F8034618460837BD4680BD000042
:105A500080B586B000AFF860B9607A603B60002323
:105A60007B61FB68002B01D10023ACE03B68002B7D
:105A700061D0FB68DB68DBB2062B00F2A38001A2D9
:105A800052F823F0C15A0008DF5A0008A15A000852
:105A9000FD5A0008095B0008155B0008255B00083B
:105AA00005213868FFF7DCFC78617B69002B00F08A
:105AB00084807B69464A1068186012791A717CE00C
:105AC00006213868FFF7CCFC78617B69002B76D023
:105AD0007B69404A1068186092889A806FE00521BF
