:020000040800F2
:10000000000600100DCD0108654A0108B70200087E
:10001000734A0108794A01087F4A0108000000007C
:10002000000000000000000000000000854A0108F8
:100030005DCD010800000000FF010008A9FF0008D5
:100040005DCD01085DCD01085DCD01085DCD0108E4
:100050005DCD01085DCD01086B2F0108812F0108DE
:10006000972F0108AD2F0108C32F01085DCD0108AE
:100070005DCD01085DCD01085DCD01085DCD0108B4
:100080005DCD01085DCD01085DCD01085DCD0108A4
:100090005DCD01085DCD01085DCD0108D92F0108B6
:1000A0005DCD01085DCD01085DCD01085DCD010884
:1000B000AD1A0108851A0108711A01085DCD010801
:1000C0005DCD01085DCD01085DCD01085DCD010864
:1000D0005DCD0108DD4301082D4401087D44010880
:1000E0000B3001085DCD01085DCD01085DCD010833
:1000F0005DCD01085DCD0108991A01085DCD0108AB
:100100005DCD01085DCD01085DCD01085DCD010823
:10011000CD4401085DCD01081D2701085DCD010812
:100120005DCD01085DCD01085DCD01085DCD010803
:100130005DCD01085DCD01085DCD01085DCD0108F3
:100140005DCD01085DCD01085DCD010805490108BF
:100150005DCD01085DCD01085DCD01085DCD0108D3
:100160005DCD01085DCD01085DCD01085DCD0108C3
:100170005DCD01085DCD01085DCD010800000000E6
:080180005DCD01085DCD010811
:1001900010B5054C237833B9044B13B10448AFF3C1
:1001A00000800123237010BDF00400200000000037
:1001B00030EC010808B5034B1BB103490348AFF30A
:1001C000008008BD00000000F404002030EC0108AD
:1001D000EFF3108072B6704780F3108870473B4A87
:1001E0001368012B04D04FF001031360384A1060EC
:1001F000384A116038484FF0805101607047EFF382
:10020000108272B63148016851B34FF000010160AD
:100210002F48016891B1EFF309811EF0100F08BF5C
:1002200021ED108B21E9F00F4FF000041EF0100FAC
:1002300008BF012441F8044D0068016025490968A0
:10024000096808C9B1E8F00F002B18BFB1EC108B9A
:1002500081F309884EF0100E002B18BF2EF0100EFF
:1002600082F310884EF0040E70471A490860EFF3CD
:10027000148222F0040282F3148815494FF0000022
:10028000086012494FF00100086014484FF47F01E4
:10029000D0F8002041EA020101600F484FF0805180
:1002A00001600F480068006800BF80F3088861B6ED
:1002B00062B6704700BFEFF3098000B507F02EFA71
:1002C0005DF804EB4EF0040E70470000682100203A
:1002D000642100206021002004ED00E020ED00E01A
:1002E00008ED00E081F0004102E000BF83F0004330
:1002F00030B54FEA41044FEA430594EA050F08BFC1
:1003000090EA020F1FBF54EA000C55EA020C7FEA84
:10031000645C7FEA655C00F0E2804FEA5454D4EB01
:100320005555B8BF6D420CDD2C4480EA020281EACB
:10033000030382EA000083EA010180EA020281EA03
:100340000303362D88BF30BD11F0004F4FEA013155
:100350004FF4801C4CEA113102D0404261EB410164
:1003600013F0004F4FEA03334CEA133302D05242EA
:1003700063EB430394EA050F00F0A780A4F10104A6
:10038000D5F1200E0DDB02FA0EFC22FA05F28018E0
:1003900041F1000103FA0EF2801843FA05F35941C6
:1003A0000EE0A5F120050EF1200E012A03FA0EFC45
:1003B00028BF4CF0020C43FA05F3C01851EBE3716F
:1003C00001F0004507D54FF0000EDCF1000C7EEB8C
:1003D00000006EEB0101B1F5801F1BD3B1F5001FCA
:1003E0000CD349085FEA30004FEA3C0C04F10104E9
:1003F0004FEA445212F5800F80F09A80BCF1004F12
:1004000008BF5FEA500C50F1000041EB045141EA93
:10041000050130BD5FEA4C0C404141EB010111F494
:10042000801FA4F10104E9D191F0000F04BF01463F
:100430000020B1FA81F308BF2033A3F10B03B3F11D
:1004400020020CDA0C3208DD02F1140CC2F10C02AD
:1004500001FA0CF021FA02F10CE002F11402D8BF0B
:10046000C2F1200C01FA02F120FA0CFCDCBF41EAD7
:100470000C019040E41AA2BF01EB0451294330BDA6
:100480006FEA04041F3C1CDA0C340EDC04F1140483
:10049000C4F1200220FA04F001FA02F340EA03005A
:1004A00021FA04F345EA030130BDC4F10C04C4F1A0
:1004B000200220FA02F001FA04F340EA0300294680
:1004C00030BD21FA04F0294630BD94F0000F83F4CA
:1004D000801306BF81F480110134013D4EE77FEAAD
:1004E000645C18BF7FEA655C29D094EA050F08BFF9
:1004F00090EA020F05D054EA000C04BF19461046DA
:1005000030BD91EA030F1EBF0021002030BD5FEA1D
:10051000545C05D14000494128BF41F0004130BD45
:1005200014F580043CBF01F5801130BD01F0004599
:1005300045F0FE4141F470014FF0000030BD7FEA0C
:10054000645C1ABF194610467FEA655C1CBF0B4607
:10055000024650EA013406BF52EA033591EA030F1E
:1005600041F4002130BD00BF90F0000F04BF002116
:10057000704730B54FF4806404F132044FF0000549
:100580004FF0000150E700BF90F0000F04BF0021C2
:10059000704730B54FF4806404F1320410F0004528
:1005A00048BF40424FF000013EE700BF42004FEA23
:1005B000E2014FEA31014FEA02701FBF12F07F43A0
:1005C00093F07F4F81F06051704732F07F4208BF57
:1005D000704793F07F4F04BF41F40021704730B55E
:1005E0004FF4607401F0004521F000411CE700BFAA
:1005F00050EA010208BF704730B54FF000050AE02D
:1006000050EA010208BF704730B511F0004502D52D
:10061000404261EB41014FF4806404F132045FEA2F
:10062000915C3FF4D8AE4FF003025FEADC0C18BFD8
:1006300003325FEADC0C18BF033202EBDC02C2F1CA
:10064000200300FA03FC20FA02F001FA03FE40EA5C
:100650000E0021FA02F11444BDE600BF70B54FF060
:10066000FF0C4CF4E06C1CEA11541DBF1CEA13553E
:1006700094EA0C0F95EA0C0F00F0DEF82C4481EAA6
:10068000030621EA4C5123EA4C5350EA013518BFC6
:1006900052EA033541F4801143F4801338D0A0FBB3
:1006A00002CE4FF00005E1FB02E506F00042E0FB60
:1006B00003E54FF00006E1FB03569CF0000F18BF66
:1006C0004EF0010EA4F1FF04B6F5007F64F540740E
:1006D00004D25FEA4E0E6D4146EB060642EAC621A1
:1006E00041EA55514FEAC52040EA5E504FEACE2E0E
:1006F000B4F1FD0C88BFBCF5E06F1ED8BEF1004F11
:1007000008BF5FEA500E50F1000041EB045170BD8C
:1007100006F0004646EA010140EA020081EA0301D0
:10072000B4EB5C04C2BFD4EB0C0541EA045170BDCC
:1007300041F480114FF0000E013C00F3AB8014F146
:10074000360FDEBF002001F0004170BDC4F100048F
:10075000203C35DA0C341BDC04F11404C4F1200510
:1007600000FA05F320FA04F001FA05F240EA02006B
:1007700001F0004221F0004110EBD37021FA04F6A1
:1007800042EB06015EEA430E08BF20EAD37070BD5B
:10079000C4F10C04C4F1200500FA04F320FA05F0BA
:1007A00001FA04F240EA020001F0004110EBD370BC
:1007B00041F100015EEA430E08BF20EAD37070BD2C
:1007C000C4F1200500FA05F24EEA020E20FA04F305
:1007D00001FA05F243EA020321FA04F001F00041B4
:1007E00021FA04F220EA020000EBD3705EEA430E25
:1007F00008BF20EAD37070BD94F0000F0FD101F054
:100800000046400041EB010111F4801F08BF013C8C
:10081000F7D041EA060195F0000F18BF704703F0CA
:100820000046520043EB030313F4801F08BF013D51
:10083000F7D043EA0603704794EA0C0F0CEA13550D
:1008400018BF95EA0C0F0CD050EA410618BF52EAC7
:100850004306D1D181EA030101F000414FF00000CD
:1008600070BD50EA410606BF1046194652EA4306DB
:1008700019D094EA0C0F02D150EA013613D195EA4F
:100880000C0F05D152EA03361CBF104619460AD197
:1008900081EA030101F0004141F0FE4141F47001A1
:1008A0004FF0000070BD41F0FE4141F4780170BD91
:1008B00070B54FF0FF0C4CF4E06C1CEA11541DBFF6
:1008C0001CEA135594EA0C0F95EA0C0F00F0A7F8F8
:1008D000A4EB050481EA030E52EA03354FEA013125
:1008E00000F088804FEA03334FF0805545EA131338
:1008F00043EA12634FEA022245EA111545EA106500
:100900004FEA00260EF000419D4208BF964244F196
:10091000FD0404F5407402D25B084FEA3202B61AB5
:1009200065EB03055B084FEA32024FF480104FF489
:10093000002CB6EB020E75EB030E22BFB61A7546FD
:1009400040EA0C005B084FEA3202B6EB020E75EB90
:10095000030E22BFB61A754640EA5C005B084FEAF8
:100960003202B6EB020E75EB030E22BFB61A7546C5
:1009700040EA9C005B084FEA3202B6EB020E75EBD0
:10098000030E22BFB61A754640EADC0055EA060E91
:1009900018D04FEA051545EA16754FEA06164FEAD4
:1009A000C30343EA52734FEAC2025FEA1C1CC0D180
:1009B00011F4801F0BD141EA00014FF000004FF00D
:1009C000004CB6E711F4801F04BF01430020B4F1CE
:1009D000FD0C88BFBCF5E06F3FF6AFAEB5EB030C86
:1009E00004BFB6EB020C5FEA500C50F1000041EB83
:1009F000045170BD0EF0004E4EEA113114EB5C0450
:100A0000C2BFD4EB0C0541EA045170BD41F4801122
:100A10004FF0000E013C90E645EA060E8DE60CEA2A
:100A2000135594EA0C0F08BF95EA0C0F3FF43BAF47
:100A300094EA0C0F0AD150EA01347FF434AF95EAFE
:100A40000C0F7FF425AF104619462CE795EA0C0FE2
:100A500006D152EA03353FF4FDAE1046194622E7AF
:100A600050EA410618BF52EA43067FF4C5AE50EA89
:100A700041047FF40DAF52EA43057FF4EBAE12E779
:100A80004FF0FF3C06E000BF4FF0010C02E000BF5A
:100A90004FF0010C4DF804CD4FEA410C7FEA6C5C3D
:100AA0004FEA430C18BF7FEA6C5C1BD001B050EAE0
:100AB000410C0CBF52EA430C91EA030F02BF90EACB
:100AC000020F0020704710F1000F91EA030F58BF8A
:100AD000994208BF90422CBFD8176FEAE37040F0EC
:100AE000010070474FEA410C7FEA6C5C02D150EA8A
:100AF000013C07D14FEA430C7FEA6C5CD6D152EA45
:100B0000033CD3D05DF8040B704700BF8446104609
:100B100062468C461946634600E000BF01B5FFF708
:100B2000B7FF002848BF10F1000F01BD4DF808EDD8
:100B3000FFF7F4FF0CBF012000205DF808FB00BFA9
:100B40004DF808EDFFF7EAFF34BF012000205DF803
:100B500008FB00BF4DF808EDFFF7E0FF94BF012050
:100B600000205DF808FB00BF4DF808EDFFF7CEFF51
:100B700094BF012000205DF808FB00BF4DF808ED90
:100B8000FFF7C4FF34BF012000205DF808FB00BF61
:100B90004FEA410212F5001215D211D56FF47873A5
:100BA000B3EB625212D94FEAC12343F0004343EA48
:100BB000505311F0004F23FA02F018BF4042704723
:100BC0004FF00000704750EA013005D111F00040AD
:100BD00008BF6FF0004070474FF00000704700BF43
:100BE00053B94AB9002908BF00281CBF4FF0FF3194
:100BF0004FF0FF3000F072B9ADF1080C6DE904CE92
:100C000000F006F8DDF804E0DDE9022304B07047E7
:100C10002DE9F047089E04468846002B4BD18A42B6
:100C2000154667D9B2FA82F24AB1C2F1200701FA39
:100C300002F320FA07F7954047EA030894404FEA89
:100C4000154E230CB8FBFEF71FFA85FC0EFB178828
:100C500043EA084307FB0CF1994209D9EB1807F165
:100C6000FF3080F01B81994240F21881023F2B44F3
:100C70005B1AA4B2B3FBFEF00EFB103344EA03444C
:100C800000FB0CFCA44509D92C1900F1FF3380F0BE
:100C90000781A44540F2048102382C4440EA074011
:100CA000A4EB0C0400271EB1D4400023C6E9004386
:100CB0003946BDE8F0878B4209D9002E00F0EB8061
:100CC0000027C6E9000138463946BDE8F087B3FA87
:100CD00083F7002F47D18B4202D3824200F2FA8081
:100CE000841A61EB030301209846002EE0D0C6E988
:100CF0000048DDE702B9FFDEB2FA82F2002A40F0D6
:100D00008F80491B4FEA154E1FFA85F80127B1FB6A
:100D1000FEFC230C0EFB1C1143EA014308FB0CF103
:100D2000994207D9EB180CF1FF3002D2994200F238
:100D3000CD808446591AA3B2B1FBFEF00EFB10140D
:100D400043EA044408FB00F8A04507D92C1900F138
:100D5000FF3302D2A04500F2B6801846A4EB080487
:100D600040EA0C409FE7C7F1200CBB4022FA0CFE82
:100D70004EEA030E01FA07F420FA0CF521FA0CF3FF
:100D80004FEA1E482543B3FBF8F92C0C08FB193336
:100D90001FFA8EFA44EA034309FB0AF49C4202FA62
:100DA00007F200FA07F10BD91EEB030309F1FF303C
:100DB00080F087809C4240F28480A9F1020973444C
:100DC0001B1BADB2B3FBF8F008FB103345EA03443C
:100DD00000FB0AFAA24508D91EEB040400F1FF3318
:100DE0006BD2A24569D90238744440EA0940A0FB9D
:100DF0000289A4EB0A044C45C2464B4654D351D059
:100E0000002E69D0B1EB0A0564EB030404FA0CFC74
:100E1000FD40FC404CEA0505C6E90054002747E7C1
:100E2000C2F1200320FA03F7954001FA02F021FAFB
:100E300003F34FEA154E3843010CB3FBFEF71FFADC
:100E400085F80EFB173341EA034107FB08F38B4299
:100E500004FA02F407D9691807F1FF3C2FD28B423C
:100E60002DD9023F2944CB1A81B2B3FBFEF00EFB11
:100E7000103341EA034100FB08F38B4207D969189C
:100E800000F1FF3C17D28B4215D902382944C91A08
:100E900040EA07473BE73746304609E70746E7E6BB
:100EA0001846FBE64145ABD2B8EB020A69EB0E02ED
:100EB00001381346A4E76046E9E7184695E7674618
:100EC000D1E781467CE702382C4447E7ACF1020CBD
:100ED0002B442FE7384608E73746E9E6704700BF5E
:100EE00010F8012B11F8013B012A28BF9A42F7D0D4
:100EF000D01A7047034613F8012B002AFBD1181AA9
:100F000001387047000000000000000000000000F1
:100F100001F0FF01102A2BDB10F0070F08D010F8AA
:100F2000013B013A8B422DD010F0070F42B3F6D1AE
:100F3000F0B441EA012141EA014122F007047FF0C7
:100F400000070023F0E80256083C85EA010586EA1E
:100F5000010685FA47F5A3FA87F586FA47F6A5FA5A
:100F600087F68EB9EED1F0BC01F0FF0102F0070266
:100F700032B110F8013B013A83EA010313B1F8D111
:100F80000020704701387047002D06BF35460338F2
:100F9000073815F0010F07D1013015F4807F02BF2B
:100FA000013015F4C03F0130F0BC0138704700BF7C
:100FB0004FEA410C7FEA6C5C02D150EA013C0AD155
:100FC0004FEA430C7FEA6C5C02D152EA033C02D147
:100FD0004FF0000070474FF00100704780B400AF41
:100FE000034B1B681846BD465DF8047B704700BF85
:100FF0000C05002080B582B000AF0E4B1B6801339A
:101000000C4A136003F076FC78607B689B6C5A1E78
:101010007B689A647B689B6C002B05D17B685A6C5B
:101020007B689A6403F01EFD04F07EF900BF083768
:10103000BD4680BD0C05002080B485B000AF78604F
:101040007B68002B03DA4FF0FF33FB600DE07B6819
:101050004FF47A7202FB03F303F2E733064A82FB92
:1010600003129211DB17D31AFB60FB681846143782
:10107000BD465DF8047B7047D34D621080B400AF6D
:1010800000231846BD465DF8047B704780B400AF6E
:1010900000231846BD465DF8047B704780B400AF5E
:1010A00000231846BD465DF8047B704780B400AF4E
:1010B00000231846BD465DF8047B704780B582B0BA
:1010C00000AF084B7B6005E07B681B6898477B6836
:1010D00004337B607B68044A9342F5D300BF083732
:1010E000BD4680BDF04E0208044F020880B582B0B4
:1010F00000AF084B7B6005E07B681B6898477B6806
:1011000004337B607B68044A9342F5D300BF083701
:10111000BD4680BD044F02084C4F020880B500AFA9
:10112000FFF756F800F036F80023184680BD80B56A
:1011300082B000AF7860FFF7D9FF18F0D3F800BF96
:101140000837BD4680BD000080B584B002AF1423CF
:1011500001930A2300934FF48063002209490A484F
:1011600003F016FC78607B68002B04D1D12207497C
:10117000074802F087FA786803F0C8FB00BF083719
:10118000BD4680BD2F11000848EC0108F429020873
:1011900050EC010880B500AFFFF71AF80EF05EFFC3
:1011A00001F07AFD04F0AAF903F0FAF8FFF7CCFF9A
:1011B00004F0BEF900F09CFA03F01CF90023184675
:1011C00080BD80B584B000AFF860B9601346FB8085
:1011D000FB68002B02D14FF0FF3318E0B86800F035
:1011E00035F80346002B02D04FF0FF330FE0FB68C9
:1011F000BA680821184602F005FFFB68FA88DA820F
:10120000FB6800229A76FB6800221A8300231846A6
:101210001037BD4680BD000080B582B000AF786059
:101220007B68002B04D14D220649074802F02AFAB8
:101230007B68184602F028FF002318460837BD4691
:1012400080BD00BF082A020860EC010880B586B0A6
:1012500000AF786003F04EFB0346002B01D003F093
:10126000C9F9082002F0AAFE38613B69002B04D1BD
:1012700075221849184802F005FA3B695B687B61E2
:1012800017E07B690C3BFB60FB6808227968184615
:1012900001F098FC0346002B08D103F02BFB03461A
:1012A000002B01D003F0BCF9FB680FE07B691B68E1
:1012B0007B613B6904337A699A42E2D103F01AFBFD
:1012C0000346002B01D003F0ABF900231846183772
:1012D000BD4680BD202A020870EC010880B584B0AC
:1012E00000AF78600B467B800023FB607B68002B9F
:1012F00004D1E8223549364802F0C4F97B68DB8A1C
:1013000003F01003002B1AD17B685B6A002B0FD00F
:101310007B685B6A78689847F860FB68002B07D0A9
:101320007B68FA6819462B4802F032F9FB6848E0FE
:101330007B68DB8A43F010039AB27B68DA827B68B1
:10134000DB8A03F00803002B08D07B681B8B03F0BB
:101350000803002B02D06FF0060332E07B689B6A23
:10136000002B07D07B689B6A7A881146786898477B
:10137000F86007E07B8823F0F0031B051B0D9AB291
:101380007B681A83FB68002B03D0FB6813F1060F00
:1013900016D17B681B8B43F008039AB27B681A83D3
:1013A0007B689B7E0133DAB27B689A767B689B7E92
:1013B000002B05D14FF48B720449074802F062F903
:1013C000FB6818461037BD4680BD00BF302A0208B2
:1013D00060EC010888EC0108C0EC010880B584B01D
:1013E00000AF78600023FB607B68002B05D14FF4D1
:1013F00094721749174802F045F97B689B7E002BD1
:1014000002D14FF0FF331FE07B689B7E013BDAB2D5
:101410007B689A767B689B7E002B01D0002313E0CB
:101420007B68DB6A002B04D07B68DB6A78689847AE
:10143000F860FB68002B03D0FB6813F1060F02D1A4
:101440007B6800221A83FB6818461037BD4680BDB2
:10145000402A020860EC010890B585B000AFF86042
:10146000B9607A603B60FB68002B05D140F25112F5
:101470001149124802F006F9FB689B7E002B05D14A
:101480004FF0FF3001F042FA002311E0FB681B6BC4
:10149000002B08D0FB681C6B3B687A68B968F86859
:1014A000A047034604E06FF0050001F02FFA002387
:1014B00018461437BD4690BD502A020860EC01085A
:1014C00090B585B000AFF860B9607A603B60FB68AA
:1014D000002B05D140F277121149124802F0D2F8E0
:1014E000FB689B7E002B05D14FF0FF3001F00EFA18
:1014F000002311E0FB685B6B002B08D0FB685C6B82
:101500003B687A68B968F868A047034604E06FF062
:10151000050001F0FBF9002318461437BD4690BDC5
:10152000602A020860EC010880B584B000AFF86062
:10153000B9607A60FB68002B05D140F297120B4925
:101540000B4802F09FF8FB689B6B002B07D0FB68F1
:101550009B6B7A68B968F8689847034601E06FF0BA
:10156000050318461037BD4680BD00BF702A02082B
:1015700060EC010880B582B000AF786039607B68AC
:10158000002B05D14FF4D8720549064802F07AF8CD
:101590007B683A68DA61002318460837BD4680BD8B
:1015A000842A020860EC010880B483B000AF786040
:1015B0007B681B687A6852685A607B685B687A68E7
:1015C00012681A607B687A685A607B685A687B6820
:1015D0001A6000BF0C37BD465DF8047B7047000001
:1015E00080B483B000AF084B7B607B681B687A686F
:1015F0009A4214BF01230023DBB218460C37BD46C4
:101600005DF8047B704700BF5821002080B584B08E
:1016100000AF4CE0FEF7DCFDF86001F06BF903462B
:10162000002B08D02649274801F0B2FF6622244942
:10163000254802F027F8F868FEF7CEFDFEF7C8FD52
:10164000B860FFF7CDFF0346002B21D01F4B1B686E
:10165000143B7B607B6814331846FFF7A5FF02F04C
:10166000C9FF7B689B6F002B03D07B689B6F7868FA
:101670009847786802F0D2FD0346012B05D102F0AD
:10168000CFFFB868FEF7A8FD16E002F0C9FF03E03F
:10169000B868FEF7A1FD0FE0B868FEF79DFD7B6816
:1016A0009B6A184602F070FB786802F07DFDFFF738
:1016B00097FF0346002BADD11037BD4680BD00BF5C
:1016C000A02A0208D4EC0108FCEC010858210020F3
:1016D00080B582B000AF7860044B1B68002B02D04D
:1016E000024B1B689847FFF791FFF5E79006002033
:1016F00080B584B004AF202303931F2302934FF4DB
:1017000080730193064B00930023064A064907485D
:1017100003F0BAF8054803F0F9F800BFBD4680BDF4
:1017200090050020D116000800ED010810050020EA
:1017300080B483B000AF78607B687A685A607B6859
:101740005A687B681A6000BF0C37BD465DF8047BA1
:10175000704780B483B000AF786039607B685B68A5
:101760003A681A607B685A683B685A607B683A68D6
:101770005A603B687A681A6000BF0C37BD465DF856
:10178000047B704780B483B000AF78607B681B68CF
:101790007A689A420CBF01230023DBB218460C374B
:1017A000BD465DF8047B704780B582B000AF7860BD
:1017B0007B6814331846FFF7BBFF00231846083731
:1017C000BD4680BD80B586B000AFF860B9601346F5
:1017D000FB71B86803F022FAFB79002B02D0012BD1
:1017E00007D031E0BB6814331946F868FFF7B1FF42
:1017F0002AE0FB681B687B6117E07B69143B3B6157
:10180000BB6893F835203B6993F835309A4209D28A
:101810003B6903F11402BB68143319461046FFF705
:1018200098FF06E07B691B687B617A69FB689A42D6
:10183000E3D17A69FB689A4205D1BB681433194633
:10184000F868FFF786FF00BF002318461837BD462B
:1018500080BD80B584B000AF78607B681B68143BA6
:10186000FB60F86803F020FA002318461037BD46E5
:1018700080BD90B585B000AF786012E0FEF7A8FC9F
:1018800003461C467B681B68143BFB60FB684FF0FB
:10189000FF321A63F86803F007FA23461846FEF78A
:1018A0009BFC7868FFF76EFF0346002BE6D0002311
:1018B00018461437BD4690BD80B584B000AFF860BF
:1018C000B9607A60FB70FB68002B04D1D8220D4907
:1018D0000D4801F0D7FEFB68BA680121184602F0F6
:1018E00091FBFB681846FFF75FFF7B689AB2FB68C5
:1018F0009A83FB68FA785A72002318461037BD465F
:1019000080BD00BFB82A020808ED010880B582B08A
:1019100000AF78607B68002B04D1F52208490948A4
:1019200001F0B0FE7B6814331846FFF7A2FF7B6816
:10193000184602F0A9FB002318460837BD4680BDB3
:10194000C42A020808ED010880B586B000AFF8602F
:10195000B9601346FB71FEF73BFC786100F0CAFFEB
:101960000346002B09D01349134801F011FE40F241
:1019700011121049114801F085FE7869FEF72CFC20
:10198000F968012002F0AAFB38613B69002B01D104
:101990003B690BE03B691846FFF706FFBB689AB24C
:1019A0003B699A833B69FA795A723B691846183742
:1019B000BD4680BDD42A020818ED010840ED01089B
:1019C00090B587B000AF786039607B68002B05D197
:1019D00040F24D124449454801F054FE444B1B6807
:1019E000002B04D0424B1B687A6810469847FEF7DC
:1019F000EFFB04467B689B8B002B09D07B689B8B9D
:101A0000013B9AB27B689A832046FEF7E5FB5CE0D7
:101A10003B68002B05D12046FEF7DEFB6FF001038B
:101A20005DE0FEF7D5FB786102F064FF0346002B12
:101A300009D12D492F4801F0ABFD40F26D122A4922
:101A40002D4801F01FFEFEF7C3FB386100F052FF86
:101A50000346002B09D02449284801F099FD40F2A3
:101A60006D122149244801F00DFE3869FEF7B4FBE0
:101A70007869FEF7B1FB02F03DFFF860FB680022D9
:101A80001A637B6803F114007B685B7A1A46F96875
:101A9000FFF798FE3B68002B0BDDFB684C333A46A2
:101AA0000021184603F0FEFBFB684C33184603F098
:101AB000B1FA2046FEF790FB02F0BAFCFB681B6B04
:101AC000002B02D0FB681B6B09E00D4B1B68002B41
:101AD00004D00B4B1B687A681046984700231846C1
:101AE0001C37BD4690BD00BFE42A020808ED01087E
:101AF0004820002044ED010840ED010818ED0108E0
:101B000044200020B0B582B000AF7860164B1B684F
:101B1000002B04D0144B1B687A68104698470024A9
:101B2000FEF756FB05467B6814331846FFF72AFE7E
:101B30000346002B06D17B6814331846FFF789FE55
:101B4000012405E07B689B8B01339AB27B689A8302
:101B50002846FEF741FB012C01D102F069FC00236D
:101B600018460837BD46B0BD4020002080B586B07D
:101B700000AFF860B9607A60FB68002B05D14FF4C4
:101B8000F2721249124801F07DFDBB68012B16D19B
:101B90007B687B61FEF71CFB03463B61FB681433EB
:101BA0001846FFF766FE7B699AB2FB689A833B6929
:101BB0001846FEF711FB02F03BFC002301E04FF05A
:101BC000FF3318461837BD4680BD00BFF02A020813
:101BD00008ED010880B584B000AFF860B960134625
:101BE000FB71FB68002B05D140F20F221049114810
:101BF00001F048FDFB68BA680221184602F002FABB
:101C0000FB681846FFF7D0FDFB6801229A83FB684A
:101C100000221A62FB68FF229A77FB680022DA77BB
:101C2000FB68FA795A72002318461037BD4680BD0A
:101C3000002B02087CED010880B582B000AF78600F
:101C40007B68002B05D140F22E220949094801F09A
:101C500019FD7B6814331846FFF70BFE7B681846A6
:101C600002F012FA002318460837BD4680BD00BFB7
:101C7000102B02087CED010880B584B000AF7860BD
:101C80000B46FB70FEF7A4FAF86000F033FE034643
:101C9000002B09D01749184801F07AFC40F249227C
:101CA0001449164801F0EEFCF868FEF795FA7968D9
:101CB000022002F013FAB860BB68002B01D1BB68A8
:101CC00013E0BB681846FFF76FFDBB6801229A83DB
:101CD000BB6800221A62BB68FF229A77BB680022A9
:101CE000DA77BB68FA785A72BB6818461037BD4677
:101CF00080BD00BF202B020818ED010840ED01084F
:101D000090B587B000AF78603960FEF761FA78610E
:101D100002F0F0FD0346002B09D15F495F4801F056
:101D200037FC4FF422725C495D4801F0ABFCFEF7D2
:101D30004FFA386100F0DEFD0346002B09D056490A
:101D4000584801F025FC4FF422725349544801F0E1
:101D500099FC3869FEF740FA7869FEF73DFA7B682E
:101D6000002B05D140F28A224B494F4801F08AFCF2
:101D700002F0C0FDF860FEF72BFA04464B4B1B68DF
:101D8000002B04D0494B1B687A6810469847FB68C3
:101D900000221A637B681B6AFA689A4206D17B6844
:101DA000DB7F0133DAB27B68DA7764E000BF7B68FF
:101DB0009B8B002B14D07B689B8B013B9AB27B687A
:101DC0009A837B68FA681A62FB6893F835207B680F
:101DD0009A777B68DB7F0133DAB27B68DA774AE097
:101DE0003B68002B09D1FB686FF001021A632046A3
:101DF000FEF7F2F96FF001034AE0FB6893F8352033
:101E00007B681B6A93F835309A4207D27B68186A60
:101E1000FB6835331A46022102F0A4FE7B6803F109
:101E200014007B685B7A1A46F968FFF7CBFC3B68C5
:101E3000002B0BDDFB684C333A460021184603F0BB
:101E400031FAFB684C33184603F0E4F82046FEF7FD
:101E5000C3F902F0EDFAFB681B6B002B08D0FB689E
:101E60001B6B13F1090F00D1A1E7FB681B6B0FE09F
:101E7000FEF7AEF904462046FEF7AEF90C4B1B68A0
:101E8000002B04D00A4B1B687A6810469847002341
:101E900018461C37BD4690BD302B020844ED0108A2
:101EA00040ED010818ED01087CED010848200020F4
:101EB0004420002090B587B000AF786000237B619C
:101EC000FEF786F9386102F015FD0346002B09D1B3
:101ED0004A494B4801F05CFB40F2113247494948FE
:101EE00001F0D0FBFEF774F9F86000F003FD034643
:101EF000002B09D04149444801F04AFB40F211321D
:101F00003E49404801F0BEFBF868FEF765F93869C4
:101F1000FEF762F902F0EEFCB860FEF759F90446EC
:101F20003A4B1B68002B04D0384B1B687A6810466C
:101F300098477B681B6ABA689A4209D0BB684FF021
:101F4000FF321A632046FEF747F94FF0FF3350E0A7
:101F50007B68DB7F013BDAB27B68DA777B68DB7F0B
:101F6000002B3DD17B689A7F7B681B6A93F83530E4
:101F70009A4207D07B68186A7B681E331A46022192
:101F800002F0F0FD7B6814331846FFF7FBFB0346B5
:101F9000002B19D17B685B69143BBB607B68BA6816
:101FA0001A62BB6893F835207B689A777B68DB7F81
:101FB0000133DAB27B68DA777B6814331846FFF7AF
:101FC00048FC01237B610BE07B689B8B01339AB259
:101FD0007B689A837B6800221A627B68FF229A776B
:101FE0002046FEF7F9F87B69012B01D102F020FAB7
:101FF000002318461C37BD4690BD00BF402B020889
:1020000044ED010840ED010818ED010840200020D2
:1020100080B584B000AFF860B9601346FB71FB680F
:10202000002B05D140F27F320C490D4801F02AFB0C
:10203000FB68BA680321184601F0E4FFFB68FA79EF
:102040005A72FB681846FFF7AFFBFB680022DA61A3
:10205000002318461037BD4680BD00BF542B020830
:1020600090ED010880B584B000AF78600B46FB703E
:10207000FEF7AEF8F86000F03DFC0346002B09D0F7
:102080001249134801F084FA4FF46D720F49114858
:1020900001F0F8FAF868FEF79FF87968032002F07B
:1020A0001DF8B860BB68002B01D1BB680AE0BB68B3
:1020B000FA785A72BB681846FFF776FBBB680022B5
:1020C000DA61BB6818461037BD4680BD642B020834
:1020D00018ED010840ED010880B584B000AF7860CC
:1020E0007B68002B05D140F2D2321349134801F02E
:1020F000C9FAFEF76DF8F86000F0FCFB0346002B10
:1021000009D00D490E4801F043FA4FF475720A499F
:102110000C4801F0B7FAF868FEF75EF87B681433F4
:102120001846FFF7A6FB7B68184602F03DF800232F
:1021300018461037BD4680BD742B020890ED01088B
:1021400018ED010840ED0108B0B586B000AF786029
:1021500039607B68002B05D140F2F3324149424897
:1021600001F090FA3B68002B02D14FF0FF3375E08D
:1021700000233B61FEF72CF803461D467B68DA69B5
:102180003B681A437B68DA61384B1B68002B04D02C
:10219000364B1B687A68104698477B68143318469C
:1021A000FFF7F0FA0346002B4ED17B685B697B6139
:1021B00045E07B69143BFB604FF0FF34FB6893F80C
:1021C000403003F00103002B0AD0FB68DA6B7B6818
:1021D000DB691A40FB68DB6B9A4217D1002415E0DB
:1021E000FB6893F8403003F00203002B0ED0FB682D
:1021F000DA6B7B68DB691340002B07D0FB68DA6B76
:102200007B68DB691A40FB68DA6300247B691B6822
:102210007B61002C13D1FB6893F8403003F004037A
:10222000002B07D07B68DA69FB68DB6BDB431A4065
:102230007B68DA61F86802F037FD01233B617B6857
:1022400014337A699A42B4D12B461846FDF7C4FF7D
:102250003B69012B01D102F0EBF800231846183737
:10226000BD46B0BD842B020890ED0108402000203F
:10227000B0B588B000AFF860B9603B601346FB7141
:10228000FDF7A6FFF86102F035FB0346002B09D1EC
:102290006849694801F07CF940F254426549674851
:1022A00001F0F0F9FDF794FFB86100F023FB03465D
:1022B000002B09D05F49624801F06AF940F25442AC
:1022C0005C495E4801F0DEF9B869FDF785FFF86901
:1022D000FDF782FFFB68002B05D140F257425549BC
:1022E000584801F0CFF9BB68002B02D14FF0FF3303
:1022F0009BE04FF0FF3402F0FDFA78617B69002229
:102300001A63514B1B68002B04D04F4B1B68FA68B3
:1023100010469847FDF75CFF03461D46FB7903F026
:102320000103002B08D0FB68DA69BB681340BA6868
:102330009A4214D1002412E0FB7903F00203002B2F
:1023400007D0FB68DA69BB681340002B07D0002474
:1023500005E040F275423749384801F093F9002C06
:1023600015D13B6B002B05D0FB68DA69BB681A40BE
:102370003B6B1A60FB7903F00403002B46D0FB682B
:10238000DA69BB68DB431A40FB68DA613EE03B6810
:10239000002B04D17B696FF001021A6336E07B6980
:1023A000BA68DA637B69FA7983F84020FB6803F145
:1023B0001400FB685B7A1A467969FFF703FA3B68F9
:1023C000002B0BDD7B694C333A460021184602F0A6
:1023D00069FF7B694C33184602F01CFE2B461846F9
:1023E000FDF7FAFE02F024F87B691B6B002B02D08C
:1023F0007B691B6B19E0FDF7EBFE03461D463B6B4B
:10240000002B03D07B69DA6B3B6B1A602B461846B6
:10241000FDF7E2FE0D4B1B68002B04D00B4B1B6835
:10242000FA68104698477B691B6B18462037BD46F3
:10243000B0BD00BF942B020844ED010840ED010837
:1024400018ED010890ED01084820002044200020EC
:1024500090B587B000AFF860B9607A603B60FB6808
:10246000002B05D140F2DC622749284801F00AF927
:10247000FB68BA680521184601F0C4FDFB6897F8AF
:102480002C205A72FB681846FFF78EF9FB687A68B1
:10249000DA613B689BB203339BB223F003039AB229
:1024A000FB681A84FB681B8C0433BA6AB2FBF3F333
:1024B0009AB2FB685A84FB6800229A62FB68002289
:1024C000DA62FB6800221A63002411E0FB68DA6913
:1024D000FB681B8C0433214601FB03F313447B612F
:1024E000FB681A6B7B691A60FB687A691A630134AE
:1024F000FB685B8C9C42E9DBFB6800229A8400232A
:1025000018461C37BD4690BDA42B0208B4ED010847
:1025100090B587B000AFF860B9607A60FB68002BB7
:1025200005D14FF4F2624249424801F0ABF8BB6872
:10253000002B05D140F291723D493F4801F0A2F8CD
:102540007B68002B05D140F2927239493B4801F07B
:1025500099F8FB681B8C1A467B68934202D94FF0AE
:10256000FF3361E0364B1B68002B04D0344B1B68F3
:10257000FA6810469847FDF72BFE03461C46FB6899
:102580001B6B7B617B69002B06D123461846FDF748
:1025900023FE6FF0020347E07B691A68FB681A6349
:1025A00023461846FDF718FE7B6900221A607B69F6
:1025B00004337A68B968184600F023FAFDF708FE7C
:1025C00003461C46FB68DB6A002B03D0FB68DB6A12
:1025D0007A691A60FB687A69DA62FB689B6A002B89
:1025E00002D1FB687A699A62FB689B8C01339AB2CC
:1025F000FB689A84FB6814331846FFF7C3F8034658
:10260000002B0CD1FB6814331846FFF722F9234640
:102610001846FDF7E1FD01F00BFF002304E023461F
:102620001846FDF7D9FD002318461C37BD4690BD5E
:10263000B02B0208B4ED0108C4ED0108D8ED010883
:102640004020002090B58BB000AFF860B9607A6090
:102650003B60FB68002B05D14FF404627C497D4848
:1026600001F010F8BB68002B05D140F64102784913
:10267000794801F007F87B68002B05D140F642024B
:102680007349764800F0FEFF00237B6202F032F9C6
:102690003862734B1B68002B04D0714B1B68FA68BF
:1026A00010469847FDF794FD03461C46FB689B8C3B
:1026B000002B40F085803B68002B40F08180234652
:1026C0001846FDF789FD6FF00103BCE0FDF780FDC2
:1026D000B86102F00FF90346002B09D15C4961484B
:1026E00000F056FF40F6580259495F4800F0CAFF13
:1026F000FDF76EFD786100F0FDF80346002B09D070
:1027000053495A4800F044FF40F658025049564891
:1027100000F0B8FF7869FDF75FFDB869FDF75CFD73
:102720003B6A00221A633B68002B0AD123461846F5
:10273000FDF752FD3B6A6FF001021A636FF001036F
:1027400081E0FB6803F11400FB685B7A1A46396A82
:10275000FFF738F83B68002B0EDDFEF73FFC786290
:102760003B6A4C333A460021184602F09BFD3B6A17
:102770004C33184602F04EFC23461846FDF72CFD5C
:1027800001F056FE3B6A1B6B002B02D03B6A1B6BB1
:1027900059E0FDF71DFD03461C463B68002B0FDD8D
:1027A000FEF71CFC02467B6AD31A7B623B681A4622
:1027B0007B6AD31A3B603B68002B01DA00233B6045
:1027C000FB689B8C002B81D0FB689B6AFB61FB69DB
:1027D0001A68FB689A62FB68DB6AFA699A4202D15E
:1027E000FB680022DA62FB689B8C013B9AB2FB68B3
:1027F0009A8423461846FDF7EFFCFB69191DFB6818
:102800001B8C1A467B68934228BF13461A46B86849
:1028100000F0F7F8FDF7DCFC03461C46FB681A6B7A
:10282000FB691A60FB68FA691A6323461846FDF7CC
:10283000D3FC0F4B1B68002B04D00D4B1B68FA68B0
:1028400010469847002318462C37BD4690BD00BF60
:10285000BC2B0208B4ED0108C4ED0108D8ED010855
:102860004820002044ED010840ED010818ED010862
:102870004420002080B582B000AFFDF7A9FC78604D
:102880000A4B1B78DBB20133DAB2084B1A70084BE3
:102890001B68002B02D0064B1B6898477868FDF731
:1028A0009BFC00BF0837BD4680BD00BF382000201C
:1028B0009406002080B582B000AFFDF789FC7860F7
:1028C0000A4B1B78DBB2013BDAB2084B1A70084B9B
:1028D0001B68002B02D0064B1B6898477868FDF7F1
:1028E0007BFC00BF0837BD4680BD00BF38200020FC
:1028F0009806002080B400AF034B1B78DBB218466B
:10290000BD465DF8047B70473820002080B584B058
:1029100000AF7860FFF7EEFF0346002B03D00A4AB2
:102920007B6813600CE001F0E5FFF860FB68002BAA
:1029300003D1054A7B68136002E0FB687A681A637A
:102940001037BD4680BD00BF9C06002080B489B012
:1029500000AFF860B9607A60FB68FB61BB68DBB20E
:102960007B617B68032B40D9FB6803F00303002BDA
:102970003BD1FB68BB617B691B027A6913433B61F6
:102980003B691B043A6913433B6116E0BB691A1D9E
:10299000BA613A691A60BB691A1DBA613A691A606C
:1029A000BB691A1DBA613A691A60BB691A1DBA611E
:1029B0003A691A607B68103B7B607B680F2BE5D817
:1029C00007E0BB691A1DBA613A691A607B68043B6B
:1029D0007B607B68032BF4D8BB69FB6105E0FB6976
:1029E0005A1CFA617A6952B21A707B685A1E7A6070
:1029F000002BF4D1FB6818462437BD465DF8047BF4
:102A0000704780B48BB000AFF860B9607A60FB6843
:102A10007B62BB683B627B687B617B690F2B4ED915
:102A20003A6A7B6A134303F00303002B47D17B6AA6
:102A3000FB613B6ABB6122E0BA69131DBB61FB69A4
:102A4000191DF96112681A60BA69131DBB61FB692F
:102A5000191DF96112681A60BA69131DBB61FB691F
:102A6000191DF96112681A60BA69131DBB61FB690F
:102A7000191DF96112681A607B69103B7B617B69E3
:102A80000F2BD9D80AE0BA69131DBB61FB69191D68
:102A9000F96112681A607B69043B7B617B69032BD7
:102AA000F1D8FB697B62BB693B6208E03A6A531C60
:102AB0003B627B6A591C796292F900201A707B692B
:102AC0005A1E7A61002BF1D1FB6818462C37BD469F
:102AD0005DF8047B704780B487B000AFF860B960E0
:102AE0007A60FB687B61BB683B613A697B699A42AB
:102AF00028D23A697B6813447A699A4222D27A6969
:102B00007B6813447B613A697B6813443B610AE04C
:102B10003B69013B3B617B69013B7B613B6993F90D
:102B200000207B691A707B685A1E7A60002BEFD1F7
:102B30000DE03A69531C3B617B69591C796192F93C
:102B400000201A707B685A1E7A60002BF1D1FB6856
:102B500018461C37BD465DF8047B704780B487B0CB
:102B600000AFF860B9607A607B68002B23D0FB6807
:102B70007B61BB683B613A69531C3B617B69591CB3
:102B8000796192F900201A7093F90030002B0CD172
:102B900004E07B695A1C7A6100221A707B68013B51
:102BA0007B607B68002BF4D105E07B68013B7B6098
:102BB0007B68002BDFD1FB6818461C37BD465DF8EB
:102BC000047B704790B484B000AFF860B9607A605D
:102BD000002418E0FB6893F90030DAB2BB68591C96
:102BE000B96093F90030DBB2D31ADBB25CB2002CCF
:102BF0000CD1FB685A1CFA6093F90030002B05D009
:102C00007B68013B7B607B68002BE3D12346184641
:102C10001037BD4690BC704780B483B000AF786079
:102C2000396005E07B6801337B603B6801333B60C2
:102C30007B6893F90030002B07D07B6893F9002064
:102C40003B6893F900309A42ECD07B6893F90030EE
:102C50001A463B6893F90030D31A18460C37BD4624
:102C60005DF8047B704780B485B000AF78607B6806
:102C7000FB6002E0FB680133FB60FB6893F9003006
:102C8000002BF7D1FA687B68D31A18461437BD4673
:102C90005DF8047B7047000080B582B002AF0A483F
:102CA00000F076FC094800F073FC094B0093002308
:102CB00001220321074800F06BFC074800F068FC84
:102CC00000BFBD4680BD00BFE4ED0108F0ED010886
:102CD00034EE010814EE010840EE010880B485B01E
:102CE00000AF786039603B680A2B17D17B681B689E
:102CF0001946134BA3FB0123DA0813469B00134428
:102D00005B00CA1AFA607B681B681A460C4BA3FB6F
:102D10000223DB081A467B681A600AE07B681B689E
:102D200003F00F03FB607B681B681B091A467B6876
:102D30001A60FB6818461437BD465DF8047B70477F
:102D4000CDCCCCCC90B482B000AF786000240EE043
:102D500023469B0023445B0018467B681B68591C74
:102D60007A68116093F900300344A3F130047B6862
:102D70001B6893F90030303B092BE9D923461846EC
:102D80000837BD4690BC7047B0B58CB000AFF86056
:102D9000B9607A603B603C6CBB6C03F04003002B75
:102DA00001D06C4B00E06C4BBB62BB6C03F01003BA
:102DB000002B03D0BB6C23F00103BB64BB6C03F09E
:102DC0000103002B01D0302300E0202387F82730B7
:102DD000002387F82F30BB6C03F00203002B1AD0BE
:102DE0007B68002B06DA2D2387F82F307B685B4247
:102DF0007B6010E0BB6C03F00403002B03D02B239B
:102E000087F82F3007E0BB6C03F00803002B02D0DB
:102E1000202387F82F3000257B68002B1AD12B4602
:102E20005D1C07F130021344302203F81C2C14E01F
:102E30003B1D39681846FFF751FF03461A46BB6A27
:102E40001A442B465D1C92F9002007F130010B4417
:102E500003F81C2C7B68002BEAD17B6C9D4200DDC3
:102E60007D647B6CE41ABB6C03F01103002B15D15D
:102E700097F92F30002B0DD0002C0BDD013C09E021
:102E8000FA68BB689A4202D8FB6820221A70FB6875
:102E90000133FB6023465C1E002BF1DC97F92F30D9
:102EA000002B0BD0FA68BB689A4204D8FB6897F8ED
:102EB0002F201A70013CFB680133FB60BB6C03F0F0
:102EC0001003002B1AD10AE0FA68BB689A4203D8B3
:102ED000FB6897F827201A70FB680133FB602346D4
:102EE0005C1E002BF0DC09E0FA68BB689A4202D84D
:102EF000FB6830221A70FB680133FB607B6C5A1E42
:102F00007A649D42F0DB0DE0FA68BB689A4206D80D
:102F100007F130032B4413F91C2CFB681A70FB6873
:102F20000133FB602B465D1E002BEDDC09E0FA68E7
:102F3000BB689A4202D8FB6820221A70FB680133F2
:102F4000FB6023465C1E002BF1DCFB681846303723
:102F5000BD46B0BDC82C0208DC2C020880B592B07A
:102F600004AFF860B9607A603B60FB68BB62BB6825
:102F7000013BFA6813447B627A6AFB689A4280F0EC
:102F800089824FF0FF337B627A6AFB68D31ABB6099
:102F900080E27B6893F90030252B0CD0BA6A7B6AFB
:102FA0009A4204D87B6893F90020BB6A1A70BB6A06
:102FB0000133BB626BE20023BB777B6801337B602C
:102FC0007B6893F900302D2B04D1BB7F43F01003B5
:102FD000BB77F2E77B6893F900302B2B04D1BB7FE2
:102FE00043F00403BB77E8E77B6893F90030202BBC
:102FF00004D1BB7F43F00803BB77DEE77B6893F91E
:103000000030232B04D1BB7F43F02003BB77D4E7F0
:103010007B6893F90030302B04D1BB7F43F0010370
:10302000BB77CAE700BF4FF0FF33BB617B6893F902
:103030000030303B092B05D83B1D1846FFF782FEB8
:10304000B86116E07B6893F900302A2B11D17B68B8
:1030500001337B603B681A1D3A601B68BB61BB692A
:10306000002B06DABB695B42BB61BB7F43F01003F8
:10307000BB774FF0FF337B617B6893F900302E2BD9
:1030800020D17B6801337B607B6893F90030303B53
:10309000092B05D83B1D1846FFF754FE78610CE05C
:1030A0007B6893F900302A2B07D17B6801337B6062
:1030B0003B681A1D3A601B687B617B69002B01DA53
:1030C00000237B6100237B777B6893F90030682BBA
:1030D00004D07B6893F900306C2B06D17B6893F9A0
:1030E00000307B777B6801337B600A23FB777B684A
:1030F00093F90030253B532B00F2728101A252F864
:1031000023F000BFAD330008E1330008E1330008CD
:10311000E1330008E1330008E1330008E13300083F
:10312000E1330008E1330008E1330008E13300082F
:10313000E1330008E1330008E1330008E13300081F
:10314000E1330008E1330008E1330008E13300080F
:10315000E1330008E1330008E1330008E1330008FF
:10316000E1330008E1330008E1330008E1330008EF
:10317000E1330008E1330008E1330008E1330008DF
:10318000E1330008E1330008E1330008E1330008CF
:10319000E1330008E1330008E1330008E1330008BF
:1031A000E1330008E1330008E1330008E1330008AF
:1031B000E1330008E1330008E1330008E13300089F
:1031C000E1330008E1330008E1330008E13300088F
:1031D000C9330008E1330008E1330008E133000897
:1031E000E1330008E1330008E1330008E13300086F
:1031F000E1330008E1330008E133000855320008EC
:10320000D7330008E1330008E1330008E133000858
:10321000E1330008D7330008E1330008E133000848
:10322000E1330008E1330008E1330008C33300084C
:1032300075330008E1330008E1330008C3320008A9
:10324000E133000821340008E1330008E1330008CD
:10325000D1330008BB7F03F01003002B10D109E02D
:10326000BA6A7B6A9A4202D8BB6A20221A70BB6A89
:103270000133BB62BB69013BBB61BB69002BEFDC67
:103280003B681A1D3A601B68FB74BA6A7B6A9A42F3
:1032900002D8BB6AFA7C1A70BB6A0133BB6209E0D0
:1032A000BA6A7B6A9A4202D8BB6A20221A70BB6A49
:1032B0000133BB62BB69013BBB61BB69002BEFDC27
:1032C000E5E03B681A1D3A601B683B623B6A002BD5
:1032D00001D17C4B3B62386AFFF7C5FC0346FB62B9
:1032E0007B69002B05DDFA6A7B699A4201DD7B6907
:1032F000FB62BB7F03F01003002B10D109E0BA6A18
:103300007B6A9A4202D8BB6A20221A70BB6A0133D8
:10331000BB62BB695A1EBA61FA6A9A42EFDB0023AC
:103320003B6311E0BA6A7B6A9A4204D83B6A93F91C
:103330000020BB6A1A70BB6A0133BB623B6A01336F
:103340003B623B6B01333B633A6BFB6A9A42E9DBBE
:1033500009E0BA6A7B6A9A4202D8BB6A20221A70D4
:10336000BB6A0133BB62BB695A1EBA61FA6A9A42F0
:10337000EFDB8CE0BB69B3F1FF3F05D10823BB61F4
:10338000BB7F43F00103BB773B681A1D3A601B68A3
:103390001A46BB7F02937B690193BB69009310239C
:1033A000796AB86AFFF7F0FCB86270E0BA6A7B6AC3
:1033B0009A4202D8BB6A25221A70BB6A0133BB62EB
:1033C00065E00823FB772CE0BB7F43F04003BB772D
:1033D0001023FB7725E0BB7F43F00203BB771FE0A0
:1033E000BA6A7B6A9A4202D8BB6A25221A70BB6A03
:1033F0000133BB627B6893F90030002B0CD0BA6AB2
:103400007B6A9A4204D87B6893F90020BB6A1A70E1
:10341000BB6A0133BB623AE07B68013B7B6036E00C
:1034200000BF7B7F6C2B09D13B681A1D3A601B687B
:103430007B63BB7F03F00203002B1AE07B7F682BCA
:103440000ED13B681A1D3A601B689BB27B63BB7F41
:1034500003F00203002B0CD07B6B1BB27B6308E0F4
:103460003B681A1D3A601B687B63BB7F03F0020355
:10347000002B7A6BF97FBB7F02937B690193BB6959
:1034800000930B46796AB86AFFF77EFCB8627B68E6
:1034900001337B607B6893F90030002B7FF479ADBA
:1034A000BA6A7B6A9A4203D8BB6A00221A7002E0A9
:1034B0007B6A00221A70BA6AFB68D31A184638373A
:1034C000BD4680BD6CEE010880B584B000AFF860E9
:1034D000B9607A607B68BA684FF0FF31F868FFF72F
:1034E0003DFD034618461037BD4680BD0EB480B57D
:1034F00085B000AF786007F12003BB60BA68F96956
:103500007868FFF7E1FFF860FB6818461437BD469E
:10351000BDE8804003B0704780B400AF034B1B6828
:103520001846BD465DF8047B704700BFA00600202A
:1035300080B584B000AF78600F4B1B68FB60786883
:10354000FDF784FEB860BB68002B0FD00A4B1B68E8
:10355000002B04D0084B1B681846FDF73FFF4321A2
:10356000B868FDF7BBFE044ABB681360FB681846E9
:103570001037BD4680BD00BFA006002080B483B0D8
:1035800000AF786000BF0C37BD465DF8047B704724
:103590000FB480B584B000AF07F11C037B607B687B
:1035A000BA6940F27F111948FFF7D8FC0346FB6067
:1035B000FB68B3F5C07F02D340F27F13FB60144B6E
:1035C0001B68002B03D11148FFF7D8FF17E0104B01
:1035D0001B681B8B7B810E4B1B681A8B0C4B1B686B
:1035E00042F0400292B21A83094B1868FB68074AFE
:1035F0000021FDF765FF064B1B687A891A8300BF1F
:103600001037BD46BDE8804004B07047A4060020D6
:10361000A006002080B483B000AF78607B68002BE8
:1036200001D1002326E07B68DBB2002B05D07B684C
:10363000DBB2134AD35C01331CE07B6803F47F43A5
:10364000002B06D07B681B12DBB20D4AD35C09331A
:1036500010E07B6803F47F03002B06D07B681B140B
:10366000DBB2074AD35C113304E07B681B0E044ACB
:10367000D35C193318460C37BD465DF8047B7047A0
:10368000C82B020880B586B000AFF860B9607A60D8
:103690000023FB750C4B1B68002B0BD17B68BA68B1
:1036A000F9680A48FFF774FF00BFFB7D5BB2002B8F
:1036B000FBD005E0044B1B687A68B968F868984746
:1036C00000BF1837BD4680BD3C20002074EE0108C5
:1036D00080B584B000AF7860374B1B687A689A4237
:1036E00004D2A22235493648FFF7CCFF354B1B6880
:1036F0007A689A4204D3A32230493348FFF7C2FFC5
:103700007B685B88002B04D0A4222C492F48FFF74C
:10371000B9FF294B1A687B685B681344FB607A68C1
:10372000FB689A421FD0FB685B88002B1BD1254B9E
:103730001B68FA689A4216D0254B1B68FA689A42B1
:1037400002D1234A7B681360FB685A687B685A6021
:103750007B68194A1268991A174B1A68FB685B68EC
:1037600013440A469A60144B1A687B689B6813449A
:10377000BB60BA687B689A421AD0BB685B88002B32
:1037800016D1134B1B687A689A4202D1104ABB6863
:1037900013607B685A68BB685A60BB68064A126847
:1037A000991A054B1A687B685B6813440A469A604D
:1037B00000BF1037BD4680BD2C0800201C2D02081C
:1037C000ACEE010830080020CCEE0108F8EE01084C
:1037D0003408002080B586B000AF786039607B681F
:1037E000033323F003037B613B6823F003033B6156
:1037F000FCF7EEFCF860FFF77DF80346002B08D0DD
:1038000030493148FFF7C4FED3222E492F48FFF735
:1038100039FFF868FCF7E0FC3B69182B47D93B6996
:10382000183B7A699A4242D83A697B69D31A183BA5
:10383000274A13607B69274A1360264B1B68BB60CD
:10384000BB684FF4F5521A80214B1B6803F10C0240
:10385000BB685A60BB6800229A60BB6800225A802D
:103860001C4B1A68BB685B6813441B4A13601A4BF5
:103870001B684FF4F5521A80174B1B6801225A80BF
:10388000134B1A68144B1B680C325A60104B1A68A1
:10389000114B1B680C329A60002301220F4910481B
:1038A000FEF70AF80B4B1B680E4A136006E07B68B4
:1038B0003A6819460C48FFF76BFE00BF1837BD4643
:1038C00080BD00BF282D020808EF010830EF010875
:1038D000580800202C0800203008002070EF010854
:1038E000380800203408002034EF010880B588B083
:1038F00000AF7860FCF76CFCB861FEF7FBFF034695
:10390000002B09D08E498F48FFF742FE4FF48B728F
:103910008B498D48FFF7B6FEB869FCF75DFC7B6804
:10392000002B01D1002307E17B68033323F003035D
:103930007B60864B1B687A689A4201D90023FBE0C2
:103940007B680B2B01D80C237B604FF0FF31804844
:10395000FEF736F87F4B1B681A467F4B1B68D31A5D
:10396000FB61DDE07C4B1A68FB6913447B617B697A
:103970005B88002B40F0CE807B695A68FB69D31AC4
:103980000C3B7A689A4200F2C5807B695A68FB69F1
:10399000D31AA3F10C027B6818339A423DD3FA691B
:1039A0007B6813440C333B616B4B1A683B691344CF
:1039B000FB60FB684FF4F5521A80FB6800225A80C6
:1039C0007B695A68FB685A60FB68FA699A607B6990
:1039D0003A695A607B6901225A80FB685A685B4BDE
:1039E0001B680C339A4206D05B4B1A68FB685B6815
:1039F00013443A699A60594B1A687B6813440C3334
:103A0000564A1360564B1A68544B1B689A421DD293
:103A1000524B1B68524A136018E07B6901225A809E
:103A20007B695B687A694C490968521A9A1A4B4B50
:103A30001B681344494A1360494B1A68474B1B687B
:103A40009A4203D2454B1B68454A13607B694FF489
:103A5000F5521A803F4B1B687A699A4224D107E0DD
:103A60003D4B1A683B4B1B685B681344394A136033
:103A7000384B1B685B88002B05D0364B1A68394BD6
:103A80001B689A42ECD1334B1A68364B1B689A423A
:103A90000AD0304B1B685B88002B05D040F28312A4
:103AA00027493148FFF7EEFD2948FEF72BF87A69E0
:103AB0007B6813440C332B4A1268934205D940F2B9
:103AC00087121F492948FFF7DDFD7B690C3303F09E
:103AD0000303002B05D04FF4C47219492448FFF7A3
:103AE000D1FD7B6903F00303002B05D040F289125E
:103AF00013492048FFF7C6FD1F4B1B68002B06D05B
:103B00001D4B1B687A690C327968104698477B69AF
:103B10000C3311E0104B1A68FB6913445B68FB61BE
:103B20000A4B1A687B68D31AFA699A42FFF41AAFF3
:103B30000748FDF7E7FF002318462037BD4680BD44
:103B40003C2D020808EF010830EF0108580800205A
:103B500038080020340800202C0800205C080020D1
:103B6000600800203008002078EF0108A0EF01086D
:103B7000E8EF010834F001082408002080B58AB07D
:103B800000AF78603960FCF723FB7862FEF7B2FE85
:103B90000346002B09D057495748FFF7F9FC40F27C
:103BA000AD1254495548FFF76DFD786AFCF714FBD8
:103BB0003B68033323F003033B60514B1B683A68B7
:103BC0009A4201D9002390E03B68002B04D1786829
:103BD00000F0DAF8002388E07B68002B04D1386815
:103BE000FFF784FE034680E04FF0FF314548FDF7C4
:103BF000E7FE454B1B687A689A4204D3434B1B6827
:103C00007A689A4204D33F48FDF77CFF7B686CE0FA
:103C10007B680C3B3B623B6A3B4A12689B1AFB6128
:103C20003B6A5A68FB69D31A0C3BBB61BA693B68B3
:103C30009A4204D13348FDF765FF7B6855E03B6845
:103C40001833BA699A4238D93A68BB69D21A304BEC
:103C50001B6813442E4A1360FA693B6813440C3303
:103C60003B61294B1A683B691344FB60FB684FF4C6
:103C7000F5521A80FB6800225A803B6A5A68FB683A
:103C80005A60FB68FA699A603B6A3A695A60FB6855
:103C90005A681B4B1B680C339A4206D01A4B1A68A1
:103CA000FB685B6813443A699A60F868FFF710FD97
:103CB0001448FDF727FF7B6817E01248FDF722FF45
:103CC0003868FFF713FE78617B69002B0CD03A68E7
:103CD000BB69934228BF13461A4679687869FEF794
:103CE00090FE786800F050F87B6918462837BD468A
:103CF00080BD00BF482D020808EF010830EF010821
:103D000058080020380800202C0800203008002027
:103D10005C08002080B584B000AF78603960FCF7A3
:103D200057FAF860FEF7E6FD0346002B09D0134969
:103D30001348FFF72DFC40F2122210491148FFF7FB
:103D4000A1FCF868FCF748FA7B683A6802FB03F3C9
:103D50001846FFF7CBFDB860BB68002B08D07B6826
:103D60003A6802FB03F31A460021B868FEF7EEFD3D
:103D7000BB6818461037BD4680BD00BF542D0208F1
:103D800008EF010830EF010880B584B000AF78601B
:103D9000FCF71EFAF860FEF7ADFD0346002B09D0D4
:103DA0004C494D48FFF7F4FB40F2292249494B4862
:103DB000FFF768FCF868FCF70FFA7B68002B00F04F
:103DC00082807B6803F00303002B05D040F22D2294
:103DD00040494348FFF756FC424B1B687A689A42B9
:103DE00004D3414B1B687A689A4205D340F22F22D4
:103DF00038493E48FFF746FC3D4B1B68002B03D07B
:103E00003B4B1B6878689847364B1B687A689A4228
:103E10005BD3354B1B687A689A4256D27B680C3B61
:103E2000BB604FF0FF313348FDF7CAFDBB685B88CC
:103E3000002B04D0BB681B88B3F5F55F0BD02E4870
:103E4000FFF7A6FBBB685B881A46BB681B88B9688E
:103E50002A48FFF79DFBBB685B88002B05D140F229
:103E60004D221C492648FFF70DFCBB681B88B3F5A3
:103E7000F55F05D040F24E2216492248FFF702FCBA
:103E8000BB6800225A80BB684FF4F5521A801E4B63
:103E90001B68BA689A4202D21B4ABB681360BB68AF
:103EA000104A12689B1A1A46BB685B68D21A174BF5
:103EB0001B681344154A1360B868FFF709FC0D48E6
:103EC000FDF720FE02E000BF00E000BF1037BD4656
:103ED00080BD00BF602D020808EF010830EF010827
:103EE00064F001082C0800203008002098F0010838
:103EF0002808002038080020F4F0010810F101081B
:103F000040F101084CF10108340800205C08002051
:103F100080B500AF094B1B6819460948FFF738FB0D
:103F2000084B1B6819460848FFF732FB074B1B6814
:103F300019460748FFF72CFB00BF80BD580800203A
:103F400068F101085C0800207CF10108600800208D
:103F500090F1010880B483B000AF786039607B686D
:103F60001B683A685A607B681A683B681A607B680D
:103F70003A681A603B687A685A6000BF0C37BD46E1
:103F80005DF8047B704780B483B000AF78607B68D5
:103F90001B687A6852685A607B685B687A68126846
:103FA0001A607B687A685A607B685A687B681A6016
:103FB00000BF0C37BD465DF8047B704780B485B008
:103FC00000AF0346FB710023FB600FE00C4AFB6867
:103FD0001B0113441B78FA799A4204D1FB681B0138
:103FE000074A134406E0FB680133FB60FB68092BBA
:103FF000ECDD002318461437BD465DF8047B70479E
:104000000000002090B587B000AFF8600B467A60E2
:10401000FB72FB7A1846FFF7D1FF78617B69002BB2
:1040200005D14FF4837215491548FFF72BFBFB7A36
:1040300063F07F03DAB2FB681A72FB6808227968C2
:104040001846FEF78BFD0F4B1B68002B03D00D4B62
:104050001B68F8689847FCF7BBF804467B691A1D93
:10406000FB680C3319461046FFF774FF2046FCF737
:10407000B3F800BF1C37BD4690BD00BF682D0208D5
:10408000B0F101086408002090B583B000AF7860FB
:104090007B68002B05D14FF494720D490D48FFF752
:1040A000F1FA0D4B1B68002B03D00B4B1B68786893
:1040B0009847FCF78DF804467B680C331846FFF7E9
:1040C00062FF2046FCF788F800BF0C37BD4690BD64
:1040D000782D0208C8F101086808002090B587B063
:1040E00000AF03463960FB71FCF772F87861FEF7A8
:1040F00001FC0346002B09D026492748FFF748FA60
:1041000040F2451223492548FFF7BCFA7869FCF7CD
:1041100063F8FB791846FFF751FF38613B69002BC4
:1041200005D140F251121B491D48FFF7ABFA3B691C
:10413000DB681846FFF7DAFBF860FB68002B01D15B
:10414000002322E0FB68FA791A72FB6800225A7297
:10415000FB68082239681846FEF700FD114B1B6802
:10416000002B03D00F4B1B68F8689847FCF730F81A
:1041700004463B691A1DFB680C3319461046FFF7CD
:10418000E9FE2046FCF728F8FB6818461C37BD46B8
:1041900090BD00BF8C2D0208DCF1010804F201087B
:1041A000B0F101086408002090B583B000AF7860DA
:1041B0007B68002B05D140F2871214491448FFF7A1
:1041C00061FA7B681B7A5BB2002B05DA4FF4C4728C
:1041D0000E491048FFF756FA0F4B1B68002B03D00F
:1041E0000D4B1B6878689847FBF7F2FF04467B6825
:1041F0000C331846FFF7C7FE2046FBF7EDFF786843
:10420000FFF7C2FD00BF0C37BD4690BDA02D0208D0
:10421000C8F1010808F201086808002080B582B0E2
:1042200000AF78607B68002B05D14FF4D672084947
:104230000848FFF727FA7B681B7A5BB2002B01DA8C
:10424000012300E0002318460837BD4680BD00BFAB
:10425000B42D0208C8F1010880B483B000AF7860C3
:104260007B687A685A607B685A687B681A6000BF0E
:104270000C37BD465DF8047B704780B483B000AF57
:10428000786039607B685B683A681A607B685A6856
:104290003B685A607B683A685A603B687A681A6083
:1042A00000BF0C37BD465DF8047B704780B483B017
:1042B00000AF78607B681B687A6852685A607B68D8
:1042C0005B687A6812681A607B687A685A607B68F3
:1042D0005A687B681A6000BF0C37BD465DF8047BE6
:1042E000704780B483B000AF78607B681B687A68E1
:1042F0009A420CBF01230023DBB218460C37BD469F
:104300005DF8047B7047000080B584B000AF786032
:104310007B68002B04D159221D491E48FFF7B2F9D2
:104320007B689B6A1B78232B11D17B68DB691A465B
:104330007B689B6A9A420AD97B68DB691A467B686C
:104340009B6A19467B68DB6A0B449A420ED97B68EC
:1043500019461148FFF71CF903F0B0FBFBF738FFD3
:104360000346FB60FB68002BFCD10DE07B68DB693A
:104370001A467B689B6A20339A4205D87B681946A7
:104380000648FFF705F9FFE700BF1037BD4680BDBF
:10439000D02D020834F2010848F2010864F2010845
:1043A00098B500AF0D4B00221A80002406E0E30010
:1043B0000B4A13441846FFF74FFF01341F2CF6DD5C
:1043C000084B1F221A70084B00221A60074B00226C
:1043D0001A600748FFF740FF00BF98BD6C08002037
:1043E0004C2000204C21002050210020542100208E
:1043F0005821002098B500AF0A4B1B681846FFF7FC
:1044000009F90346013B1C46074B53F83430A3F12E
:104410001404064B1C6004F11C031846FBF725FF2F
:1044200000BF98BD542100204C20002050210020C6
:1044300090B585B000AFFBF7CBFEF8602A4BB3F91F
:104440000030002B49D1294B1B681846FFF7E2F8D2
:104450000346013B1C46264B53F83430143BBB60EB
:10446000244B1B68BA689A4233D0E2B2224B1A70CE
:10447000204B1B687B601F4ABB6813601F4B1B6887
:10448000002B04D01D4B1B68B96878689847B86842
:10449000FFF73AFF1A4B1B78DBB2002B0CD17B687D
:1044A0001C331A46BB681C3319461046FBF797FEAF
:1044B000F868FBF791FE13E07B681C331A46BB6873
:1044C0001C3319461046FBF78AFEF868FBF784FE9A
:1044D00006E0F868FBF780FE02E0F868FBF77CFE78
:1044E00000BF1437BD4690BD6C0800205421002049
:1044F0004C200020502100204C210020700800207A
:104500003820002090B583B000AF78607B68002B26
:1045100005D14FF4917217491748FFF7B3F8FBF72D
:1045200057FE04467B6893F834305BB223F00F03E8
:104530005BB243F001035BB2DAB27B6883F83420EC
:104540007B6893F83530DB000C4A1A447B681433DF
:1045500019461046FFF791FE7B689A6B084B1B6863
:104560001343074A13602046FBF736FE00BF0C37A3
:10457000BD4690BDEC2D020834F201084C2000200D
:104580005421002090B583B000AF78607B68002B89
:1045900005D14FF4A87213491348FFF773F8FBF7DE
:1045A00017FE04467B6814331846FFF77FFE7B68CE
:1045B00093F83530DB000D4A13441846FFF791FE9F
:1045C0000346002B07D07B689B6BDA43084B1B68C4
:1045D0001340074A13602046FBF7FEFD00BF0C376F
:1045E000BD4690BD082E020834F201084C20002080
:1045F0005421002098B500AFFBF7EAFD0446074BB5
:10460000B3F900309BB201339BB21AB2034B1A804C
:104610002046FBF7E1FD00BF98BD00BF6C080020FD
:1046200098B500AFFBF7D4FD04460E4BB3F900304C
:104630009BB2013B9BB21AB20A4B1A80094BB3F9E9
:104640000030002B08DC074B00221A802046FBF7C5
:10465000C3FDFFF7EDFE02E02046FBF7BDFD00BF06
:1046600098BD00BF6C08002080B483B000AF7860B4
:104670007B687A685A607B685A687B681A6000BFFA
:104680000C37BD465DF8047B704780B483B000AF43
:10469000786039607B681B683A685A607B681A6882
:1046A0003B681A607B683A681A603B687A685A60AF
:1046B00000BF0C37BD465DF8047B704780B483B003
:1046C00000AF786039607B685B683A681A607B6825
:1046D0005A683B685A607B683A685A603B687A68F7
:1046E0001A6000BF0C37BD465DF8047B704780B48C
:1046F00083B000AF78607B681B687A6852685A6044
:104700007B685B687A6812681A607B687A685A60AE
:104710007B685A687B681A6000BF0C37BD465DF83D
:10472000047B704790B583B000AF174B1B687B606C
:10473000FBF74EFD04467868FFF724FF7B680422F0
:1047400083F834207B684C33184600F0FFFB786810
:10475000FFF764FD0346012B07D17B689B6F002B9D
:1047600003D17868FFF790FC05E07B6814331946A5
:104770000648FFF78AFF2046FBF72EFDFFF758FE9D
:1047800000BF0C37BD4690BD5021002058210020AD
:1047900080B586B002AFF860B9607A603B60FB68B4
:1047A00014331846FFF760FFFB687A681A62FB68EB
:1047B0003A685A62FB68BA699A62FB68FA69DA6217
:1047C000FB68986AFB68DB6A1A462321FEF7BEF88D
:1047D000FB68186AFB68596AFB689A6AFB68DB6ABF
:1047E000043B1A44234B02F051FF0246FB68DA6196
:1047F00097F820301F2B04D99E221F491F48FEF72F
:1048000041FFFB6897F8202083F83620FB6897F873
:10481000202083F83520FB6800229A63FB687A6ABF
:104820005A64FB687A6A9A64FB6800221A63FB6820
:10483000002283F83420FB6800229A67FB6800227C
:10484000DA67FB6803F14C00F96800230193002349
:104850000093FB680A4A00F055FB0A4B1B68002BCB
:1048600003D0084B1B68F868984700231846103798
:10487000BD4680BD25470008242E02089CF2010891
:10488000254D00087C08002080B588B004AFF86092
:10489000B9607A603B60FB68002B04D1EE221249BC
:1048A0001248FEF7EFFEBB69002B04D1EF220E4940
:1048B0000F48FEF7E7FEBA680021F868FFF7A2FB91
:1048C0007B6A039397F820300293FB690193BB69DD
:1048D00000933B687A68B968F868FFF759FF0346A8
:1048E00018461037BD4680BD342E0208C0F20108BC
:1048F000D4F2010880B400AF034B1B681846BD46D4
:104900005DF8047B704700BF5021002080B582B065
:1049100000AF78607B68002B05D14FF48A7219498B
:104920001948FEF7AFFE7B6893F8343003F00F03AD
:10493000002B05D040F2151212491448FEF7A2FED2
:104940007B6893F836207B6883F835207B6893F882
:1049500035301A46012393401A467B689A637B6878
:10496000022283F83420786800F09EF9FFF7C2FF36
:104970000346002B01D0FFF75BFD002318460837E4
:10498000BD4680BD442E0208C0F20108ECF20108C9
:1049900080B58AB004AFF860B9607A603B60F968AE
:1049A0000020FFF79BFB78617B69002B01D100237E
:1049B0001BE03868FEF79AFF38613B69002B04D191
:1049C0007869FFF7F1FB00230FE07B6A039397F808
:1049D000203002933B6801933B6900937B68BA687F
:1049E000F9687869FFF7D4FE7B6918461837BD4629
:1049F00080BD000080B584B000AF78607B68002B7C
:104A000005D14FF4D17214491448FEF73BFE7B6880
:104A100093F8343003F00F03002B02D07868FFF7CF
:104A2000B1FD7B684C33184600F090FA7B68042295
:104A300083F83420FBF7CCFBF8607B68143319460D
:104A40000748FFF722FEF868FBF7C6FB002318466D
:104A50001037BD4680BD00BF582E0208C0F20108C5
:104A60005821002090B583B000AFFBF7B1FB04469E
:104A7000174B1B687B607B6893F8343003F00F039F
:104A8000012B1DD17B685A697B689B699A4217D0BC
:104A90007B6814331846FFF72AFE7B6893F835309D
:104AA000DB000C4A1A447B68143319461046FFF7A2
:104AB00005FE2046FBF790FBFFF7BAFC002303E05E
:104AC0002046FBF789FB002318460C37BD4690BDF6
:104AD000502100204C20002090B585B000AF7860B8
:104AE000FBF776FB0446164B1B68FB60FB68002B4C
:104AF00005D14FF4FD7213491348FEF7C3FDF86862
:104B000000F08CF8FB684C333A1D0021184600F089
:104B1000C9FBFB684C33184600F07CFA2046FBF7D3
:104B20005BFBFFF785FCFB681B6B13F1020F02D1E7
:104B3000FB6800221A63002318461437BD4690BD57
:104B4000502100206C2E0208C0F2010880B582B00E
:104B500000AF78607868FFF7BFFF03461846083754
:104B6000BD4680BD90B585B000AFF860B9607A6091
:104B7000FB68002B05D140F23E2226492648FEF76D
:104B800081FDBB68012B3AD0022B02D0002B31D023
:104B90003AE0FBF71DFB0446FB6893F8343003F062
:104BA0000F03012B14D1F868FFF7ECFC7B681A782F
:104BB000FB6883F83520FB6893F835301A460123EB
:104BC00093401A46FB689A63F868FFF79BFC0DE078
:104BD0007B681A78FB6883F83520FB6893F83530DA
:104BE0001A46012393401A46FB689A632046FBF756
:104BF000F3FA09E0F868FFF789FE034605E0F86874
:104C0000FFF7F8FE034600E0002318461437BD46C0
:104C100090BD00BF7C2E0208C0F2010890B583B0A1
:104C200000AF78607B68002B05D14FF423721B49DD
:104C30001B48FEF727FD7B6893F8343003F00F0321
:104C4000012B02D04FF0FF3324E0FBF7C1FA0446FA
:104C50007B6893F834305BB223F00F035BB243F010
:104C600002035BB2DAB27B6883F834207868FFF71E
:104C700089FC7B684C33184600F0DAFA2046FBF7D3
:104C8000ABFA084B1B68002B03D0064B1B687868F7
:104C90009847002318460C37BD4690BD902E020859
:104CA000C0F201087408002090B583B000AF7860AE
:104CB0007B68002B05D140F2B62217491748FEF752
:104CC000E1FC7B6893F8343003F00F03022B02D031
:104CD0004FF0FF331BE0FBF77BFA04467B6814338D
:104CE0001846FFF704FD7B684C33184600F0A0FA25
:104CF0002046FBF771FA7868FFF704FC084B1B6845
:104D0000002B03D0064B1B68786898470023184691
:104D10000C37BD4690BD00BFA42E0208C0F20108AA
:104D20007808002080B584B000AF78607B68FB60B5
:104D3000FB68002B05D140F2E22211491148FEF731
:104D4000A1FCFB6893F8343003F00F03022B05D06D
:104D500040F2E3220A490C48FEF794FCFB686FF02E
:104D600001021A63FB6814331846FFF7C0FCF868A9
:104D7000FFF7C8FBFFF75CFB00BF1037BD4680BDE7
:104D8000B82E0208C0F2010824F3010880B483B0F1
:104D900000AF78607B687A685A607B685A687B6885
:104DA0001A6000BF0C37BD465DF8047B704780B4C5
:104DB00083B000AF786039607B681B683A685A60DE
:104DC0007B681A683B681A607B683A681A603B68BF
:104DD0007A685A6000BF0C37BD465DF8047B7047A7
:104DE00080B483B000AF78607B681B687A685268D3
:104DF0005A607B685B687A6812681A607B687A68B8
:104E00005A607B685A687B681A6000BF0C37BD46E1
:104E10005DF8047B704780B483B000AF78607B6836
:104E20001B687A689A420CBF01230023DBB2184644
:104E30000C37BD465DF8047B704780B586B000AF87
:104E4000F860B9607A603B60FB6897F820205A727E
:104E5000FB685B7A23F00103DAB2FB685A72FB68E5
:104E6000BA68DA61FB687A681A62FB6800229A62A3
:104E7000FB683A685A6200237B610BE07B6902336E
:104E8000DB00FA68134404331846FFF77FFF7B69A1
:104E900001337B617B69002BF0DD00BF1837BD4615
:104EA00080BD80B584B000AF78607868FFF7B3FF4D
:104EB0000346002B02D04FF0FF3305E07B681B68F0
:104EC000143BFB60FB689B6A18461037BD4680BDEB
:104ED00080B584B000AF78600023FB600BE0FB6816
:104EE0000233DB007A68134404331846FFF778FF77
:104EF000FB680133FB60FB68002BF0DD00BF10375F
:104F0000BD4680BD80B586B002AFF860B9607A60FA
:104F10003B60FB68002B04D1BC220A490A48FEF71B
:104F2000B1FBBA680921F868FFF76CF83B7F009382
:104F3000BB693A687968F868FFF77FFF00BF1037F0
:104F4000BD4680BDCC2E020878F3010890B583B031
:104F500000AF78607B68002B04D1D1220A490B484E
:104F6000FEF790FBFBF734F904467868FFF7B0FFD3
:104F70002046FBF731F97868FFF786F800231846DA
:104F80000C37BD4690BD00BFDC2E020878F3010847
:104F900080B588B002AFF860B9607A603B60F968AC
:104FA0000920FFF79BF878617B69002B01D1002372
:104FB00009E097F8203000933B687A68B96878690F
:104FC000FFF73BFF7B6918461837BD4680BD0000E0
:104FD00090B583B000AF78607B68002B05D14FF4AB
:104FE00087720A490A48FEF74DFBFBF7F1F80446C1
:104FF0007868FFF76DFF2046FBF7EEF87868FFF75B
:10500000D3F8002318460C37BD4690BDEC2E02089D
:1050100078F3010890B589B000AF78607B68002B09
:1050200005D14FF4987279497948FEF72BFBFBF7CD
:10503000CFF804467868FFF74BFF7B685B7A23F074
:105040000103DAB27B685A722046FBF7C5F8714B50
:105050001B68002B04D06F4B1B687A68104698477A
:105060007B685B6A6C4A934205D94FF4A07267492A
:105070006A48FEF707FBFBF7B1FF02467B685B6AF5
:105080001A447B689A62FBF7A3F804467B685B7A54
:1050900003F00403002B02D0614BBB6101E0614BC4
:1050A000BB61BB69BB600023FB6154E0FB699B00F3
:1050B00007F12002134453F8183C1B683B61FB695D
:1050C000DB0014335B423A691344FB60FB689A6A65
:1050D0007B689B6A9A4208D0FB689A6A7B689B6AE5
:1050E000D31A4D4A93421FD900E000BFFB699B00D1
:1050F00007F12002134453F8183C1A68FB699B001F
:1051000007F120010B4443F8182CFB699B0007F1C1
:105110002002134453F8182CFB69DB00B9690B44D7
:105120005B689A42C2D100E000BFFB69002B0FD040
:10513000FB699B0007F12002134453F8182CFB690C
:10514000013308329B0007F120010B4443F8182C6F
:10515000FB690133FB61FB69002BD6D0324B1B6826
:105160000133314A1360304B1B687B61BA687B683E
:10517000143319461046FFF71AFE0223FB611EE0A6
:105180007B6903F00303002B1DD1FB69C3F101030D
:105190009B0007F12002134453F8180CFB69C3F17C
:1051A00001030233DB007A68134404331946FFF726
:1051B000FEFD7B699B087B61FB690133FB61FB6939
:1051C000012BDDD900E000BF7B685B7A43F001036F
:1051D000DAB27B685A722046FAF7FEFF7B685B7A88
:1051E00003F00403002B0BD0104B93F8343003F082
:1051F0000F03012B04D00D48FFF756FDFFF718F9F8
:10520000002318462437BD4690BD00BFFC2E02087F
:1052100078F3010844200020FEFFFF7F8CF3010893
:105220008808002080080020140B0020900800202F
:1052300090B583B000AF78607B68002B05D14FF448
:10524000D47215491548FEF71DFA7B685B7A03F0A6
:105250000103002B02D14FF0FF3319E0104B1B6804
:10526000002B04D00E4B1B687A6810469847FAF75B
:10527000AFFF04467868FFF72BFE2046FAF7ACFF35
:105280007B685B7A23F00103DAB27B685A720023F1
:1052900018460C37BD4690BD0C2F020878F3010864
:1052A0004020002080B584B000AFF860B9607A601B
:1052B000FB68002B05D140F2C91219491948FEF7C5
:1052C000E1F9BB68032B25D801A252F823F000BFF7
:1052D000EB520008E1520008F5520008055300089F
:1052E000FB685A6A7B681A6014E07B681A68FB687E
:1052F0005A620FE0FB685B7A23F00203DAB2FB68C4
:105300005A7207E0FB685B7A43F00203DAB2FB688B
:105310005A7200BF002318461037BD4680BD00BF3B
:105320001C2F020878F3010890B583B000AFFBF79B
:1053300055FE7860FAF74CFF04463CE0254B1B68AD
:10534000143B3B603B689B6A7A68D31A224A9342BB
:1053500038D8224B1B68002B03D0204B1B683868C1
:1053600098473868FFF7B4FD3B68DB693A68126A12
:1053700010469847FBF732FE78603B685B7A03F093
:105380000203002B10D03B685B7A03F00103002B73
:105390000AD03B685B7A23F00103DAB23B685A72A9
:1053A0003868FFF737FE06E03B685B7A23F00103BD
:1053B000DAB23B685A720748FFF72DFD0346002B0F
:1053C000BCD000E000BF2046FAF706FF00BF0C3754
:1053D000BD4690BD80080020FEFFFF7F100B00201F
:1053E00080B584B000AFFBF7F9FDF860FFF702F974
:1053F000294B1B68BB6042E0BB68143B7B607B6849
:105400009B6AFA68D31A254A93423DD8244B1B68FD
:10541000002B03D0224B1B6878689847BB681B6839
:10542000BB607868FFF754FDFFF7FAF87B68DB692B
:105430007A68126A10469847FBF7D0FDF860FFF7CC
:10544000D9F87B685B7A03F00203002B10D07B68ED
:105450005B7A03F00103002B0AD07B685B7A23F0B0
:105460000103DAB27B685A727868FFF7D3FD06E071
:105470007B685B7A23F00103DAB27B685A72BB68FF
:10548000054A9342B8D100E000BFFFF7C9F800BF5A
:105490001037BD4680BD00BF88080020FEFFFF7F9B
:1054A000100B002080B584B000AF78601148FFF782
:1054B000F8FCF860FB68B3F1FF3F08D1FFF71AFA78
:1054C00003461846FFF7AAFBFEF7B2FF0FE0FBF713
:1054D00085FDB860FA68BB68D31A074A934206D8BC
:1054E000FA68BB68D31AFB60F868FFF72FFBFFF779
:1054F00077FFDBE788080020FEFFFF7F80B582B0E2
:1055000000AF00237B6009E07B68DB00074A13449F
:105510001846FFF73BFC7B6801337B607B68002B00
:10552000F2D000BF0837BD4680BD00BF8008002014
:1055300080B586B004AF00237B6009E07B68DB00A8
:10554000104A13441846FFF721FC7B6801337B6047
:105550007B68002BF2D00A230393042302934FF4B9
:1055600000730193084B00930023084A0849094837
:10557000FFF78AF90748FFF7C9F900BF0837BD46AA
:1055800080BD00BF8808002010090020A554000835
:10559000B0F301089008002080B400AF034B1B68F3
:1055A0001846BD465DF8047B704700BF180B00200D
:1055B00090B585B000AF786039607B68002B07D16B
:1055C0007A683B689A4214BF01230023DBB26CE087
:1055D0003B68002B0ED1012367E07B6893F9003014
:1055E000002B01D1002360E07B6801337B603B68C6
:1055F00001333B607B681B78FB7317F0F3FB0246BB
:1056000097F90F300133134493F90030DBB203F004
:105610000303012B04D197F90F3003F1200401E0BB
:1056200097F90F403B681B78BB7317F0DBFB024612
:1056300097F90E300133134493F90030DBB203F0D5
:105640000303012B03D197F90E30203301E097F9C2
:105650000E309C42C1D07B681B787B7317F0C2FB75
:1056600002467B7B0133134493F90030DBB203F035
:105670000303012B03D17B7B03F1200400E07C7B3F
:105680003B681B783B7317F0ADFB02463B7B013355
:10569000134493F90030DBB203F00303012B02D172
:1056A0003B7B203300E03B7BE31A18461437BD46B2
:1056B00090BD000080B584B000AF78607868FBF7DB
:1056C00019FC03460133FB60094B1B68F8689847D7
:1056D000B860BB68002B01D1002305E0FA68796847
:1056E000B86817F0BEFBBB6818461037BD4680BDD2
:1056F000A000002080B483B000AF78607B68002BEE
:1057000006D1104B104A1A60104B114A1A6013E070
:105710007B681B68002B02D07B681B6800E00A4B8B
:10572000084A13607B685B68002B02D07B685B686B
:1057300000E0074B054A13600C37BD465DF8047B5B
:10574000704700BFA000002001CE0108A400002087
:1057500011CE010880B582B000AF094B1B6828202C
:10576000984778607B68002B04D028220021786855
:1057700017F082FB7B6818460837BD4680BD00BF26
:10578000A000002080B584B000AF786037E07B686F
:105790001B68FB607B68DB6803F48073002B08D117
:1057A0007B689B68002B04D07B689B681846FFF7DA
:1057B000E9FF7B68DB6803F48073002B09D17B6809
:1057C0001B69002B05D0114B1B687A6812691046C3
:1057D00098477B68DB6803F40073002B09D17B6872
:1057E0001B6A002B05D0094B1B687A68126A1046A9
:1057F0009847064B1B6878689847FB687B607B6816
:10580000002BC4D100BF1037BD4680BDA4000020CE
:10581000B0B58AB000AF786039604FF000034FF048
:105820000004C7E908344FF000038D4CC7E9063483
:105830004FF000034FF00004C7E904340023FB607D
:105840000123BB603B6893F900302D2B07D14FF04B
:105850000003844CC7E906343B6801333B603B6876
:1058600093F90030302B02D13B6801333B603B6839
:1058700093F90030302B2CDD3B6893F90030392B45
:1058800027DC4FF00002784BD7E90801FAF7E6FE73
:1058900003460C4625461C463B685A1C3A6093F961
:1058A0000030303B1846FAF76FFE02460B462046A2
:1058B0002946FAF71DFD03460C46C7E908343B6844
:1058C00093F900302F2B04DD3B6893F90030392B1E
:1058D000D7DD3B6893F900302E2B41D13B68013373
:1058E00093F900302F2B3BDD3B68013393F90030F7
:1058F000392B35DC3B6801333B604FF000025A4BDB
:10590000D7E90801FAF7AAFE03460C4625461C46CD
:105910003B685A1C3A6093F90030303B1846FAF75E
:1059200033FE02460B4620462946FAF7E1FC0346C1
:105930000C46C7E908344FF00002494BD7E904018F
:10594000FAF7D4FC03460C46C7E904343B6893F9E4
:1059500000302F2B04DD3B6893F90030392BCCDD70
:105960003B6893F90030652B04D03B6893F9003015
:10597000452B2FD13B6801333B603B6893F90030E6
:105980002B2B03D13B6801333B6019E03B6893F953
:1059900000302D2B14D14FF0FF33BB603B68013337
:1059A0003B600DE0FA6813469B0013445B00194608
:1059B0003B685A1C3A6093F90030303B0B44FB6063
:1059C0003B6893F900302F2B04DD3B6893F90030DE
:1059D000392BE7DDD7E90823D7E90601FAF73EFEC0
:1059E00003460C4625461C46FB68BA6802FB03F3D7
:1059F0001846FAF7C9FDD7E90423FAF779FC0246FD
:105A00000B4643EC172BB0EE471AF0EE671A9FEDEA
:105A1000120B18F00DF853EC102B20462946FAF71C
:105A20001DFE03460C46C7E908347A68D7E90834F6
:105A3000C2E90634D7E90801FBF7AAF802467B68F9
:105A40005A617B680322DA603B6818462837BD46F6
:105A5000B0BD00BFAFF30080000000000000244094
:105A60000000F03F0000F0BF0000244080B483B08D
:105A700000AF78607B68013B7B607B685B107A6875
:105A800013437B607B689B107A6813437B607B6861
:105A90001B117A6813437B607B681B127A6813437F
:105AA0007B607B681B147A6813437B607B680133DF
:105AB00018460C37BD465DF8047B704780B584B04E
:105AC00000AF786039607B68002B03D07B681B686F
:105AD000002B01D1002346E07B689B683A681344A1
