:020000040800F2
:100000000006001059A90208F1110208D3020008E5
:100010000112020809120208111202080000000071
:10002000000000000000000000000000191202089B
:10003000A9A90208000000001B02000801CD010868
:10004000A9A90208A9A90208A9A90208A9A9020840
:10005000A9A90208A9A90208F9FD010811FE0108D1
:1000600029FE010841FE010859FE0108A9A902085C
:10007000A9A90208A9A90208A9A90208A9A9020810
:10008000A9A90208A9A90208A9A90208A9A9020800
:10009000A9A90208A9A90208A9A9020871FE0108D4
:1000A000A9A90208A9A90208A9A90208A9A90208E0
:1000B00029E9010801E90108EDE80108A9A90208F8
:1000C000A9A90208A9A90208A9A90208A9A90208C0
:1000D000A9A90208690B0208B90B0208090C020859
:1000E000A5FE0108A9A90208A9A90208A9A9020850
:1000F000A9A90208A9A9020815E90108A9A90208E5
:10010000A9A90208A9A90208A9A90208A9A902087F
:10011000590C0208A9A9020805F50108A9A90208B5
:10012000A9A90208A9A90208A9A90208A9A902085F
:10013000A9A90208A9A90208A9A90208A9A902084F
:10014000A9A90208A9A90208A9A9020891100208F0
:10015000A9A90208A9A90208A9A90208A9A902082F
:10016000A9A90208A9A90208A9A90208A9A902081F
:10017000A9A90208A9A90208A9A90208000000006B
:08018000A9A90208A9A90208BF
:1001900010B5054C237833B9044B13B10448AFF3C1
:1001A00000800123237010BD3406002000000000F1
:1001B00058D70208084B10B51BB108490848AFF3DF
:1001C00000800848036803B910BD074B002BFBD023
:1001D000BDE81040184700BF0000000038060020AE
:1001E00058D702083406002000000000EFF310800A
:1001F00072B6704780F3108870473B4A1368012B32
:1002000004D04FF001031360384A1060384A11607F
:1002100038484FF0805101607047EFF3108272B69A
:100220003148016851B34FF0000101602F48016867
:1002300091B1EFF309811EF0100F08BF21ED108B73
:1002400021E9F00F4FF000041EF0100F08BF012449
:1002500041F8044D0068016025490968096808C92A
:10026000B1E8F00F002B18BFB1EC108B81F30988B7
:100270004EF0100E002B18BF2EF0100E82F31088D7
:100280004EF0040E70471A490860EFF3148222F012
:10029000040282F3148815494FF0000008601249E7
:1002A0004FF00100086014484FF47F01D0F800209F
:1002B00041EA020101600F484FF0805101600F4890
:1002C0000068006800BF80F3088861B662B67047B6
:1002D00000BFEFF3098000B506F0D6F95DF804EB36
:1002E0004EF0040E70470000803D00207C3D002051
:1002F000783D002004ED00E020ED00E008ED00E096
:1003000081F0004102E000BF83F0004330B54FEAC6
:1003100041044FEA430594EA050F08BF90EA020F33
:100320001FBF54EA000C55EA020C7FEA645C7FEAC6
:10033000655C00F0E2804FEA5454D4EB5555B8BFE9
:100340006D420CDD2C4480EA020281EA030382EA5A
:10035000000083EA010180EA020281EA0303362DEC
:1003600088BF30BD11F0004F4FEA01314FF4801CBF
:100370004CEA113102D0404261EB410113F0004FD1
:100380004FEA03334CEA133302D0524263EB430388
:1003900094EA050F00F0A780A4F10104D5F1200E26
:1003A0000DDB02FA0EFC22FA05F2801841F1000181
:1003B00003FA0EF2801843FA05F359410EE0A5F155
:1003C00020050EF1200E012A03FA0EFC28BF4CF086
:1003D000020C43FA05F3C01851EBE37101F000453C
:1003E00007D54FF0000EDCF1000C7EEB00006EEB49
:1003F0000101B1F5801F1BD3B1F5001F0CD34908D3
:100400005FEA30004FEA3C0C04F101044FEA445229
:1004100012F5800F80F09A80BCF1004F08BF5FEAB0
:10042000500C50F1000041EB045141EA050130BD90
:100430005FEA4C0C404141EB010111F4801FA4F133
:100440000104E9D191F0000F04BF01460020B1FA88
:1004500081F308BF2033A3F10B03B3F120020CDAC0
:100460000C3208DD02F1140CC2F10C0201FA0CF09E
:1004700021FA02F10CE002F11402D8BFC2F1200C03
:1004800001FA02F120FA0CFCDCBF41EA0C019040B9
:10049000E41AA2BF01EB0451294330BD6FEA040402
:1004A0001F3C1CDA0C340EDC04F11404C4F12002ED
:1004B00020FA04F001FA02F340EA030021FA04F3FF
:1004C00045EA030130BDC4F10C04C4F1200220FA56
:1004D00002F001FA04F340EA0300294630BD21FA94
:1004E00004F0294630BD94F0000F83F4801306BF5A
:1004F00081F480110134013D4EE77FEA645C18BF4E
:100500007FEA655C29D094EA050F08BF90EA020FE4
:1005100005D054EA000C04BF1946104630BD91EADC
:10052000030F1EBF0021002030BD5FEA545C05D1DF
:100530004000494128BF41F0004130BD14F580041E
:100540003CBF01F5801130BD01F0004545F0FE4192
:1005500041F470014FF0000030BD7FEA645C1ABFC7
:10056000194610467FEA655C1CBF0B46024650EAFE
:10057000013406BF52EA033591EA030F41F400212A
:1005800030BD00BF90F0000F04BF0021704730B5B0
:100590004FF4806404F132044FF000054FF0000185
:1005A00050E700BF90F0000F04BF0021704730B546
:1005B0004FF4806404F1320410F0004548BF40421B
:1005C0004FF000013EE700BF42004FEAE2014FEA70
:1005D00031014FEA02701FBF12F07F4393F07F4F4B
:1005E00081F06051704792F0000F14BF93F07F4F7D
:1005F000704730B54FF4607401F0004521F00041C0
:1006000020E700BF50EA010208BF704730B54FF045
:1006100000050AE050EA010208BF704730B511F04A
:10062000004502D5404261EB41014FF4806404F182
:1006300032045FEA915C3FF4DCAE4FF003025FEA04
:10064000DC0C18BF03325FEADC0C18BF033202EB8C
:10065000DC02C2F1200300FA03FC20FA02F001FAE6
:1006600003FE40EA0E0021FA02F11444C1E600BF85
:100670004FF0FF3C06E000BF4FF0010C02E000BF6E
:100680004FF0010C4DF804CD4FEA410C7FEA6C5C51
:100690004FEA430C18BF7FEA6C5C1BD001B050EAF4
:1006A000410C0CBF52EA430C91EA030F02BF90EADF
:1006B000020F0020704710F1000F91EA030F58BF9E
:1006C000994208BF90422CBFD8176FEAE37040F000
:1006D000010070474FEA410C7FEA6C5C02D150EA9E
:1006E000013C07D14FEA430C7FEA6C5CD6D152EA59
:1006F000033CD3D05DF8040B704700BF844610461E
:1007000062468C461946634600E000BF01B5FFF71C
:10071000B7FF002848BF10F1000F01BD4DF808EDEC
:10072000FFF7F4FF0CBF012000205DF808FB00BFBD
:100730004DF808EDFFF7EAFF34BF012000205DF817
:1007400008FB00BF4DF808EDFFF7E0FF94BF012064
:1007500000205DF808FB00BF4DF808EDFFF7CEFF65
:1007600094BF012000205DF808FB00BF4DF808EDA4
:10077000FFF7C4FF34BF012000205DF808FB00BF75
:1007800053B94AB9002908BF00281CBF4FF0FF31F8
:100790004FF0FF3000F07EB9ADF1080C6DE904CEEA
:1007A00000F006F8DDF804E0DDE9022304B070474C
:1007B0002DE9F0478C460E460446089D002B50D18B
:1007C0008A4217466CD9B2FA82FEBEF1000F0BD0F6
:1007D000CEF1200420FA04F401FA0EF644EA060CE5
:1007E00002FA0EF700FA0EF44FEA1749220CBCFB8E
:1007F000F9F01FFA87F809FB10C642EA064600FB2B
:1008000008F3B34209D9F61900F1FF3280F02281D2
:10081000B34240F21F8102383E44F61AA2B2B6FB40
:10082000F9F309FB136642EA064403FB08F8A04506
:1008300009D9E41903F1FF3280F00A81A04540F2A2
:100840000781023B3C44C8EB040443EA004000211A
:10085000002D62D024FA0EF400232C606B60BDE8FA
:10086000F0878B4207D9002D55D0002185E8410043
:100870000846BDE8F087B3FA83F1002940F0908084
:10088000B34202D3824200F2F880841A66EB030678
:100890000120B446002D40D085E81010BDE8F08757
:1008A00012B90127B7FBF2F7B7FA87FEBEF1000FC6
:1008B00035D1F31B4FEA17481FFA87FC0121B3FB20
:1008C000F8F0220C08FB103642EA06460CFB00F357
:1008D000B34207D9F61900F1FF3202D2B34200F257
:1008E000CE801046F61AA2B2B6FBF8F308FB1366E8
:1008F00042EA06440CFB03FCA44507D9E41903F1C2
:10090000FF3202D2A44500F2B5801346CCEB0404BA
:1009100043EA00409CE729462846BDE8F087CEF12F
:10092000200106FA0EF307FA0EF720FA01F94FEA52
:100930001748CE4049EA0309B6FBF8FA4FEA1944D2
:1009400008FB1A661FFA87FC44EA06430AFB0CF20E
:100950009A4200FA0EF40AD9DB190AF1FF3180F04D
:1009600087809A4240F28480AAF1020A3B449B1A93
:100970001FFA89F9B3FBF8F108FB113349EA034385
:1009800001FB0CF69E4207D9DB1901F1FF326BD255
:100990009E4269D902393B449B1B41EA0A418EE7DA
:1009A000C1F1200E22FA0EF48B40234320FA0EF7F9
:1009B00006FA01F44FEA134C26FA0EF63C43B6FB56
:1009C000FCF9270C0CFB19661FFA83F847EA064668
:1009D00009FB08F7B74202FA01F200FA01FA08D956
:1009E000F61809F1FF3041D2B7423FD9A9F1020907
:1009F0001E44F61BA0B2B6FBFCF40CFB146640EAE6
:100A0000064704FB08F8B84507D9FF1804F1FF3082
:100A100028D2B84526D9023C1F4444EA0940C8EB15
:100A20000707A0FB02894F4544464E4614D329D000
:100A300065B3BAEB040367EB060707FA0EFECB407B
:100A4000CF404EEA030385E888000021BDE8F08727
:100A50001346F8E61046E0E6B8EB020469EB03063D
:100A60000138E5E70446D8E7114695E78146C0E737
:100A70008A467CE7023B3C4448E708460AE70238DE
:100A80003E442FE7C245E7D33E46D1E72946BDE8BD
:100A9000F08700BF704700BF0000000000000000AA
:100AA00001F0FF01102A2BDB10F0070F08D010F81F
:100AB000013B013A8B422DD010F0070F42B3F6D123
:100AC000F0B441EA012141EA014122F007047FF03C
:100AD00000070023F0E80256083C85EA010586EA93
:100AE000010685FA47F5A3FA87F586FA47F6A5FACF
:100AF00087F68EB9EED1F0BC01F0FF0102F00702DB
:100B000032B110F8013B013A83EA010313B1F8D185
:100B10000020704701387047002D06BF3546033866
:100B2000073815F0010F07D1013015F4807F02BF9F
:100B3000013015F4C03F0130F0BC0138704700BFF0
:100B400010F8012B11F8013B012A28BF9A42F7D077
:100B5000D01A7047034613F8012B002AFBD1181A4C
:100B60000138704780B400AF034B1B681846BD4680
:100B70005DF8047B704700BF5006002080B582B04E
:100B800000AF0E4B1B6801330C4A136003F01EFDCF
:100B900078607B689B6C5A1E7B689A647B689B6C50
:100BA000002B05D17B685A6C7B689A6403F0C6FD04
:100BB00004F02AFA00BF0837BD4680BD5006002069
:100BC00080B485B000AF78607B68002B03DA4FF00B
:100BD000FF33FB600DE07B684FF47A7202FB03F396
:100BE00003F2E733064A82FB03129211DB17D31A92
:100BF000FB60FB6818461437BD465DF8047B704700
:100C0000D34D621080B400AF00231846BD465DF896
:100C1000047B704780B400AF00231846BD465DF8E2
:100C2000047B704780B400AF00231846BD465DF8D2
:100C3000047B704780B400AF00231846BD465DF8C2
:100C4000047B704780B582B000AF084B7B6005E045
:100C50007B681B6898477B6804337B607B68044A29
:100C60009342F5D300BF0837BD4680BD8C5A0308B8
:100C7000A05A030880B582B000AF084B7B6005E046
:100C80007B681B6898477B6804337B607B68044AF9
:100C90009342F5D300BF0837BD4680BDA05A030874
:100CA000EC5A030880B500AFFFF7A0FA00F036F861
:100CB0000023184680BD00BF80B582B000AF7860C9
:100CC000FFF7D8FF26F0E8FB00BF0837BD4680BD20
:100CD00080B584B002AF142301930A2300934FF42C
:100CE0008063002209490A4803F0BEFC78607B68F3
:100CF000002B04D1D1220749074802F027FB78686E
:100D000003F070FC00BF0837BD4680BDB90C000879
:100D100070D70208B428030878D7020880B500AF5E
:100D2000FFF764FA1CF046F801F0F2FD04F056FA01
:100D300003F09EF9FFF7CCFF04F06AFA00F0B6FA70
:100D400003F0C0F90023184680BD00BF80B483B013
:100D500000AF78607B687A685A607B685A687B6805
:100D60001A6000BF0C37BD465DF8047B704700BFBA
:100D700080B584B000AFF860B9601346FB80FB68B3
:100D8000002B02D14FF0FF3320E0B86800F03CF8B0
:100D90000346002B02D04FF0FF3317E0FB68BA6820
:100DA0000821184602F094FFFB68FA88DA82FB6893
:100DB00000229A76FB6800221A83FB680022DA631D
:100DC000FB6840331846FFF7C1FF00231846103771
:100DD000BD4680BD80B582B000AF78607B68002BD7
:100DE00004D14D220649074802F0B0FA7B68184644
:100DF00002F0B0FF002318460837BD4680BD00BF93
:100E0000C828030888D7020880B586B000AF78608C
:100E100003F0DCFB0346002B01D003F053FA08205B
:100E200002F032FF38613B69002B04D1752218496A
:100E3000184802F08BFA3B695B687B6117E07B69BD
:100E40000C3BFB60FB6808227968184601F0D8FC6F
:100E50000346002B08D103F0B9FB0346002B01D059
:100E600003F046FAFB680FE07B691B687B613B6916
:100E70001A1D7B699A42E2D103F0A8FB0346002BBE
:100E800001D003F035FA002318461837BD4680BD5F
:100E9000E028030898D7020880B584B000AF7860D6
:100EA0000B467B800023FB607B68002B04D1E8228B
:100EB0003549364802F04AFA7B68DB8A03F01003B2
:100EC000002B1AD17B685B6A002B0FD07B685B6AB2
:100ED00078689847F860FB68002B07D07B68FA6851
:100EE00019462B4802F0A8F9FB6848E07B68DB8ACA
:100EF00043F010039AB27B68DA827B68DB8A03F0E6
:100F00000803002B08D07B681B8B03F00803002B21
:100F100002D06FF0060332E07B689B6A002B07D09B
:100F20007B689B6A7A88114678689847F86007E082
:100F30007B8823F0F0031B051B0D9AB27B681A8394
:100F4000FB68002B03D0FB6813F1060F16D17B68FA
:100F50001B8B43F008039AB27B681A837B689B7EE5
:100F60000133DAB27B689A767B689B7E002B05D1D1
:100F70004FF48B720449074802F0E8F9FB68184601
:100F80001037BD4680BD00BFF028030888D702088F
:100F9000B0D70208E8D7020880B584B000AF786007
:100FA0000023FB607B68002B05D14FF49472174936
:100FB000174802F0CBF97B689B7E002B02D14FF0E3
:100FC000FF331FE07B689B7E013BDAB27B689A7639
:100FD0007B689B7E002B01D0002313E07B68DB6ADB
:100FE000002B04D07B68DB6A78689847F860FB6860
:100FF000002B03D0FB6813F1060F02D17B6800229F
:101000001A83FB6818461037BD4680BD00290308C7
:1010100088D7020890B585B000AFF860B9607A60F3
:101020003B60FB68002B05D140F251121149124878
:1010300002F08CF9FB689B7E002B05D14FF0FF304E
:1010400001F080FA002311E0FB681B6B002B08D035
:10105000FB681C6B3B687A68B968F868A047034670
:1010600004E06FF0050001F06DFA00231846143714
:10107000BD4690BD1029030888D7020890B585B0F9
:1010800000AFF860B9607A603B60FB68002B05D167
:1010900040F277121149124802F058F9FB689B7E22
:1010A000002B05D14FF0FF3001F04CFA002311E086
:1010B000FB685B6B002B08D0FB685C6B3B687A6855
:1010C000B968F868A047034604E06FF0050001F036
:1010D00039FA002318461437BD4690BD202903086D
:1010E00088D7020880B584B000AFF860B9607A6034
:1010F000FB68002B05D140F297120B490B4802F018
:1011000025F9FB689B6B002B07D0FB689B6B7A680B
:10111000B968F8689847034601E06FF00503184680
:101120001037BD4680BD00BF3029030888D70208AC
:1011300080B582B000AF786039607B68002B05D144
:101140004FF4D8720549064802F000F97B683A6806
:10115000DA61002318460837BD4680BD44290308DC
:1011600088D7020880B483B000AF78607B681B68C2
:101170007A6852685A607B685B687A6812681A609D
:101180007B687A685A607B685A687B681A6000BF1F
:101190000C37BD465DF8047B704700BF80B483B058
:1011A00000AF084B7B607B681A687B689A4214BF6B
:1011B00001230023DBB218460C37BD465DF8047BE3
:1011C000704700BF703D002080B584B000AF4CE098
:1011D000FFF70CF8F86001F0A9F90346002B08D0DE
:1011E0002649274802F028F866222449254802F0BB
:1011F000ADF8F868FEF7FEFFFEF7F8FFB860FFF7FE
:10120000CDFF0346002B21D01F4B1B68143B7B6096
:101210007B6814331846FFF7A5FF03F053F87B688B
:101220009B6F002B03D07B689B6F7868984778682A
:1012300002F05AFE0346012B05D103F059F8B868B5
:10124000FEF7D8FF16E003F053F803E0B868FEF7A6
:10125000D1FF0FE0B868FEF7CDFF7B689B6A1846A8
:1012600002F0F6FB786802F005FEFFF797FF0346F1
:10127000002BADD11037BD4680BD00BF60290308EB
:10128000FCD7020824D80208703D002080B582B047
:1012900000AF7860044B1B68002B02D0024B1B6828
:1012A0009847FFF791FFF5E7D407002080B584B099
:1012B00004AF202303931F2302934FF48073019301
:1012C000064B00930023064A0649074803F048F9F5
:1012D000054803F087F900BFBD4680BDD406002055
:1012E0008D12000828D802085406002080B483B06C
:1012F00000AF78607B687A685A607B685A687B6860
:101300001A6000BF0C37BD465DF8047B704700BF14
:1013100080B483B000AF786039607B685B683A68FE
:101320001A607B685A683B685A607B683A685A6002
:101330003B687A681A6000BF0C37BD465DF8047BD5
:10134000704700BF80B483B000AF78607B681A68D4
:101350007B689A420CBF01230023DBB218460C378E
:10136000BD465DF8047B704780B582B000AF786001
:101370007B6814331846FFF7B9FF00231846083777
:10138000BD4680BD80B586B000AFF860B960134639
:10139000FB71B86803F0AEFAFB79002B02D0012B89
:1013A00007D031E0BB6814331946F868FFF7B0FF87
:1013B0002AE0FB681B687B6117E07B69143B3B619B
:1013C000BB6893F835203B6993F835309A4209D2CF
:1013D0003B6903F11402BB68143319461046FFF74A
:1013E00097FF06E07B691B687B617A69FB689A421C
:1013F000E3D17A69FB689A4205D1BB681433194678
:10140000F868FFF785FF00BF002318461837BD4670
:1014100080BD00BF80B584B000AF78607B681B687A
:10142000143BFB60F86803F0ABFA00231846103752
:10143000BD4680BD90B585B000AF786012E0FEF784
:10144000D5FE03461C467B681B68143BFB60FB68AB
:101450004FF0FF321A63F86803F092FA23461846F9
:10146000FEF7C8FE7868FFF76DFF0346002BE6D055
:10147000002318461437BD4690BD00BF80B584B028
:1014800000AFF860B9607A60FB70FB68002B04D194
:10149000D8220D490D4801F059FFFB68BA680121B7
:1014A000184602F015FCFB681846FFF75DFF7B68E5
:1014B0009AB2FB689A83FB68FA785A72002318463E
:1014C0001037BD4680BD00BF7829030830D8020818
:1014D00080B582B000AF78607B68002B04D1F52224
:1014E0000849094801F032FF7B6814331846FFF7BA
:1014F000A1FF7B68184602F02DFC00231846083730
:10150000BD4680BD8429030830D8020880B586B066
:1015100000AFF860B9601346FB71FEF767FE7861B3
:1015200001F004F80346002B09D01349134801F0D9
:1015300083FE40F211121049114801F007FF78694B
:10154000FEF758FEF968012002F02EFC38613B6975
:10155000002B01D13B690BE03B691846FFF704FF04
:10156000BB689AB23B699A833B69FA795A723B69C4
:1015700018461837BD4680BD9429030840D8020894
:1015800068D8020890B587B000AF786039607B6892
:10159000002B05D140F24D124449454801F0D6FEDA
:1015A000444B1B68002B04D0424B1B687A681046E2
:1015B0009847FEF71BFE04467B689B8B002B09D0E7
:1015C0007B689B8B013B9AB27B689A832046FEF72F
:1015D00011FE5CE03B68002B05D12046FEF70AFEB9
:1015E0006FF001035DE0FEF701FE786102F0EEFFAF
:1015F0000346002B09D12D492F4801F01DFE40F272
:101600006D122A492D4801F0A1FEFEF7EFFD386169
:1016100000F08CFF0346002B09D02449284801F034
:101620000BFE40F26D122149244801F08FFE38690B
:10163000FEF7E0FD7869FEF7DDFD02F0C7FFF86018
:10164000FB6800221A637B6803F114007B685B7AF5
:101650001A46F968FFF796FE3B68002B0BDDFB6826
:101660004C333A460021184603F08CFCFB684C339F
:10167000184603F03FFB2046FEF7BCFD02F040FD9C
:10168000FB681B6B002B02D0FB681B6B09E00D4B4A
:101690001B68002B04D00B4B1B687A6810469847D8
:1016A000002318461C37BD4690BD00BFA42903087F
:1016B00030D80208603C00206CD8020868D80208C4
:1016C00040D802085C3C0020B0B582B000AF786022
:1016D000164B1B68002B04D0144B1B687A6810460D
:1016E00098470024FEF782FD05467B6814331846B0
:1016F000FFF728FE0346002B06D17B6814331846FB
:10170000FFF788FE012405E07B689B8B01339AB2CA
:101710007B689A832846FEF76DFD012C01D102F00B
:10172000EFFC002318460837BD46B0BD583C0020EA
:1017300080B586B000AFF860B9607A60FB68002BB6
:1017400005D14FF4F2721249124801F0FFFDBB6857
:10175000012B16D17B687B61FEF748FD03463B6198
:10176000FB6814331846FFF765FE7B699AB2FB6885
:101770009A833B691846FEF73DFD02F0C1FC002349
:1017800001E04FF0FF3318461837BD4680BD00BF5B
:10179000B029030830D8020880B584B000AFF860E3
:1017A000B9601346FB71FB68002B05D140F20F2294
:1017B0001049114801F0CAFDFB68BA6802211846B9
:1017C00002F086FAFB681846FFF7CEFDFB6801229F
:1017D0009A83FB6800221A62FB68FF229A77FB68F3
:1017E0000022DA77FB68FA795A720023184610371C
:1017F000BD4680BDC0290308A4D8020880B582B0C8
:1018000000AF78607B68002B05D140F22E22094999
:10181000094801F09BFD7B6814331846FFF70AFE68
:101820007B68184602F096FA002318460837BD4632
:1018300080BD00BFD0290308A4D8020880B584B0B9
:1018400000AF78600B46FB70FEF7D0FCF86000F04C
:101850006DFE0346002B09D01749184801F0ECFC37
:1018600040F249221449164801F070FDF868FEF76D
:10187000C1FC7968022002F097FAB860BB68002BBF
:1018800001D1BB6813E0BB681846FFF76DFDBB686C
:1018900001229A83BB6800221A62BB68FF229A77F2
:1018A000BB680022DA77BB68FA785A72BB681846C0
:1018B0001037BD4680BD00BFE029030840D80208AC
:1018C00068D8020880B584B000AF7860FEF78EFC5F
:1018D000F86000F02BFE0346002B09D01149124896
:1018E00001F0AAFC40F26A220E49104801F02EFDD8
:1018F000F868FEF77FFC7B68002B05D14FF41B7264
:1019000008490B4801F022FD7B6814331846FFF7A5
:1019100091FD7B68184602F0ADFA00231846103797
:10192000BD4680BDF029030840D8020868D80208E7
:10193000A4D8020890B587B000AF78603960FEF790
:1019400055FC786102F042FE0346002B09D15F4945
:101950005F4801F071FC4FF422725C495D4801F070
:10196000F5FCFEF743FC386100F0E0FD0346002B78
:1019700009D05649584801F05FFC4FF42272534990
:10198000544801F0E3FC3869FEF734FC7869FEF74F
:1019900031FC7B68002B05D140F28A224B494F482D
:1019A00001F0D4FC02F012FEF860FEF71FFC0446C2
:1019B0004B4B1B68002B04D0494B1B687A681046C0
:1019C0009847FB6800221A637B681A6AFB689A4290
:1019D00006D17B68DB7F0133DAB27B68DA7763E0BC
:1019E0007B689B8B002B14D07B689B8B013B9AB24E
:1019F0007B689A837B68FA681A62FB6893F83520E3
:101A00007B689A777B68DB7F0133DAB27B68DA77B1
:101A10004AE03B68002B09D1FB686FF001021A63B2
:101A20002046FEF7E7FB6FF001034AE0FB6893F8FE
:101A300035207B681B6A93F835309A4207D27B6861
:101A4000186AFB6835331A46022102F0F7FE7B68FC
:101A500003F114007B685B7A1A46F968FFF792FC81
:101A60003B68002B0BDDFB684C333A4600211846DF
:101A700003F088FAFB684C33184603F03BF9204624
:101A8000FEF7B8FB02F03CFBFB681B6B002B08D099
:101A9000FB681B6B13F1090F00D1A1E7FB681B6BFF
:101AA0000FE0FEF7A3FB04462046FEF7A3FB0D4B19
:101AB0001B68002B04D00B4B1B687A6810469847B4
:101AC000002318461C37BD4690BD00BF002A0308FE
:101AD0006CD8020868D8020840D80208A4D80208C6
:101AE000603C00205C3C002090B587B000AF78607F
:101AF00000237B61FEF77AFB386102F067FD034645
:101B0000002B09D14A494B4801F096FB40F21132B3
:101B10004749494801F01AFCFEF768FBF86000F0FD
:101B200005FD0346002B09D04149444801F084FBE0
:101B300040F211323E49404801F008FCF868FEF7D7
:101B400059FB3869FEF756FB02F040FDB860FEF71E
:101B50004DFB04463A4B1B68002B04D0384B1B68E6
:101B60007A68104698477B681A6ABB689A4209D01F
:101B7000BB684FF0FF321A632046FEF73BFB4FF085
:101B8000FF3350E07B68DB7F013BDAB27B68DA77BA
:101B90007B68DB7F002B3DD17B689A7F7B681B6A6B
:101BA00093F835309A4207D07B68186A7B681E33F9
:101BB0001A46022102F042FE7B6814331846FFF7F2
:101BC000C1FB0346002B19D17B685B69143BBB60EA
:101BD0007B68BA681A62BB6893F835207B689A778D
:101BE0007B68DB7F0133DAB27B68DA777B6814339A
:101BF0001846FFF70FFC01237B610BE07B689B8B92
:101C000001339AB27B689A837B6800221A627B68F0
:101C1000FF229A772046FEF7EDFA7B69012B01D16E
:101C200002F06EFA002318461C37BD4690BD00BF77
:101C3000102A03086CD8020868D8020840D80208A5
:101C4000583C002080B584B000AFF860B9601346FE
:101C5000FB71FB68002B05D140F27F320C490D4827
:101C600001F074FBFB68BA680321184602F030F8F3
:101C7000FB68FA795A72FB681846FFF775FBFB6838
:101C80000022DA61002318461037BD4680BD00BF30
:101C9000242A0308B8D8020880B584B000AF786061
:101CA0000B46FB70FEF7A2FAF86000F03FFC03461B
:101CB000002B09D01249134801F0BEFA4FF46D729F
:101CC0000F49114801F042FBF868FEF793FA796872
:101CD000032002F069F8B860BB68002B01D1BB6833
:101CE0000AE0BB68FA785A72BB681846FFF73CFBFB
:101CF000BB680022DA61BB6818461037BD4680BD5C
:101D0000342A030840D8020868D8020880B584B095
:101D100000AF78607B68002B05D140F2D2321349C6
:101D2000134801F013FBFEF761FAF86000F0FEFBC8
:101D30000346002B09D00D490E4801F07DFA4FF4FF
:101D400075720A490C4801F001FBF868FEF752FA77
:101D50007B6814331846FFF76DFB7B68184602F06A
:101D600089F8002318461037BD4680BD442A030871
:101D7000B8D8020840D8020868D80208B0B586B0C2
:101D800000AF786039607B68002B05D140F2F332F8
:101D90004249434801F0DAFA3B68002B02D14FF088
:101DA000FF3376E000233B61FEF720FA03461D4631
:101DB0007B68DA693B681A437B68DA61394B1B68D8
:101DC000002B04D0374B1B687A68104698477B6815
:101DD00014331846FFF7B6FA0346002B4FD17B6841
:101DE0005B697B6145E07B69143BFB604FF0FF342E
:101DF000FB6893F8403003F00103002B0AD0FB6826
:101E0000DA6B7B68DB691A40FB68DB6B9A4217D19F
:101E1000002415E0FB6893F8403003F00203002B28
:101E20000ED0FB68DA6B7B68DB691340002B07D0B0
:101E3000FB68DA6B7B68DB691A40FB68DA630024B5
:101E40007B691B687B61002C13D1FB6893F84030E1
:101E500003F00403002B07D07B68DA69FB68DB6BB7
:101E6000DB431A407B68DA61F86802F089FD0123E0
:101E70003B617B6803F114027B699A42B3D12B4624
:101E80001846FEF7B7F93B69012B01D102F038F98A
:101E9000002318461837BD46B0BD00BF542A0308BA
:101EA000B8D80208583C0020B0B588B000AFF86040
:101EB000B9603B601346FB71FEF798F9F86102F0D8
:101EC00085FB0346002B09D16849694801F0B4F944
:101ED00040F254426549674801F038FAFEF786F946
:101EE000B86100F023FB0346002B09D05F4962482C
:101EF00001F0A2F940F254425C495E4801F026FA32
:101F0000B869FEF777F9F869FEF774F9FB68002BFA
:101F100005D140F257425549584801F017FABB68BD
:101F2000002B02D14FF0FF339BE04FF0FF3402F063
:101F30004DFB78617B6900221A63514B1B68002BB3
:101F400004D04F4B1B68FA6810469847FEF74EF9CD
:101F500003461D46FB7903F00103002B08D0FB6804
:101F6000DA69BB681A40BB689A4214D1002412E0B7
:101F7000FB7903F00203002B07D0FB68DA69BB682A
:101F80001340002B07D0002405E040F2754237498A
:101F9000384801F0DBF9002C15D13B6B002B05D044
:101FA000FB68DA69BB681A403B6B1A60FB7903F087
:101FB0000403002B46D0FB68DA69BB68DB431A4098
:101FC000FB68DA613EE03B68002B04D17B696FF06F
:101FD00001021A6336E07B69BA68DA637B69FA79D1
:101FE00083F84020FB6803F11400FB685B7A1A4613
:101FF0007969FFF7C7F93B68002B0BDD7B694C3330
:102000003A460021184602F0BDFF7B694C33184662
:1020100002F070FE2B461846FEF7ECF802F070F85E
:102020007B691B6B002B02D07B691B6B19E0FEF7F1
:10203000DDF803461D463B6B002B03D07B69DA6B52
:102040003B6B1A602B461846FEF7D4F80D4B1B6805
:10205000002B04D00B4B1B68FA68104698477B692D
:102060001B6B18462037BD46B0BD00BF642A03086D
:102070006CD8020868D8020840D80208B8D802080C
:10208000603C00205C3C002090B587B000AFF86059
:10209000B9607A603B60FB68002B05D140F2DC62DE
:1020A0002749284801F052F9FB68BA68052118460B
:1020B00001F00EFEFB6897F82C205A72FB68184658
:1020C000FFF752F9FB687A68DA613B689BB2033329
:1020D0009BB223F003039AB2FB681A84FB681B8C43
:1020E0000433BA6AB2FBF3F39AB2FB685A84FB6812
:1020F00000229A62FB680022DA62FB6800221A63FF
:10210000002411E0FB68DA69FB681B8C043321466C
:1021100001FB03F313447B61FB681A6B7B691A6054
:10212000FB687A691A630134FB685B8CA342E9DCC3
:10213000FB6800229A84002318461C37BD4690BDD8
:10214000742A0308DCD8020890B587B000AFF860A5
:10215000B9607A60FB68002B05D14FF4F262424906
:10216000424801F0F3F8BB68002B05D140F29172B0
:102170003D493F4801F0EAF87B68002B05D140F269
:10218000927239493B4801F0E1F8FB681B8C1A4612
:102190007B689A4202D24FF0FF3361E0364B1B68F6
:1021A000002B04D0344B1B68FA6810469847FEF7A2
:1021B0001DF803461C46FB681B6B7B617B69002B8B
:1021C00006D123461846FEF715F86FF0020347E0E4
:1021D0007B691A68FB681A6323461846FEF70AF8FB
:1021E0007B6900221A607B6904337A68B9681846F3
:1021F00000F024FAFDF7FAFF03461C46FB68DB6A91
:10220000002B03D0FB68DB6A7A691A60FB687A6985
:10221000DA62FB689B6A002B02D1FB687A699A62DA
:10222000FB689B8C01339AB2FB689A84FB68143379
:102230001846FFF787F80346002B0CD1FB681433D0
:102240001846FFF7E7F823461846FDF7D3FF01F0DD
:1022500057FF002304E023461846FDF7CBFF002379
:1022600018461C37BD4690BD802A0308DCD80208FA
:10227000ECD8020800D90208583C002090B58BB079
:1022800000AFF860B9607A603B60FB68002B05D155
:102290004FF404627C497D4801F058F8BB68002B7C
:1022A00005D140F641027849794801F04FF87B6842
:1022B000002B05D140F642027349764801F046F8FA
:1022C00000237B6202F082F93862734B1B68002B9B
:1022D00004D0714B1B68FA6810469847FDF786FFDB
:1022E00003461C46FB689B8C002B40F085803B68B6
:1022F000002B40F0818023461846FDF77BFF6FF0EE
:102300000103BCE0FDF772FFF86102F05FF90346DC
:10231000002B09D15C49614800F08EFF40F658025D
:1023200059495F4801F012F8FDF760FFB86100F00D
:10233000FDF80346002B09D053495A4800F07CFFB2
:1023400040F658025049564801F000F8B869FDF7C8
:1023500051FFF869FDF74EFF3B6A00221A633B68A4
:10236000002B0AD123461846FDF744FF3B6A6FF065
:1023700001021A636FF0010381E0FB6803F11400AE
:10238000FB685B7A1A46396AFEF7FCFF3B68002B54
:102390000EDDFEF7E7FB78623B6A4C333A460021DC
:1023A000184602F0EFFD3B6A4C33184602F0A2FCDF
:1023B00023461846FDF71EFF01F0A2FE3B6A1B6B89
:1023C000002B02D03B6A1B6B59E0FDF70FFF034661
:1023D0001C463B68002B0FDDFEF7C4FB02467B6A00
:1023E000D31A7B623B681A467B6AD31A3B603B6810
:1023F000002B01DA00233B60FB689B8C002B81D013
:10240000FB689B6A7B617B691A68FB689A62FB6860
:10241000DA6A7B699A4202D1FB680022DA62FB68C1
:102420009B8C013B9AB2FB689A8423461846FDF7C1
:10243000E1FE7B69191DFB681B8C1A467B68934281
:1024400028BF13461A46B86800F0F8F8FDF7CEFE2C
:1024500003461C46FB681A6B7B691A60FB687A6945
:102460001A6323461846FDF7C5FE0F4B1B68002B69
:1024700004D00D4B1B68FA68104698470023184695
:102480002C37BD4690BD00BF8C2A0308DCD802085B
:10249000ECD8020800D90208603C00206CD8020881
:1024A00068D8020840D802085C3C002080B582B0A1
:1024B00000AFFDF79BFE78600A4B1B78DBB201335F
:1024C000DAB2084B1A70084B1B68002B02D0064B7F
:1024D0001B6898477868FDF78DFE00BF0837BD463A
:1024E00080BD00BF503C0020D807002080B582B0DE
:1024F00000AFFDF77BFE78600A4B1B78DBB2013B37
:10250000DAB2084B1A70084B1B68002B02D0064B3E
:102510001B6898477868FDF76DFE00BF0837BD4619
:1025200080BD00BF503C0020DC07002080B400AF1D
:10253000034B1B78DBB21846BD465DF8047B704741
:10254000503C002080B584B000AF7860FFF7EEFF0C
:102550000346002B03D00A4A7B6813600CE002F0AC
:1025600035F8F860FB68002B03D1054A7B681360DF
:1025700002E0FB687A681A631037BD4680BD00BF71
:10258000E007002080B489B000AFF860B9607A60DD
:10259000FB68FB61BB68DBB27B617B68032B40D9C6
:1025A000FB6803F00303002B3BD1FB68BB617B6935
:1025B0001A027B6913433B613B691B043A6913436D
:1025C0003B6116E0BB691A1DBA613A691A60BB69C2
:1025D0001A1DBA613A691A60BB691A1DBA613A6973
:1025E0001A60BB691A1DBA613A691A607B68103BB0
:1025F0007B607B680F2BE5D807E0BB691A1DBA61C9
:102600003A691A607B68043B7B607B68032BF4D8D3
:10261000BB69FB6105E0FB695A1CFA617A6952B239
:102620001A707B685A1E7A60002BF4D1FB6818463A
:102630002437BD465DF8047B704700BF80B48BB083
:1026400000AFF860B9607A60FB687B62BB683B6290
:102650007B687B617B690F2B4ED93A6A7B6A134397
:1026600003F00303002B47D17B6AFB613B6ABB612C
:1026700022E0FB691A1DFA61BA69111DB96112687D
:102680001A60FB691A1DFA61BA69111DB9611268F5
:102690001A60FB691A1DFA61BA69111DB9611268E5
:1026A0001A60FB691A1DFA61BA69111DB9611268D5
:1026B0001A607B69103B7B617B690F2BD9D80AE0DC
:1026C000FB691A1DFA61BA69111DB96112681A60B5
:1026D0007B69043B7B617B69032BF1D8FB697B62DF
:1026E000BB693B6208E07B6A5A1C7A623A6A511CF9
:1026F000396292F900201A707B695A1E7A61002BA8
:10270000F1D1FB6818462C37BD465DF8047B704755
:1027100080B487B000AFF860B9607A60FB687B6115
:10272000BB683B613A697B699A4228D23A697B6807
:102730001A447B699A4222D97A697B6813447B6187
:102740003A697B6813443B610AE07B69013B7B612A
:102750003B69013B3B613B6993F900207B691A703F
:102760007B685A1E7A60002BEFD10DE07B695A1C02
:102770007A613A69511C396192F900201A707B68BC
:102780005A1E7A60002BF1D1FB6818461C37BD46F3
:102790005DF8047B704700BF80B487B000AFF8607D
:1027A000B9607A607B68002B23D0FB687B61BB68D3
:1027B0003B617B695A1C7A613A69511C396192F913
:1027C00000201A7093F90030002B0CD104E07B69D3
:1027D0005A1C7A6100221A707B68013B7B607B681F
:1027E000002BF4D105E07B68013B7B607B68002B0C
:1027F000DFD1FB6818461C37BD465DF8047B704787
:1028000090B484B000AFF860B9607A60002418E03A
:10281000FB6893F90030DAB2BB68591CB96093F9D0
:102820000030DBB2D31ADBB25CB2002C0CD1FB68F7
:102830005A1CFA6093F90030002B05D07B68013BED
:102840007B607B68002BE3D1234618461037BD46DA
:1028500090BC704780B483B000AF7860396005E009
:102860007B6801337B603B6801333B607B6893F995
:102870000030002B07D07B6893F900203B6893F968
:1028800000309A42ECD07B6893F900301A463B68DE
:1028900093F90030D31A18460C37BD465DF8047B17
:1028A000704700BF80B485B000AF78607B68FB6084
:1028B00002E0FB680133FB60FB6893F90030002BFA
:1028C000F7D1FA687B68D31A18461437BD465DF80D
:1028D000047B704780B584B000AF78607868FFF7FC
:1028E000E1FF03460133FB60F86800F061FEB86069
:1028F000BB68002B01D1002305E0FA687968B8684D
:10290000FFF79CFEBB6818461037BD4680BD00BF70
:1029100080B582B002AF0A4800F08EFC094800F092
:102920008BFC094B0093002301220321074800F090
:1029300083FC074800F080FC00BFBD4680BD00BF9F
:102940000CD9020818D902085CD902083CD902083F
:1029500068D9020880B485B000AF786039603B6800
:102960000A2B17D17B681B681946134BA3FB012365
:10297000DA0813469B0013445B00CA1AFA607B68AE
:102980001B681A460C4BA3FB0223DB081A467B6824
:102990001A600AE07B681B6803F00F03FB607B682A
:1029A0001B681B091A467B681A60FB6818461437B7
:1029B000BD465DF8047B7047CDCCCCCC90B482B0E2
:1029C00000AF786000240EE023469B0023445B00A8
:1029D00018467B681B68591C7A68116093F90030AF
:1029E0000344A3F130047B681B6893F90030303B4B
:1029F000092BE9D9234618460837BD4690BC7047D5
:102A0000F0B58DB000AFF860B9607A603B60BC6C27
:102A10003B6D03F04003002B01D06C4B00E06C4B8E
:102A2000BB623B6D03F01003002B03D03B6D23F022
:102A300001033B653B6D03F00103002B01D0302304
:102A400000E0202387F82730002387F82F303B6DE4
:102A500003F00203002B1AD07B68002B06DA2D232B
:102A600087F82F307B685B427B6010E03B6D03F0A2
:102A70000403002B03D02B2387F82F3007E03B6D96
:102A800003F00803002B02D0202387F82F30002505
:102A90007B68002B1AD12B465D1C07F130021344D2
:102AA000302203F81C2C14E02E46751C3B1D39689F
:102AB0001846FFF74FFF03461A46BB6A134493F9C3
:102AC000002007F13003334403F81C2C7B68002BF3
:102AD000EAD1FB6C9D4200DDFD64FB6CE41A3B6DAA
:102AE00003F01103002B15D197F92F30002B0DD0D7
:102AF000002C0BDD013C09E0FA68BB689A4202D861
:102B0000FB6820221A70FB680133FB6023465C1EC1
:102B1000002BF1DC97F92F30002B0BD0FA68BB6843
:102B20009A4204D8FB6897F82F201A70013CFB6882
:102B30000133FB603B6D03F01003002B1AD10AE058
:102B4000FA68BB689A4203D8FB6897F827201A7086
:102B5000FB680133FB6023465C1E002BF0DC09E0C0
:102B6000FA68BB689A4202D8FB6830221A70FB6888
:102B70000133FB60FB6C5A1EFA64AB42F0DC0DE0E3
:102B8000FA68BB689A4206D807F130032B4413F960
:102B90001C2CFB681A70FB680133FB602B465D1E22
:102BA000002BEDDC09E0FA68BB689A4202D8FB68AA
:102BB00020221A70FB680133FB6023465C1E002B49
:102BC000F1DCFB6818463437BD46F0BD982B03088E
:102BD000AC2B030880B592B004AFF860B9607A609E
:102BE0003B60FB68BB62BB68013BFA6813447B62D5
:102BF0007A6AFB689A4280F089824FF0FF337B62E9
:102C00007A6AFB68D31ABB6080E27B6893F9003074
:102C1000252B0CD0BA6A7B6A9A4204D87B6893F958
:102C20000020BB6A1A70BB6A0133BB626BE20023EF
:102C3000BB777B6801337B607B6893F900302D2B79
:102C400004D1BB7F43F01003BB77F2E77B6893F9B5
:102C500000302B2B04D1BB7F43F00403BB77E8E7A4
:102C60007B6893F90030202B04D1BB7F43F008032D
:102C7000BB77DEE77B6893F90030232B04D1BB7F61
:102C800043F02003BB77D4E77B6893F90030302B07
:102C900004D1BB7F43F00103BB77CAE700BF4FF00D
:102CA000FF33BB617B6893F90030303B092B05D8BB
:102CB0003B1D1846FFF782FEB86116E07B6893F96A
:102CC00000302A2B11D17B6801337B603B681A1DD1
:102CD0003A601B68BB61BB69002B06DABB695B42CB
:102CE000BB61BB7F43F01003BB774FF0FF337B61C9
:102CF0007B6893F900302E2B20D17B6801337B60F9
:102D00007B6893F90030303B092B05D83B1D1846F2
:102D1000FFF754FE78610CE07B6893F900302A2BB2
:102D200007D17B6801337B603B681A1D3A601B68E2
:102D30007B617B69002B01DA00237B6100237B77B9
:102D40007B6893F90030682B04D07B6893F90030DE
:102D50006C2B06D17B6893F900307B777B6801335D
:102D60007B600A23FB777B6893F90030253B532B6C
:102D700000F2728101A252F823F000BF2530000852
:102D800059300008593000085930000859300008FF
:102D900059300008593000085930000859300008EF
:102DA00059300008593000085930000859300008DF
:102DB00059300008593000085930000859300008CF
:102DC00059300008593000085930000859300008BF
:102DD00059300008593000085930000859300008AF
:102DE000593000085930000859300008593000089F
:102DF000593000085930000859300008593000088F
:102E0000593000085930000859300008593000087E
:102E1000593000085930000859300008593000086E
:102E2000593000085930000859300008593000085E
:102E3000593000085930000859300008593000084E
:102E40005930000859300008413000085930000856
:102E5000593000085930000859300008593000082E
:102E6000593000085930000859300008593000081E
:102E700059300008CD2E00084F30000859300008A6
:102E80005930000859300008593000084F30000808
:102E900059300008593000085930000859300008EE
:102EA000593000083B300008ED2F00085930000869
:102EB000593000083B2F00085930000899300008AD
:102EC000593000085930000849300008BB7F03F032
:102ED0001003002B10D109E0BA6A7B6A9A4202D82B
:102EE000BB6A20221A70BB6A0133BB62BB69013B1B
:102EF000BB61BB69002BEFDC3B681A1D3A601B68A5
:102F0000FB74BA6A7B6A9A4202D8BB6AFA7C1A706E
:102F1000BB6A0133BB6209E0BA6A7B6A9A4202D893
:102F2000BB6A20221A70BB6A0133BB62BB69013BDA
:102F3000BB61BB69002BEFDCE5E03B681A1D3A6022
:102F40001B683B623B6A002B01D17C4B3B62386AB9
:102F5000FFF7A8FC0346FB627B69002B05DDFA6ADC
:102F60007B699A4201DD7B69FB62BB7F03F0100342
:102F7000002B10D109E0BA6A7B6A9A4202D8BB6A78
:102F800020221A70BB6A0133BB62BB695A1EBA6148
:102F9000FA6A9342EFDC00233B6311E0BA6A7B6A72
:102FA0009A4204D83B6A93F90020BB6A1A70BB6A44
:102FB0000133BB623B6A01333B623B6B01333B63D2
:102FC0003A6BFB6A9A42E9DB09E0BA6A7B6A9A4289
:102FD00002D8BB6A20221A70BB6A0133BB62BB698C
:102FE0005A1EBA61FA6A9342EFDC8CE0BB69B3F116
:102FF000FF3F05D10823BB61BB7F43F00103BB77D3
:103000003B681A1D3A601B681A46BB7F02937B69B6
:103010000193BB6900931023796AB86AFFF7F0FC4B
:10302000B86270E0BA6A7B6A9A4202D8BB6A25220B
:103030001A70BB6A0133BB6265E00823FB772CE0A2
:10304000BB7F43F04003BB771023FB7725E0BB7FBA
:1030500043F00203BB771FE0BA6A7B6A9A4202D848
:10306000BB6A25221A70BB6A0133BB627B6893F985
:103070000030002B0CD0BA6A7B6A9A4204D87B6875
:1030800093F90020BB6A1A70BB6A0133BB623AE055
:103090007B68013B7B6036E000BF7B7F6C2B09D1F6
:1030A0003B681A1D3A601B687B63BB7F03F0020319
:1030B000002B1AE07B7F682B0ED13B681A1D3A600B
:1030C0001B689BB27B63BB7F03F00203002B0CD019
:1030D0007B6B1BB27B6308E03B681A1D3A601B6880
:1030E0007B63BB7F03F00203002B7A6BF97FBB7F0E
:1030F00002937B690193BB6900930B46796AB86AB6
:10310000FFF77EFCB8627B6801337B607B6893F9D4
:103110000030002B7FF479ADBA6A7B6A9A4203D8FB
:10312000BB6A00221A7002E07B6A00221A70BA6A37
:10313000FB68D31A18463837BD4680BD94D90208BB
:103140000CB480B584B000AF7860396007F11C031F
:10315000BB60BB68BA6939687868FFF73BFDF86007
:10316000FB6818461037BD46BDE8804002B0704786
:1031700080B584B000AFF860B9607A607B68BA68E7
:103180004FF0FF31F868FFF725FD0346184610376A
:10319000BD4680BD0EB480B585B000AF786007F144
:1031A0002003BB60BA68F9697868FFF7E1FFF8604F
:1031B000FB6818461437BD46BDE8804003B0704731
:1031C00080B400AF034B1B681846BD465DF8047B16
:1031D000704700BFE407002080B584B000AF78607E
:1031E0000F4B1B68FB607868FDF70EFEB860BB688C
:1031F000002B0FD00A4B1B68002B04D0084B1B6818
:103200001846FDF7C9FE4321B868FDF745FE044A9C
:10321000BB681360FB6818461037BD4680BD00BF11
:10322000E407002080B483B000AF786000BF0C37A3
:10323000BD465DF8047B70470FB480B584B000AF25
:1032400007F11C037B607B68BA6940F27F11194863
:10325000FFF7C0FC0346FB60FB68B3F5C07F02D3F9
:1032600040F27F13FB60144B1B68002B03D1114805
:10327000FFF7D8FF17E0104B1B681B8B7B810E4BB1
:103280001B680D4A1268128B42F0400292B21A83F8
:10329000094B1868FB68074A0021FDF7EFFE064B53
:1032A0001B687A891A8300BF1037BD46BDE880408D
:1032B00004B07047E8070020E407002080B483B022
:1032C00000AF78607B68002B01D1002326E07B688B
:1032D000DBB2002B05D07B68DBB2134AD35C013331
:1032E0001CE07B6803F47F43002B06D07B681B1235
:1032F000DBB20D4AD35C093310E07B6803F47F0333
:10330000002B06D07B681B14DBB2074AD35C113359
:1033100004E07B681B0E044AD35C193318460C3753
:10332000BD465DF8047B7047982A030880B483B0DB
:1033300000AF7860044A7B68136000BF0C37BD465D
:103340005DF8047B704700BF543C002080B586B018
:1033500000AFF860B9607A600023FB750C4B1B6806
:10336000002B0BD17B68BA68F9680A48FFF764FF45
:1033700000BFFB7D5BB2002BFBD005E0044B1B685C
:103380007A68B968F868984700BF1837BD4680BDAD
:10339000543C00209CD9020880B584B000AF78600E
:1033A000364B1B687A689A4204D2A22234493548C7
:1033B000FFF7CCFF344B1B687A689A4204D3A322F0
:1033C0002F493248FFF7C2FF7B685B88002B04D08F
:1033D000A4222B492E48FFF7B9FF284B1A687B68B7
:1033E0005B681344FB607A68FB689A421ED0FB68F6
:1033F0005B88002B1AD1244B1B68FA689A4215D0BF
:10340000244B1A68FB689A4202D1224A7B681360F7
:10341000FB685A687B685A60184B1A68FB685B68DF
:1034200013447A6815490968521A9A60134B1A684E
:103430007B689B681344BB60BA687B689A4219D06A
:10344000BB685B88002B15D1124B1A687B689A42C7
:1034500002D1104ABB6813607B685A68BB685A6027
:10346000064B1A687B685B681344BA6803490968AD
:10347000521A9A6000BF1037BD4680BD7009002007
:10348000EC2B0308D4D9020874090020F4D90208EF
:1034900020DA02087809002080B586B000AF786095
:1034A00039607B68033323F003037B613B6823F0BF
:1034B00003033B61FCF79AFEF860FFF737F8034619
:1034C000002B08D030493148FFF7B6FED3222E49F1
:1034D0002F48FFF73BFFF868FCF78CFE3B69182B81
:1034E00048D93B69A3F118027B699A4242D33A69F1
:1034F0007B69D31A183B274A13607B69264A1360FD
:10350000254B1B68BB60BB684FF4F5521A80214BFA
:103510001B6803F10C02BB685A60BB6800229A600A
:10352000BB6800225A801C4B1A68BB685B68134456
:103530001A4A1360194B1B684FF4F5521A80174B47
:103540001B6801225A80154B1B68124A12680C3204
:103550005A60124B1B680F4A12680C329A600023A3
:1035600001220F490F48FDF789FF0B4B1B680E4ADC
:10357000136006E07B683A6819460C48FFF75CFE6A
:1035800000BF1837BD4680BDF82B030830DA0208AB
:1035900058DA02089C0900207009002074090020F4
:1035A00098DA02087C090020780900205CDA020819
:1035B00080B588B000AF7860FCF718FEB861FEF700
:1035C000B5FF0346002B09D08F499048FFF734FE22
:1035D0004FF48B728C498E48FFF7B8FEB869FCF740
:1035E00009FE7B68002B01D1002308E17B680333CF
:1035F00023F003037B60874B1B687A689A4201D9EA
:103600000023FCE07B680B2B01D80C237B604FF080
:10361000FF318148FDF7B6FF804B1B681A46804B8F
:103620001B68D31AFB61DEE07D4B1A68FB6913440B
:103630007B617B695B88002B40F0CF807B695A6897
:10364000FB69D31AA3F10C027B689A42C0F0C580D3
:103650007B695A68FB69D31AA3F10C027B681833A3
:103660009A423DD3FA697B6813440C333B616C4B3F
:103670001A683B691344FB60FB684FF4F5521A80EB
:10368000FB6800225A807B695A68FB685A60FB68B5
:10369000FA699A607B693A695A607B6901225A80AB
:1036A000FB685A685B4B1B680C339A4206D05C4B34
:1036B0001A68FB685B6813443A699A60594B1A6848
:1036C0007B6813440C33574A1360574B1A68554BA9
:1036D0001B689A421DD2534B1B68534A136018E073
:1036E0007B6901225A807B695B687A694C49096869
:1036F000521A9A1A4B4B1B6813444A4A13604A4B9E
:103700001A68484B1B689A4203D2464B1B68464ACC
:1037100013607B694FF4F5521A80404B1B687A693D
:103720009A4224D107E03E4B1A683C4B1B685B6809
:1037300013443A4A1360394B1B685B88002B05D051
:10374000364B1A68394B1B689A42ECD1334B1A68D6
:10375000364B1B689A420AD0304B1B685B88002BA3
:1037600005D040F2831228493148FFF7EFFD2A487F
:10377000FDF7AAFF7A697B6813440C332B4A126861
:10378000934205D940F287121F492A48FFF7DEFD10
:103790007B690C3303F00303002B05D04FF4C47294
:1037A00019492548FFF7D2FD7B6903F00303002B7D
:1037B00005D040F2891214492048FFF7C7FD204B7D
:1037C0001B68002B06D01E4B1B687A690C32796887
:1037D000104698477B690C3311E0114B1A68FB695E
:1037E00013445B68FB610B4B1A687B68D21AFB6958
:1037F0009A423FF619AF0848FDF766FF00231846C6
:103800002037BD4680BD00BF0C2C030830DA02080B
:1038100058DA02089C0900207C0900207809002061
:1038200070090020A0090020A409002074090020CC
:10383000A0DA0208C8DA020810DB02085CDB020822
:103840006809002080B58AB000AF78603960FCF765
:10385000CDFC7862FEF76AFE0346002B09D057497B
:103860005748FFF7E9FC40F2AD1254495548FFF7BD
:103870006DFD786AFCF7BEFC3B68033323F003035D
:103880003B60514B1B683A689A4201D9002391E092
:103890003B68002B04D1786800F0DAF8002389E057
:1038A0007B68002B04D13868FFF782FE034681E075
:1038B0004FF0FF314548FDF765FE454B1B687A68C0
:1038C0009A4204D3434B1B687A689A4204D33F4818
:1038D000FDF7FAFE7B686DE07B680C3B3B623B6A60
:1038E0003B4A12689B1AFB613B6A5A68FB69D31A10
:1038F0000C3BBB61BA693B689A4204D13348FDF77F
:10390000E3FE7B6856E03B6803F11802BB699A420C
:1039100038D23A68BB69D21A2F4B1B6813442E4A1F
:103920001360FA693B6813440C337B61284B1A68B7
:103930007B6913443B613B694FF4F5521A803B6944
:1039400000225A803B6A5A683B695A603B69FA69AF
:103950009A603B6A7A695A603B695A681A4B1B68DD
:103960000C339A4206D01A4B1A683B695B681344C1
:103970007A699A603869FFF70FFD1448FDF7A4FED5
:103980007B6817E01148FDF79FFE3868FFF710FECF
:10399000F860FB68002B0CD03A68BB69934228BFE3
:1039A00013461A467968F868FEF748FE786800F012
:1039B0004FF8FB6818462837BD4680BD182C030811
:1039C00030DA020858DA02089C0900207C0900203D
:1039D0007009002074090020A009002080B584B07F
:1039E00000AF78603960FCF701FCF860FEF79EFDDF
:1039F0000346002B09D013491348FFF71DFC40F282
:103A0000122210491148FFF7A1FCF868FCF7F2FBFD
:103A10007B683A6802FB03F31846FFF7C9FDB860FC
:103A2000BB68002B08D07B683A6802FB03F31A4698
:103A30000021B868FEF7A6FDBB6818461037BD46E2
:103A400080BD00BF242C030830DA020858DA0208CF
:103A500080B584B000AF7860FCF7C8FBF860FEF773
:103A600065FD0346002B09D04C494D48FFF7E4FBA8
:103A700040F2292249494B48FFF768FCF868FCF7F7
:103A8000B9FB7B68002B00F082807B6803F00303A6
:103A9000002B05D040F22D2240494348FFF756FC49
:103AA000424B1B687A689A4204D3414B1B687A6880
:103AB0009A4205D340F22F2238493E48FFF746FC90
:103AC0003D4B1B68002B03D03B4B1B687868984725
:103AD000364B1B687A689A425BD3354B1B687A6811
:103AE0009A4256D27B680C3BBB604FF0FF313348A3
:103AF000FDF748FDBB685B88002B04D0BB681B88C2
:103B0000B3F5F55F0BD02E48FFF796FBBB685B88DB
:103B10001A46BB681B88B9682A48FFF78DFBBB684B
:103B20005B88002B05D140F24D221C492648FFF747
:103B30000DFCBB681B88B3F5F55F05D040F24E2243
:103B400016492248FFF702FCBB6800225A80BB6876
:103B50004FF4F5521A801E4B1B68BA689A4202D283
:103B60001B4ABB681360BB68104A12689B1A1A464E
:103B7000BB685B68D21A174B1B681344154A136065
:103B8000B868FFF709FC0D48FDF79EFD02E000BF95
:103B900000E000BF1037BD4680BD00BF302C0308D9
:103BA00030DA020858DA02088CDB020870090020BB
:103BB00074090020C0DB02086C0900207C09002089
:103BC0001CDC020838DC020868DC020874DC02082D
:103BD00078090020A009002080B500AF094B1B68C0
:103BE00019460948FFF728FB084B1B681946084887
:103BF000FFF722FB074B1B6819460748FFF71CFB22
:103C000000BF80BD9C09002090DC0208A0090020B4
:103C1000A4DC0208A4090020B8DC020880B483B048
:103C200000AF786039607B681B683A685A607B68CF
:103C30001A683B681A607B683A681A603B687A6861
:103C40005A6000BF0C37BD465DF8047B704700BF6B
:103C500080B483B000AF78607B681B687A68526874
:103C60005A607B685B687A6812681A607B687A6859
:103C70005A607B685A687B681A6000BF0C37BD4683
:103C80005DF8047B704700BF80B485B000AF034689
:103C9000FB710023FB600FE00C4AFB681B0113441F
:103CA0001B78FA799A4204D1FB681B01074A134436
:103CB00006E0FB680133FB60FB68092BECDD0023A9
:103CC00018461437BD465DF8047B7047000000209D
:103CD00090B587B000AFF8600B467A60FB72FB7A54
:103CE0001846FFF7D1FF78617B69002B05D14FF4AF
:103CF000837215491548FFF729FBFB7A63F07F03B0
:103D0000DAB2FB681A72FB68082279681846FEF777
:103D100043FD0F4B1B68002B03D00D4B1B68F8684D
:103D20009847FCF763FA04467B691A1DFB680C335D
:103D300019461046FFF772FF2046FCF75BFA00BFFA
:103D40001C37BD4690BD00BF382C0308D8DC0208E4
:103D5000A809002090B583B000AF78607B68002B85
:103D600005D14FF494720D490D48FFF7EFFA0D4B52
:103D70001B68002B03D00B4B1B6878689847FCF737
:103D800035FA04467B680C331846FFF761FF20467E
:103D9000FCF730FA00BF0C37BD4690BD482C030835
:103DA000F0DC0208AC09002090B587B000AF0346F4
:103DB0003960FB71FCF71AFA7861FEF7B7FB03462E
:103DC000002B09D026492748FFF736FA40F2451262
:103DD00023492548FFF7BAFA7869FCF70BFAFB7913
:103DE0001846FFF751FF38613B69002B05D140F2BF
:103DF00051121B491D48FFF7A9FA3B69DB681846B9
:103E0000FFF7D6FBF860FB68002B01D1002322E00E
:103E1000FB68FA791A72FB6800225A72FB68082262
:103E200039681846FEF7B8FC114B1B68002B03D00D
:103E30000F4B1B68F8689847FCF7D8F904463B69B4
:103E40001A1DFB680C3319461046FFF7E7FE2046A3
:103E5000FCF7D0F9FB6818461C37BD4690BD00BF83
:103E60005C2C030804DD02082CDD0208D8DC020803
:103E7000A809002090B583B000AF78607B68002B64
:103E800005D140F2871214491448FFF75FFA7B68A6
:103E90001B7A5BB2002B05DA4FF4C4720E4910484E
:103EA000FFF754FA0F4B1B68002B03D00D4B1B6818
:103EB00078689847FCF79AF904467B680C331846F3
:103EC000FFF7C6FE2046FCF795F97868FFF7C0FDBE
:103ED00000BF0C37BD4690BD702C0308F0DC020813
:103EE00030DD0208AC09002080B582B000AF7860F8
:103EF0007B68002B05D14FF4D67208490848FFF7BC
:103F000025FA7B681B7A5BB2002B01DA012300E003
:103F1000002318460837BD4680BD00BF842C030827
:103F2000F0DC020880B483B000AF78607B687A6808
:103F30005A607B685A687B681A6000BF0C37BD46C0
:103F40005DF8047B704700BF80B483B000AF786039
:103F500039607B685B683A681A607B685A683B68BE
:103F60005A607B683A685A603B687A681A6000BF9A
:103F70000C37BD465DF8047B704700BF80B483B04A
:103F800000AF78607B681B687A6852685A607B680B
:103F90005B687A6812681A607B687A685A607B6826
:103FA0005A687B681A6000BF0C37BD465DF8047B19
:103FB000704700BF80B483B000AF78607B681A6838
:103FC0007B689A420CBF01230023DBB218460C37F2
:103FD000BD465DF8047B704780B584B000AF786063
:103FE0007B68002B04D159221D491E48FFF7AEF90A
:103FF0007B689B6A1B78232B11D17B68DB691A468F
:104000007B689B6A9A420AD97B68DB691A467B689F
:104010009B6A19467B68DB6A0B449A420ED97B681F
:1040200019461148FFF708F902F024FEFCF7DEF804
:104030000346FB60FB68002BFCD10DE07B68DB696D
:104040001A467B689B6A20339A4205D87B681946DA
:104050000648FFF7F1F8FFE700BF1037BD4680BD07
:10406000A02C03085CDD020870DD02088CDD02086C
:1040700098B500AF0D4B00221A80002406E0E30043
:104080000B4A13441846FFF74DFF01341F2CF6DD91
:10409000084B1F221A70084B00221A60074B00229F
:1040A0001A600748FFF73EFF00BF98BDB009002027
:1040B000643C0020643D0020683D00206C3D0020F1
:1040C000703D002098B500AF0A4B1B681846FFF7FB
:1040D000F5F80346013B1C46074B53F83430A3F177
:1040E0001404064B1C6004F11C031846FCF7CBF8C3
:1040F00000BF98BD6C3D0020643C0020683D00205E
:1041000090B585B000AFFCF771F8F8602A4BB3F9B1
:104110000030002B49D1294B1B681846FFF7CEF819
:104120000346013B1C46264B53F83430143BBB601E
:10413000244B1B68BA689A4233D0E2B2224B1A7001
:10414000204B1B687B601F4ABB6813601F4B1B68BA
:10415000002B04D01D4B1B68B96878689847B86875
:10416000FFF73AFF1A4B1B78DBB2002B0CD17B68B0
:104170001C331A46BB681C3319461046FCF73DF841
:10418000F868FCF737F813E07B681C331A46BB6805
:104190001C3319461046FCF730F8F868FCF72AF88B
:1041A00006E0F868FCF726F802E0F868FCF722F869
:1041B00000BF1437BD4690BDB00900206C3D002003
:1041C000643C0020683D0020643D0020B4090020CC
:1041D000503C002090B583B000AF78607B68002B26
:1041E00005D14FF4917217491748FFF7AFF8FBF765
:1041F000FDFF04467B6893F834305BB223F00F0375
:104200005BB243F001035BB2DAB27B6883F834201F
:104210007B6893F83530DB000C4A1A447B68143312
:1042200019461046FFF790FE7B689A6B084B1B6897
:104230001343074A13602046FBF7DCFF00BF0C372F
:10424000BD4690BDBC2C03085CDD0208643C002028
:104250006C3D002090B583B000AF78607B68002B88
:1042600005D14FF4A87213491348FFF76FF8FBF715
:10427000BDFF04467B6814331846FFF77FFE7B685A
:1042800093F83530DB000D4A13441846FFF792FED1
:104290000346002B07D07B689B6BDA43084B1B68F7
:1042A0001340074A13602046FBF7A4FF00BF0C37FA
:1042B000BD4690BDD82C03085CDD0208643C00209C
:1042C0006C3D002098B500AFFBF790FF0446074B0C
:1042D000B3F900309BB201339BB21AB2034B1A8080
:1042E0002046FBF787FF00BF98BD00BFB009002044
:1042F00098B500AFFBF77AFF04460E4BB3F90030D8
:104300009BB2013B9BB21AB20A4B1A80094BB3F91C
:104310000030002B08DC074B00221A802046FBF7F8
:1043200069FFFFF7EDFE02E02046FBF763FF00BFE9
:1043300098BD00BFB009002080B483B000AF7860A2
:104340007B687A685A607B685A687B681A6000BF2D
:104350000C37BD465DF8047B704700BF80B483B066
:1043600000AF786039607B681B683A685A607B6888
:104370001A683B681A607B683A681A603B687A681A
:104380005A6000BF0C37BD465DF8047B704700BF24
:1043900080B483B000AF786039607B685B683A684E
:1043A0001A607B685A683B685A607B683A685A6052
:1043B0003B687A681A6000BF0C37BD465DF8047B25
:1043C000704700BF80B483B000AF78607B681B6823
:1043D0007A6852685A607B685B687A6812681A600B
:1043E0007B687A685A607B685A687B681A6000BF8D
:1043F0000C37BD465DF8047B704700BF90B583B0B5
:1044000000AF174B1B687B60FBF7F0FE0446786833
:10441000FFF720FF7B68042283F834207B684C334D
:10442000184600F003FC7868FFF75EFD0346012B99
:1044300007D17B689B6F002B03D17868FFF78AFC5C
:1044400005E07B68143319460648FFF787FF2046CE
:10445000FBF7D0FEFFF754FE00BF0C37BD4690BD02
:10446000683D0020703D002080B586B002AFF86046
:10447000B9607A603B60FB6814331846FFF75CFF55
:10448000FB687A681A62FB683A685A62FB68BA6924
:104490009A62FB68FA69DA62FB68986AFB68DB6A11
:1044A0001A462321FEF76EF8FB68186AFB68596A02
:1044B000FB689A6AFB68DB6A043B1A44234B02F0F0
:1044C0008BF80246FB68DA6197F820301F2B04D97D
:1044D0009E221F491F48FEF739FFFB6897F82020EE
:1044E00083F83620FB6897F8202083F83520FB6896
:1044F00000229A63FB687A6A5A64FB687A6A9A6453
:10450000FB6800221A63FB68002283F83420FB68F2
:1045100000229A67FB680022DA67FB6803F14C000F
:10452000F9680023019300230093FB680A4A00F016
:1045300059FB0A4B1B68002B03D0084B1B68F8681B
:104540009847002318461037BD4680BDFD4300083C
:10455000F42C0308C4DD0208FD490008C00900204E
:1045600080B588B004AFF860B9607A603B60FB68E2
:10457000002B04D1EE2212491248FEF7E7FEBB6978
:10458000002B04D1EF220E490F48FEF7DFFEBA6878
:104590000021F868FFF79CFB7B6A039397F82030B3
:1045A0000293FB690193BB6900933B687A68B96821
:1045B000F868FFF759FF034618461037BD4680BD1F
:1045C000042D0308E8DD0208FCDD020880B400AF1A
:1045D000034B1B681846BD465DF8047B704700BF5F
:1045E000683D002080B582B000AF78607B68002B0A
:1045F00005D14FF48A7219491948FEF7A7FE7B6866
:1046000093F8343003F00F03002B05D040F215125D
:1046100012491448FEF79AFE7B6893F836207B68AF
:1046200083F835207B6893F835301A460123934090
:104630001A467B689A637B68022283F83420786884
:1046400000F09EF9FFF7C2FF0346002B01D0FFF7F1
:1046500057FD002318460837BD4680BD142D0308BA
:10466000E8DD020814DE020880B58AB004AFF86005
:10467000B9607A603B60F9680020FFF795FB7861CC
:104680007B69002B01D100231BE03868FEF790FF07
:1046900038613B69002B04D17869FFF7EBFB0023FD
:1046A0000FE07B6A039397F8203002933B680193F5
:1046B0003B6900937B68BA68F9687869FFF7D4FEB4
:1046C0007B6918461837BD4680BD00BF80B584B0F1
:1046D00000AF78607B68002B05D14FF4D17214498C
:1046E0001448FEF733FE7B6893F8343003F00F0371
:1046F000002B02D07868FFF7ADFD7B684C3318467D
:1047000000F094FA7B68042283F83420FBF76EFDF6
:10471000F8607B68143319460748FFF71FFEF868F6
:10472000FBF768FD002318461037BD4680BD00BF6B
:10473000282D0308E8DD0208703D002090B583B005
:1047400000AFFBF753FD0446174B1B687B607B688B
:1047500093F8343003F00F03012B1DD17B685A69A5
:104760007B689B699A4217D07B6814331846FFF721
:1047700029FE7B6893F83530DB000C4A1A447B68CD
:10478000143319461046FFF703FE2046FBF732FDAF
:10479000FFF7B6FC002303E02046FBF72BFD0023C8
:1047A00018460C37BD4690BD683D0020643C002093
:1047B00090B585B000AF7860FBF718FD0446164B46
:1047C0001B68FB60FB68002B05D14FF4FD72134999
:1047D0001348FEF7BBFDF86800F08CF8FB684C331B
:1047E0003A1D0021184600F0CDFBFB684C331846FB
:1047F00000F080FA2046FBF7FDFCFFF781FCFB6828
:104800001B6B13F1020F02D1FB6800221A63002315
:1048100018461437BD4690BD683D00203C2D030866
:10482000E8DD020880B582B000AF78607868FFF7F5
:10483000BFFF034618460837BD4680BD90B585B01A
:1048400000AFF860B9607A60FB68002B05D140F2D8
:104850003E2226492648FEF779FDBB68012B3AD057
:10486000022B02D0002B31D03AE0FBF7BFFC04460C
:10487000FB6893F8343003F00F03012B14D1F86870
:10488000FFF7E8FC7B681A78FB6883F83520FB6843
:1048900093F835301A46012393401A46FB689A6311
:1048A000F868FFF797FC0DE07B681A78FB6883F8DF
:1048B0003520FB6893F835301A46012393401A4699
:1048C000FB689A632046FBF795FC09E0F868FFF760
:1048D00089FE034605E0F868FFF7F8FE034600E0AE
:1048E000002318461437BD4690BD00BF4C2D030869
:1048F000E8DD020890B583B000AF78607B68002BDC
:1049000005D14FF423721B491B48FEF71FFD7B683E
:1049100093F8343003F00F03012B02D04FF0FF3334
:1049200024E0FBF763FC04467B6893F834305BB209
:1049300023F00F035BB243F002035BB2DAB27B6891
:1049400083F834207868FFF785FC7B684C33184681
:1049500000F0DEFA2046FBF74DFC084B1B68002BED
:1049600003D0064B1B6878689847002318460C371D
:10497000BD4690BD602D0308E8DD0208B80900209F
:1049800090B583B000AF78607B68002B05D140F212
:10499000B62217491748FEF7D9FC7B6893F83430E4
:1049A00003F00F03022B02D04FF0FF331BE0FBF7A5
:1049B0001DFC04467B6814331846FFF703FD7B6833
:1049C0004C33184600F0A4FA2046FBF713FC786835
:1049D000FFF700FC084B1B68002B03D0064B1B683D
:1049E00078689847002318460C37BD4690BD00BF35
:1049F000742D0308E8DD0208BC09002080B584B0EE
:104A000000AF78607B68FB60FB68002B05D140F24B
:104A1000E22211491148FEF799FCFB6893F8343003
:104A200003F00F03022B05D040F2E3220A490C48A1
:104A3000FEF78CFCFB686FF001021A63FB6814330D
:104A40001846FFF7BFFCF868FFF7C4FBFFF758FBF9
:104A500000BF1037BD4680BD882D0308E8DD020881
:104A60004CDE020880B483B000AF78607B687A685F
:104A70005A607B685A687B681A6000BF0C37BD4675
:104A80005DF8047B704700BF80B483B000AF7860EE
:104A900039607B681B683A685A607B681A683B68B3
:104AA0001A607B683A681A603B687A685A6000BF8F
:104AB0000C37BD465DF8047B704700BF80B483B0FF
:104AC00000AF78607B681B687A6852685A607B68C0
:104AD0005B687A6812681A607B687A685A607B68DB
:104AE0005A687B681A6000BF0C37BD465DF8047BCE
:104AF000704700BF80B483B000AF78607B681A68ED
:104B00007B689A420CBF01230023DBB218460C37A6
:104B1000BD465DF8047B704780B586B000AFF86095
:104B2000B9607A603B60FB6897F820205A72FB6896
:104B30005B7A23F00103DAB2FB685A72FB68BA6849
:104B4000DA61FB687A681A62FB6800229A62FB6885
:104B50003A685A6200237B610BE07B690233DB0019
:104B6000FA68134404331846FFF77CFF7B6901336E
:104B70007B617B69002BF0DD00BF1837BD4680BD2F
:104B800080B584B000AF78607868FFF7B3FF034664
:104B9000002B02D04FF0FF3305E07B681B68143B0D
:104BA000FB60FB689B6A18461037BD4680BD00BF9E
:104BB00080B584B000AF78600023FB600BE0FB6839
:104BC0000233DB007A68134404331846FFF776FF9C
:104BD000FB680133FB60FB68002BF0DD00BF103782
:104BE000BD4680BD80B586B002AFF860B9607A601E
:104BF0003B60FB68002B04D1BC220A490A48FEF73F
:104C0000A5FBBA680921F868FFF762F83B7F0093BB
:104C1000BB693A687968F868FFF77EFF00BF103714
:104C2000BD4680BD9C2D0308A0DE020890B583B070
:104C300000AF78607B68002B04D1D1220A490B4871
:104C4000FEF784FBFBF7D2FA04467868FFF7B0FF63
:104C50002046FBF7CFFA7868FFF77CF80023184668
:104C60000C37BD4690BD00BFAC2D0308A0DE020886
:104C700080B588B002AFF860B9607A603B60F968CF
:104C80000920FFF791F878617B69002B01D100239F
:104C900009E097F8203000933B687A68B968786932
:104CA000FFF73AFF7B6918461837BD4680BD00BF45
:104CB00090B583B000AF78607B68002B05D14FF4CE
:104CC00087720A490A48FEF741FBFBF78FFA044650
:104CD0007868FFF76DFF2046FBF78CFA7868FFF7DE
:104CE000C9F8002318460C37BD4690BDBC2D0308FB
:104CF000A0DE020890B589B000AF78607B68002B19
:104D000005D14FF4987279497948FEF71FFBFBF7FC
:104D10006DFA04467868FFF74BFF7B685B7A23F0F7
:104D20000103DAB27B685A722046FBF763FA714BD3
:104D30001B68002B04D06F4B1B687A68104698479D
:104D40007B685B6A6C4A934205D94FF4A07267494D
:104D50006A48FEF7FBFAFBF705FF02467B685B6AD1
:104D60001A447B689A62FBF741FA04467B685B7AD7
:104D700003F00403002B02D0614BBB6101E0614BE7
:104D8000BB61BB69BB600023FB6155E0FB699B0015
:104D900007F12002134453F8183C1B683B61FB6980
:104DA000DB0014335B423A691344FB60FB689A6A88
:104DB0007B689B6A9A4208D0FB689A6A7B689B6A08
:104DC000D31A4D4A93421FD900E000BFFB699B00F4
:104DD00007F12002134453F8183C1A68FB699B0042
:104DE00007F120010B4443F8182CFB699B0007F1E5
:104DF0002002134453F8182CFB69DB00B9690B44FB
:104E00005B689A42C2D100E000BFFB69002B10D062
:104E1000FB69591CFB699B0007F12002134453F8FE
:104E2000183C03F108028B0007F120010B4443F802
:104E3000182CFB690133FB61FB69002BD5D0324B89
:104E40001B680133304A13602F4B1B687B61BA68C3
:104E50007B68143319461046FFF716FE0223FB61E8
:104E60001EE07B6903F00303002B1DD1FB69C3F136
:104E700001039B0007F12002134453F8180CFB694F
:104E8000C3F101030233DB007A681344043319468B
:104E9000FFF7FAFD7B699B087B61FB690133FB61CE
:104EA000FB69012BDDD900E000BF7B685B7A43F032
:104EB0000103DAB27B685A722046FBF79BF97B68E4
:104EC0005B7A03F00403002B0BD0104B93F83430C3
:104ED00003F00F03012B04D00C48FFF751FDFFF73F
:104EE0000FF9002318462437BD4690BDCC2D03088A
:104EF000A0DE02085C3C0020FEFFFF7FB4DE02085B
:104F0000CC090020C4090020580C0020D40900203E
:104F100090B583B000AF78607B68002B05D14FF46B
:104F2000D47215491548FEF711FA7B685B7A03F0D5
:104F30000103002B02D14FF0FF3319E0104B1B6827
:104F4000002B04D00E4B1B687A6810469847FBF77D
:104F50004DF904467868FFF72BFE2046FBF74AF927
:104F60007B685B7A23F00103DAB27B685A72002314
:104F700018460C37BD4690BDDC2D0308A0DE0208A4
:104F8000583C002080B584B000AFF860B9607A600A
:104F9000FB68002B05D140F2C91219491948FEF7E8
:104FA000D5F9BB68032B25D801A252F823F000BF26
:104FB000CB4F0008C14F0008D54F0008E54F00084F
:104FC000FB685A6A7B681A6014E07B681A68FB68A1
:104FD0005A620FE0FB685B7A23F00203DAB2FB68E7
:104FE0005A7207E0FB685B7A43F00203DAB2FB68AF
:104FF0005A7200BF002318461037BD4680BD00BF5F
:10500000EC2D0308A0DE020890B583B000AFFBF7DB
:10501000A9FD7860FBF7EAF804463CE0254B1B68E5
:10502000143B3B603B689B6A7A68D31A224A9342DE
:1050300038D8224B1B68002B03D0204B1B683868E4
:1050400098473868FFF7B4FD3B68DB693A68126A35
:1050500010469847FBF786FD78603B685B7A03F063
:105060000203002B10D03B685B7A03F00103002B96
:105070000AD03B685B7A23F00103DAB23B685A72CC
:105080003868FFF737FE06E03B685B7A23F00103E0
:10509000DAB23B685A720748FFF72CFD0346002B33
:1050A000BCD000E000BF2046FBF7A4F800BF0C37DF
:1050B000BD4690BDC4090020FEFFFF7F540C0020B8
:1050C00080B584B000AFFBF74DFDF860FFF7FAF84C
:1050D000294B1B68BB6042E0BB68143B7B607B686C
:1050E0009B6AFA68D31A254A93423DD8244B1B6821
:1050F000002B03D0224B1B6878689847BB681B685D
:10510000BB607868FFF754FDFFF7F2F87B68DB6956
:105110007A68126A10469847FBF724FDF860FFF79B
:10512000D1F87B685B7A03F00203002B10D07B6818
:105130005B7A03F00103002B0AD07B685B7A23F0D3
:105140000103DAB27B685A727868FFF7D3FD06E094
:105150007B685B7A23F00103DAB27B685A72BB6822
:10516000054A9342B8D100E000BFFFF7C1F800BF85
:105170001037BD4680BD00BFCC090020FEFFFF7F79
:10518000540C002080B584B000AF78601148FFF760
:10519000F7FCF860FB68B3F1FF3F08D1FFF716FAA0
:1051A00003461846FFF7A6FBFEF7AAFF0FE0FBF742
:1051B000D9FCB860FA68BB68D31A074A934206D88C
:1051C000FA68BB68D31AFB60F868FFF72BFBFFF7A0
:1051D00077FFDBE7CC090020FEFFFF7F80B582B0C0
:1051E00000AF00237B6009E07B68DB00074A1344C3
:1051F0001846FFF737FC7B6801337B607B68002B28
:10520000F2D000BF0837BD4680BD00BFC4090020F2
:1052100080B586B004AF00237B6009E07B68DB00CB
:10522000104A13441846FFF71DFC7B6801337B606E
:105230007B68002BF2D00A230393042302934FF4DC
:1052400000730193084B00930023084A084909485A
:10525000FFF786F90748FFF7C5F900BF0837BD46D5
:1052600080BD00BFCC090020540A002085510008F1
:10527000D8DE0208D409002080B584B000AF786081
:105280007868FBF767FC03460133FB60094B1B683A
:10529000F8689847B860BB68002B01D1002305E08F
:1052A000FA687968B86826F06CF8BB681846103759
:1052B000BD4680BDA000002080B483B000AF786000
:1052C0007B68002B06D1104B104A1A60104B114A14
:1052D0001A6013E07B681B68002B02D07B681B6898
:1052E00000E00A4B084A13607B685B68002B02D021
:1052F0007B685B6800E0074B054A13600C37BD46CE
:105300005DF8047B704700BFA000002021B30208B5
:10531000A400002031B3020880B582B000AF094B71
:105320001B682820984778607B68002B04D02822CF
:105330000021786826F030F87B6818460837BD46AB
:1053400080BD00BFA000002080B584B000AF7860B1
:1053500037E07B681B68FB607B68DB6803F4807365
:10536000002B08D17B689B68002B04D07B689B686E
:105370001846FFF7E9FF7B68DB6803F48073002BB6
:1053800009D17B681B69002B05D0114B1B687A681B
:105390001269104698477B68DB6803F40073002BA2
:1053A00009D17B681B6A002B05D0094B1B687A6802
:1053B000126A10469847064B1B6878689847FB6846
:1053C0007B607B68002BC4D100BF1037BD4680BD19
:1053D000A400002080B483B000AF78607B68013BFC
:1053E0007B607B685B107A6813437B607B689B10F3
:1053F0007A6813437B607B681B117A6813437B6078
:105400007B681B127A6813437B607B681B147A6885
:1054100013437B607B68013318460C37BD465DF84B
:10542000047B704780B584B000AF786039607B68DA
:10543000002B03D07B681B68002B01D1002346E0C2
:105440007B689B683A6813443B607B685A683B689A
:105450009A4205DB7B681B687A689268134436E0E1
:105460003868FFF7B7FFF8601B4B1B68FA681046F7
:105470009847B860BB68002B0DD1184B1B687A6841
:105480001268104698477B6800225A607B680022A9
:105490001A6000231BE0BB68002B07D07B681968EB
:1054A0007B685B681A46B86825F06BFF0B4B1B687E
:1054B0007A681268104698477B68FA685A607B6879
:1054C000BA681A607B689B681A46BB681344184622
:1054D0001037BD4680BD00BFA0000020A400002002
:1054E00090B585B000AF78607B68002B03D07B68F7
:1054F0001B68002B01D100230DE07B681B687A68D4
:1055000092681344FB607B689B681C46F868FBF755
:1055100021FB0346234418461437BD4690BD00BF07
:105520002DE9F04F8BB000AF7861396100237B62C9
:105530007B69D3E90634C7E906344FF000024FF027
:105540000003D7E90601FBF7E9F80346002B18D062
:105550003B69002B05D002213869FFF763FF7862B1
:1055600004E06B4B1B680220984778627B6A002B33
:1055700000F0B8807B6A67491A460B461B88138087
:10558000B0E07B695B691846FBF70CF8D7E90623A6
:10559000FAF7BAFE03460C46984624F000494FF04D
:1055A00000025D4B40464946FBF7CCF80346002B12
:1055B0002CD04FA3D3E90023D7E90601FBF7C2F8AB
:1055C0000346002B22D04FF00002544BD7E90601CE
:1055D000FBF7C2F80346002B18D03B69002B05D01F
:1055E00015213869FFF71EFF786204E0484B1B68FD
:1055F0001520984778627B6A002B73D07B695B69C2
:105600001A464749786A26F0EBFA6BE03B69002BB3
:1056100005D040213869FFF705FF786204E03C4B74
:105620001B684020984778627B6A002B5AD097ED20
:10563000060B28F001F851EC100BD7E90623FAF716
:1056400063FE03460C469A4624F0004B4FF00002DE
:10565000314B50465946FBF775F80346002B16D0E0
:10566000BB69BB60FB6923F00043FB6022A3D3E965
:105670000023D7E90201FBF75BF80346002B06D0B5
:10568000D7E906232749786A26F0AAFA2AE0BB69F7
:105690003B60FB6923F000437B6019A3D3E900233F
:1056A000D7E90001FBF744F80346002B0DD1BD6993
:1056B000FB6923F0004614A3D3E9002328463146B2
:1056C000FBF754F80346002B06D0D7E9062316490A
:1056D000786A26F085FA05E0D7E906231349786A47
:1056E00026F07EFA7B6A18462C37BD46BDE8F08F5F
:1056F0000000C0FFFFFFDF4144F3C2E4E4E9634C74
:105700008DEDB5A0F7C6B03E0000000065CDCD41DF
:10571000A0000020E0DE02080000B03C0000E0C174
:10572000E4DE0208E8DE0208F0DE0208F4DE020829
:1057300080B588B000AF7860396000233B610023FA
:10574000FB607B68FB611CE0FB6993F90030002B78
:1057500004DDFB6993F900301F2B09DDFB6993F928
:105760000030222B04D0FB6993F900305C2B01D16F
:10577000012300E00023FA681343FB60FB69013357
:10578000FB61FB6993F90030002BDDD1FB68002B36
:1057900032D1FA697B68D31A3B613B68002B07D092
:1057A0003B69033319463868FFF73CFE786106E031
:1057B000834B1B683A6903321046984778617B69CE
:1057C000002B01D10023F7E07B69BB61BB695A1C48
:1057D000BA6122221A707968B86926F078FA3B69B2
:1057E000BA69134422221A703B690133BA6913441F
:1057F00000221A707B69DFE07B68002B1AD13B68BE
:10580000002B05D003213868FFF70CFE786104E017
:105810006B4B1B680320984778617B69002B01D193
:105820000023C9E07B69674A1188927819809A70D1
:105830007B69C1E07B68FB6114E0FB7A1946624832
:1058400026F037FA0346002B03D03B6901333B6156
:1058500005E0FB7A1F2B02D83B6905333B61FB69EE
:105860000133FB61FB6993F90030FB72FB7A002B7B
:1058700005D03B6901333B613B69002BDDD13B68BF
:10588000002B07D03B69033319463868FFF7CAFD80
:10589000786106E04A4B1B683A6903321046984724
:1058A00078617B69002B01D1002385E07B69BB61B6
:1058B0007B68FB61BB695A1CBA6122221A706BE0DB
:1058C000FB6993F90030DBB21F2B13D9FB6993F905
:1058D0000030222B0ED0FB6993F900305C2B09D0ED
:1058E000BB695A1CBA61FA69511CF96192F900202E
:1058F0001A7051E0BB695A1CBA615C221A70FB69CC
:105900005A1CFA6193F90030FB72FB7A0C2B21D000
:105910000C2B06DC092B2FD00A2B21D0082B13D0FF
:1059200030E0222B0AD05C2B02D00D2B1ED029E0B8
:10593000BB695A1CBA615C221A702DE0BB695A1C03
:10594000BA6122221A7027E0BB695A1CBA6162222E
:105950001A7021E0BB695A1CBA6166221A701BE0FA
:10596000BB695A1CBA616E221A7015E0BB695A1CD9
:10597000BA6172221A700FE0BB695A1CBA617422B4
:105980001A7009E0FB7A1A461049B86926F028F91E
:10599000BB690533BB6100BFFB6993F90030002B85
:1059A0008ED1BB695A1CBA6122221A70BB695A1C7B
:1059B000BA6100221A707B6918462037BD4680BD47
:1059C000A0000020F8DE0208FCDE020804DF020866
:1059D00080B582B000AF786039607B681B69396838
:1059E0001846FFF7A5FE034618460837BD4680BD9A
:1059F00080B582B000AF7860002300220021786873
:105A000000F006F8034618460837BD4680BD00BFC3
:105A100080B586B000AFF860B9607A603B60002363
:105A20007B61FB68002B01D10023ACE03B68002BBD
:105A300061D0FB68DB68DBB2062B00F2A38001A219
:105A400052F823F0815A00089F5A0008615A000852
:105A5000BD5A0008C95A0008D55A0008E55A00087E
:105A600005213868FFF7DEFC78617B69002B00F0C8
:105A700084807B69464A1068186012791A717CE04C
:105A800006213868FFF7CEFC78617B69002B76D061
:105A90007B69404A1068186092889A806FE00521FF
:105AA0003868FFF7BFFC78617B69002B69D07B69A0
:105AB000394A1068186012791A7162E03968F8681A
:105AC000FFF72EFD78615DE03968F868FFF780FF29
:105AD000786157E03B687A68B968F86800F05EF86A
